S00F0000445249564552532E73726563F6
S11300000C942A000C9483000C94AA000C94D10044
S11300100C9447000C9447000C9447000C94470040
S11300200C9447000C9447000C9447000C94470030
S11300300C9447000C9458020C947F020C94A60272
S11300400C9447000C9447000C9447000C94470010
S11300500C94470011241FBECFE5D8E0DEBFCDBF0E
S113006010E0A0E6B0E0E2EEF5E002C005900D92EB
S1130070A036B107D9F720E0A0E6B0E001C01D9298
S1130080AE36B207E1F70E944C000C94EF020C94D8
S11300900000089508950895CF93DF93CDB7DEB798
S11300A061970FB6F894DEBF0FBECDBF19821C82D4
S11300B080E48F8381E08B8782E088871E821B82A5
S11300C0198689E490E09D878C878AE490E09F8775
S11300D08E878BE490E0998B888B1A8683E08A83E1
S11300E0CE0101960E94F800BE016F5F7F4F80E64B
S11300F090E00E943C02BE016F5F7F4F80E690E07B
S11301000E942D02F1CF1F920F920FB60F9211246D
S11301102F933F934F935F936F937F938F939F930B
S1130120AF93BF93EF93FF93E0916200F09163006C
S11301300995FF91EF91BF91AF919F918F917F911D
S11301406F915F914F913F912F910F900FBE0F9040
S11301501F9018951F920F920FB60F9211242F9390
S11301603F934F935F936F937F938F939F93AF933B
S1130170BF93EF93FF93E0916400F09165000995BC
S1130180FF91EF91BF91AF919F918F917F916F916B
S11301905F914F913F912F910F900FBE0F901F9041
S11301A018951F920F920FB60F9211242F933F931D
S11301B04F935F936F937F938F939F93AF93BF936B
S11301C0EF93FF93E0916600F09167000995FF912A
S11301D0EF91BF91AF919F918F917F916F915F91BB
S11301E04F913F912F910F900FBE0F901F90189534
S11301F0CF92DF92EF92FF921F93CF93DF93EC01A4
S113020088818823B1F08FB780688FBF89819EEF82
S1130210980F923020F48AB180688AB907C081307F
S113022011F0833019F48AB180648AB98AB180628A
S11302308AB980B5806880BD2B8190E4299F9001A4
S113024011248F7B822B80BD8B8181118FC02BB1B8
S11302509D81892F90E0880F991F922F9D7F892B74
S11302608BB920B5988530E1939FC0011124922F5A
S11302709F7C892B80BD298530E0220F331F220FFC
S1130280331F220F331F877F822B80BD8D81811105
S113029033C02E8180E1289F90011124032E000C8D
S11302A0440B550B0F2EC12CF2E1DF2EFAE7EF2E93
S11302B0F12CF02DC701B6010E94CD02215029B9BD
S11302C010B5812F8F7780BD2E8190E1299F9001F9
S11302D01124032E000C440B550BC701B6010E94D8
S11302E0CD02DA01C9010197A109B1091077892F5B
S11302F08F70182B10BD3AC08130C1F52E8130E0CB
S1130300220F331F220F331F220F331F032E000C23
S1130310440B550B0F2EC12CF2E1DF2EFAE7EF2E22
S1130320F12CF02DC701B6010E94CD02215029B94C
S113033010B5812F8F7780BD2E8130E0220F331FBF
S1130340220F331F220F331F032E000C440B550BB7
S1130350C701B6010E94CD02DA01C9010197A109C2
S1130360B1091077892F8F70182B10BD8B818130C4
S1130370A1F510B58A851E7F182B10BD2E8130E0A3
S1130380220F331F032E000C440B550B0F2EC12CD0
S1130390F2E1DF2EFAE7EF2EF12CF02DC701B601C2
S11303A00E94CD02215029B9812F8F7780BD2E81E3
S11303B030E0220F331F032E000C440B550BC701F2
S11303C0B6010E94CD02DA01C9010197A109B10960
S11303D01077892F8F70182B10BD8F81873039F4D7
S11303E080B5866880BD8AB184608AB90DC08730C3
S11303F059F020B5206820BD9F81892F90E0880F97
S1130400991F297F822B80BD8BB19A818E7F892B86
S11304108BB92AB19981892F90E0880F991F880F91
S1130420991F880F991F922F977E892B8AB98B85E4
S11304309C85E8E6F0E0918380838D859E85938397
S113044082838F85988995838483DF91CF911F91CF
S1130450FF90EF90DF90CF900895FB012781273024
S113046039F43AB1FC0121813E7F2170232B2AB952
S1130470FC0180818CB90895FC01DB018C91811110
S113048002C05F9BFECFDB0117968C91873039F455
S1130490118210828AB186958170108281832081B5
S11304A03181222731708CB1282B31832083089528
S11304B01F920F920FB60F9211242F933F934F93D5
S11304C05F936F937F938F939F93AF93BF93EF93B8
S11304D0FF93E0916800F09169000995FF91EF9115
S11304E0BF91AF919F918F917F916F915F914F9148
S11304F03F912F910F900FBE0F901F9018951F9250
S11305000F920FB60F9211242F933F934F935F9343
S11305106F937F938F939F93AF93BF93EF93FF93C7
S1130520E0916A00F0916B000995FF91EF91BF9102
S1130530AF919F918F917F916F915F914F913F9177
S11305402F910F900FBE0F901F9018951F920F922E
S11305500FB60F9211242F933F934F935F936F9392
S11305607F938F939F93AF93BF93EF93FF93E09108
S11305706C00F0916D000995FF91EF91BF91AF91DF
S11305809F918F917F916F915F914F913F912F91A7
S11305900F900FBE0F901F901895A1E21A2EAA1B60
S11305A0BB1BFD010DC0AA1FBB1FEE1FFF1FA2171F
S11305B0B307E407F50720F0A21BB30BE40BF50B1C
S11305C0661F771F881F991F1A9469F760957095A5
S11305D0809590959B01AC01BD01CF010895F894DD
S10505E0FFCF47
S9030000FC
