:020000040800F2
:1000000000500020310E0008810E0008810E00080B
:10001000810E0008810E0008810E0008000000001B
:10002000000000000000000000000000810E000839
:10003000810E000800000000810E0008810E0008FB
:10004000810E0008810E0008810E0008810E000854
:10005000810E0008810E0008E50E0008090F000857
:100060002D0F0008510F0008750F0008810E0008C1
:10007000810E0008810E0008810E0008810E000824
:10008000810E0008810E0008D10E0008810E0008C4
:10009000810E0008810E0008810E0008990F0008EB
:1000A000810E0008810E0008810E0008810E0008F4
:1000B000810E0008810E0008810E0008B9140008A6
:1000C000810E0008810E0008810E0008F915000855
:1000D00055160008051B0008191B00082D1B0008F9
:1000E00041100008810E000800000000810E000889
:1000F000810E0008810E0008810E0008810E0008A4
:10010000810E0008810E0008810E0008810E000893
:10011000810E0008810E0008810E0008810E000883
:10012000810E0008810E0008810E0008810E000873
:1001300010B5054C237833B9044B13B10448AFF321
:1001400000800123237010BD00000020000000008B
:10015000881B000808B5034B1BB103490348AFF3E4
:10016000008008BD0000000004000020881B00087B
:1001700081F0004102E000BF83F0004330B54FEA58
:1001800041044FEA430594EA050F08BF90EA020FC5
:100190001FBF54EA000C55EA020C7FEA645C7FEA58
:1001A000655C00F0E2804FEA5454D4EB5555B8BF7B
:1001B0006D420CDD2C4480EA020281EA030382EAEC
:1001C000000083EA010180EA020281EA0303362D7E
:1001D00088BF30BD11F0004F4FEA01314FF4801C51
:1001E0004CEA113102D0404261EB410113F0004F63
:1001F0004FEA03334CEA133302D0524263EB43031A
:1002000094EA050F00F0A780A4F10104D5F1200EB7
:100210000DDB02FA0EFC22FA05F2801841F1000112
:1002200003FA0EF2801843FA05F359410EE0A5F1E6
:1002300020050EF1200E012A03FA0EFC28BF4CF017
:10024000020C43FA05F3C01851EBE37101F00045CD
:1002500007D54FF0000EDCF1000C7EEB00006EEBDA
:100260000101B1F5801F1BD3B1F5001F0CD3490864
:100270005FEA30004FEA3C0C04F101044FEA4452BB
:1002800012F5800F80F09A80BCF1004F08BF5FEA42
:10029000500C50F1000041EB045141EA050130BD22
:1002A0005FEA4C0C404141EB0101013C28BFB1F534
:1002B000801FE9D291F0000F04BF01460020B1FA7F
:1002C00081F308BF2033A3F10B03B3F120020CDA52
:1002D0000C3208DD02F1140CC2F10C0201FA0CF030
:1002E00021FA02F10CE002F11402D8BFC2F1200C95
:1002F00001FA02F120FA0CFCDCBF41EA0C0190404B
:10030000E41AA2BF01EB0451294330BD6FEA040493
:100310001F3C1CDA0C340EDC04F11404C4F120027E
:1003200020FA04F001FA02F340EA030021FA04F390
:1003300045EA030130BDC4F10C04C4F1200220FAE7
:1003400002F001FA04F340EA0300294630BD21FA25
:1003500004F0294630BD94F0000F83F4801306BFEB
:1003600081F480110134013D4EE77FEA645C18BFDF
:100370007FEA655C29D094EA050F08BF90EA020F76
:1003800005D054EA000C04BF1946104630BD91EA6E
:10039000030F1EBF0021002030BD5FEA545C05D171
:1003A0004000494128BF41F0004130BD14F58004B0
:1003B0003CBF01F5801130BD01F0004545F0FE4124
:1003C00041F470014FF0000030BD7FEA645C1ABF59
:1003D000194610467FEA655C1CBF0B46024650EA90
:1003E000013406BF52EA033591EA030F41F40021BC
:1003F00030BD00BF90F0000F04BF0021704730B542
:100400004FF4806404F132044FF000054FF0000116
:1004100050E700BF90F0000F04BF0021704730B5D7
:100420004FF4806404F1320410F0004548BF4042AC
:100430004FF000013EE700BF42004FEAE2014FEA01
:1004400031014FEA02701FBF12F07F4393F07F4FDC
:1004500081F06051704732F07F4208BF704793F0DF
:100460007F4F04BF41F40021704730B54FF46074F2
:1004700001F0004521F000411CE700BF50EA0102F5
:1004800008BF704730B54FF000050AE050EA01029E
:1004900008BF704730B511F0004502D5404261EB0E
:1004A00041014FF4806404F132045FEA915C3FF44F
:1004B000D8AE4FF003025FEADC0C18BF03325FEAEC
:1004C000DC0C18BF033202EBDC02C2F1200300FA9D
:1004D00003FC20FA02F001FA03FE40EA0E0021FAC2
:1004E00002F11444BDE600BF70B54FF0FF0C4CF4B0
:1004F000E06C1CEA11541DBF1CEA135594EA0C0F62
:1005000095EA0C0F00F0DEF82C4481EA030621EA9C
:100510004C5123EA4C5350EA013518BF52EA0335D7
:1005200041F4801143F4801338D0A0FB02CE4FF089
:100530000005E1FB02E506F00042E0FB03E54FF0B9
:100540000006E1FB03569CF0000F18BF4EF0010EB1
:10055000A4F1FF04B6F5007F64F5407404D25FEAAD
:100560004E0E6D4146EB060642EAC62141EA555160
:100570004FEAC52040EA5E504FEACE2EB4F1FD0CA2
:1005800088BFBCF5E06F1ED8BEF1004F08BF5FEA20
:10059000500E50F1000041EB045170BD06F00046D2
:1005A00046EA010140EA020081EA0301B4EB5C047F
:1005B000C2BFD4EB0C0541EA045170BD41F4801177
:1005C0004FF0000E013C00F3AB8014F1360FDEBF9C
:1005D000002001F0004170BDC4F10004203C35DA78
:1005E0000C341BDC04F11404C4F1200500FA05F3FB
:1005F00020FA04F001FA05F240EA020001F000429C
:1006000021F0004110EBD37021FA04F642EB060111
:100610005EEA430E08BF20EAD37070BDC4F10C043B
:10062000C4F1200500FA04F320FA05F001FA04F2FF
:1006300040EA020001F0004110EBD37041F10001EB
:100640005EEA430E08BF20EAD37070BDC4F12005F6
:1006500000FA05F24EEA020E20FA04F301FA05F25E
:1006600043EA020321FA04F001F0004121FA04F206
:1006700020EA020000EBD3705EEA430E08BF20EAD6
:10068000D37070BD94F0000F0FD101F00046400010
:1006900041EB010111F4801F08BF013CF7D041EA92
:1006A000060195F0000F18BF704703F00046520096
:1006B00043EB030313F4801F08BF013DF7D043EA67
:1006C0000603704794EA0C0F0CEA135518BF95EA1D
:1006D0000C0F0CD050EA410618BF52EA4306D1D1A4
:1006E00081EA030101F000414FF0000070BD50EAC3
:1006F000410606BF1046194652EA430619D094EA4D
:100700000C0F02D150EA013613D195EA0C0F05D136
:1007100052EA03361CBF104619460AD181EA03018A
:1007200001F0004141F0FE4141F470014FF0000042
:1007300070BD41F0FE4141F4780170BD70B54FF0DD
:10074000FF0C4CF4E06C1CEA11541DBF1CEA13555D
:1007500094EA0C0F95EA0C0F00F0A7F8A4EB05043F
:1007600081EA030E52EA03354FEA013100F0888036
:100770004FEA03334FF0805545EA131343EA1263FF
:100780004FEA022245EA111545EA10654FEA0026B4
:100790000EF000419D4208BF964244F1FD0404F56D
:1007A000407402D25B084FEA3202B61A65EB0305C9
:1007B0005B084FEA32024FF480104FF4002CB6EB86
:1007C000020E75EB030E22BFB61A754640EA0C0006
:1007D0005B084FEA3202B6EB020E75EB030E22BF46
:1007E000B61A754640EA5C005B084FEA3202B6EB87
:1007F000020E75EB030E22BFB61A754640EA9C0046
:100800005B084FEA3202B6EB020E75EB030E22BF15
:10081000B61A754640EADC0055EA060E18D04FEAD3
:10082000051545EA16754FEA06164FEAC30343EA73
:1008300052734FEAC2025FEA1C1CC0D111F4801F40
:100840000BD141EA00014FF000004FF0004CB6E739
:1008500011F4801F04BF01430020B4F1FD0C88BFD8
:10086000BCF5E06F3FF6AFAEB5EB030C04BFB6EBE3
:10087000020C5FEA500C50F1000041EB045170BDD6
:100880000EF0004E4EEA113114EB5C04C2BFD4EB03
:100890000C0541EA045170BD41F480114FF0000E87
:1008A000013C90E645EA060E8DE60CEA135594EA03
:1008B0000C0F08BF95EA0C0F3FF43BAF94EA0C0F06
:1008C0000AD150EA01347FF434AF95EA0C0F7FF47B
:1008D00025AF104619462CE795EA0C0F06D152EACF
:1008E00003353FF4FDAE1046194622E750EA4106B3
:1008F00018BF52EA43067FF4C5AE50EA41047FF4C4
:100900000DAF52EA43057FF4EBAE12E74A0011D275
:1009100012F5001211D20DD56FF47873B3EB625259
:100920000ED44FEAC12343F0004343EA505323FA65
:1009300002F070474FF00000704750EA013002D1DA
:100940004FF0FF3070474FF0000070474FEA410210
:10095000B2F1E04324BFB3F5001CDCF1FE5C0DD91D
:1009600001F0004C4FEAC0024CEA5070B2F1004F67
:1009700040EB830008BF20F00100704711F0804F6A
:1009800021D113F13872BCBF01F00040704741F42F
:1009900080114FEA5252C2F11802C2F1200C10FA33
:1009A0000CF320FA02F018BF40F001004FEAC12317
:1009B0004FEAD32303FA0CFC40EA0C0023FA02F3BB
:1009C0004FEA4303CCE77FEA625307D150EA013391
:1009D0001EBF4FF0FE4040F44000704701F0004061
:1009E00040F0FE4040F40000704700BF4FF0FF3C75
:1009F00006E000BF4FF0010C02E000BF4FF0010C19
:100A00004DF804CD4FEA40024FEA41037FEA226CE1
:100A100018BF7FEA236C11D001B052EA530C18BF03
:100A200090EA010F58BFB2EB030088BFC81738BF68
:100A30006FEAE17018BF40F0010070477FEA226C56
:100A400002D15FEA402C05D17FEA236CE4D15FEA52
:100A5000412CE1D05DF8040B704700BF8446084686
:100A60006146FFE70FB5FFF7C9FF002848BF10F147
:100A7000000F0FBD4DF808EDFFF7F4FF0CBF01208C
:100A800000205DF808FB00BF4DF808EDFFF7EAFF16
:100A900034BF012000205DF808FB00BF4DF808EDD1
:100AA000FFF7E0FF94BF012000205DF808FB00BFC6
:100AB0004DF808EDFFF7D2FF94BF012000205DF84C
:100AC00008FB00BF4DF808EDFFF7C8FF34BF012059
:100AD00000205DF808FB00BF80B582B000AF4FF486
:100AE0008053BB800423BB710123FB713B1D19465E
:100AF000314800F0BFFB4FF40053BB800423BB71AF
:100B00000123FB713B1D19462B4800F0B3FB4FF44A
:100B10008043BB800423BB710123FB713B1D19463D
:100B2000254800F0A7FB4FF40043BB800423BB71B2
:100B30000123FB713B1D19461F4800F09BFB4FF43E
:100B40008073BB800423BB710123FB713B1D1946DD
:100B50001A4800F08FFB4FF40063BB800423BB7185
:100B60000123FB713B1D1946134800F083FB4FF432
:100B70000043BB800423BB710123FB713B1D19465D
:100B80000E4800F077FB022000F07CF9022000F014
:100B900017F8282000F014F80C2000F011F80120BC
:100BA00000F00EF80F2000F00BF8022000F06AF9B8
:100BB00000BF0837BD4680BD000C01400008014061
:100BC00080B582B000AF0346FB71FB791B029BB27C
:100BD00023F47F6323F00F039BB21946244800F0EF
:100BE000DFFB00224FF48071224800F0C2FB00229C
:100BF0004FF400611E4800F0BCFB01224FF400419D
:100C00001C4800F0B6FB0A2000F03CF900224FF42B
:100C10000041184800F0ADFB022000F033F9FB79E9
:100C20001B039BB21946124800F0BAFB00224FF496
:100C30008071104800F09DFB00224FF400610C48C9
:100C400000F097FB01224FF400410A4800F091FBAD
:100C50000A2000F017F900224FF40041054800F087
:100C600088FB022000F00EF900BF0837BD4680BDAA
:100C7000000C01400008014080B586B000AF00F0D4
:100C8000A7FC03461846FFF7B5FB19A3D3E90023D9
:100C9000FFF72AFC02460B46104619464FF00002A9
:100CA000154BFFF74BFD02460B4610461946FFF762
:100CB0002DFE0346FB820023FB800123BB8007231C
:100CC0003B813B1D012219460C4800F0F1FC01223A
:100CD00042F21071094800F04BFEFB8A19460748A2
:100CE00000F07AFE00BF1837BD4680BDAFF300802C
:100CF0007B14AE47E17A943F00002040000400409E
:100D000080B500AF00F076FE074B04229A70064BC8
:100D10000122DA70044B20221A800349034800F0B4
:100D2000A9FA00BF80BD00BF1C000020000C0140DC
:100D300080B400AF194B9B69184A43F004039361D8
:100D4000164B9B69154A43F008039361134B9B694B
:100D5000124A43F010039361104B9B690F4A43F012
:100D6000010393610D4BDB690C4A43F00103D3612E
:100D70000A4BDB69094A43F00203D361074BDB6985
:100D8000064A43F00403D361044B9B69034A43F4CE
:100D90000073936100BFBD4680BC704700100240E5
:100DA00080B500AFFFF7ACFFFFF766FF00BF80BD67
:100DB00080B582B000AFFFF7BBFFFFF7F1FFFFF791
:100DC0008BFE0423BB704FF400533B800123FB7068
:100DD0003B461946154800F04DFA01224FF40051E8
:100DE000124800F0C6FA42F2107000F04BF84FF0D3
:100DF00000037B6000F038FE78604FF000017868F7
:100E0000FFF738FE0346002BF4D14FF47A7000F060
:100E100039F84FF40051054800F0D0FA4FF47A70D9
:100E200000F030F84FF000037B60E3E70010014072
:100E30000D488546AFF300800C480D490D4A00234C
:100E400002E0D458C4500433C4188C42F9D30A4A7F
:100E50000A4C002301E013600432A242FBD300F0ED
:100E60006FFEFFF7A5FFFEE7005000200000002006
:100E700000000020B01B000800000020AC00002093
:100E8000FEE7000080B483B000AF78600F4B41F6FE
:100E90003F729A627B685A1E0C4BDA620B4B1B68DE
:100EA0000A4A43F00103136000BF084B1B6903F0BB
:100EB0000103002BF9D0054B00221A61034B0022DD
:100EC0001A6000BF0C37BD4680BC7047000400406C
:100ED00080B500AF024B1B68984700BF80BD00BFC4
:100EE0002000002080B500AF054B5B69044A43F049
:100EF00001035361034B1B68984700BF80BD00BFCF
:100F0000000401402400002080B500AF054B5B6960
:100F1000044A43F002035361034B5B68984700BFE8
:100F200080BD00BF000401402400002080B500AF58
:100F3000054B5B69044A43F004035361034B9B6810
:100F4000984700BF80BD00BF00040140240000207E
:100F500080B500AF054B5B69044A43F00803536159
:100F6000034BDB68984700BF80BD00BF0004014011
:100F70002400002080B500AF054B5B69044A43F0B4
:100F800010035361034B1B69984700BF80BD00BF2E
:100F9000000401402400002080B500AF264B5B69AF
:100FA00003F02003002B08D0234B5B69224A43F057
:100FB00020035361214B5B6998471F4B5B6903F02A
:100FC0004003002B08D01C4B5B691B4A43F04003D5
:100FD00053611A4B9B699847174B5B6903F0800379
:100FE000002B08D0144B5B69134A43F08003536114
:100FF000124BDB699847104B5B6903F48073002B3D
:1010000008D00D4B5B690C4A43F4807353610B4B62
:101010001B6A9847084B5B6903F40073002B08D0E8
:10102000054B5B69044A43F400735361034B5B6AED
:10103000984700BF80BD00BF00040140240000208D
:1010400080B500AF2D4B5B6903F48063002B08D0A3
:101050002A4B5B69294A43F480635361284B9B6A9E
:101060009847264B5B6903F40063002B08D0234BA1
:101070005B69224A43F400635361214BDB6A984762
:101080001E4B5B6903F48053002B08D01B4B5B693C
:101090001A4A43F480535361194B1B6B9847174B03
:1010A0005B6903F40053002B08D0144B5B69134AAF
:1010B00043F400535361124B5B6B98470F4B5B69D2
:1010C00003F48043002B08D00C4B5B690B4A43F4BC
:1010D000804353610A4B9B6B9847084B5B6903F451
:1010E0000043002B08D0054B5B69044A43F40043DE
:1010F0005361034BDB6B984700BF80BD0004014088
:101100002400002080B483B000AF0346FB80FB883E
:10111000B3F5004F00F0A580B3F5004F00F3A380B6
:10112000B3F5804F00F09B80B3F5804F00F39B80B8
:10113000B3F5005F00F09180B3F5005F00F393809A
:10114000B3F5805F00F08780B3F5805F00F38B809C
:10115000B3F5006F7DD0B3F5006F00F38480B3F575
:10116000806F74D0B3F5806F7DDCB3F5007F6CD0F9
:10117000B3F5007F77DCB3F5807F64D0B3F5807F73
:1011800071DC802B5DD0802B6DDC202B48DC002BAC
:1011900069DD013B1F2B66D801A252F823F000BF86
:1011A000271200082B120008671200082F120008EF
:1011B000671200086712000867120008331200085F
:1011C000671200086712000867120008671200081B
:1011D000671200086712000867120008371200083B
:1011E00067120008671200086712000867120008FB
:1011F00067120008671200086712000867120008EB
:1012000067120008671200086712000867120008DA
:101210006712000867120008671200083B120008F6
:10122000402B0CD01FE000231EE004231CE0082309
:101230001AE00C2318E0102316E0142314E01823FE
:1012400012E01C2310E000230EE004230CE008232E
:101250000AE00C2308E0102306E0142304E018231E
:1012600002E01C2300E0002318460C37BD4680BC7A
:10127000704700BF90B585B000AF7860396000233B
:10128000BB600023FB733B681B88FF2B01D87B6886
:1012900001E07B680433BB603B681B881846FFF79E
:1012A00031FF03461A460F239340DA43BB681B689D
:1012B0001A40BB681A603B689B78072B0BD03B68D1
:1012C0009B78062B07D03B689B78052B03D03B68A7
:1012D0009B78042B0ED13B689B78043B9B005AB251
:1012E0003B68DB785BB213435BB2DBB203F00F0306
:1012F000FB732CE03B689B78012B03D03B689B7809
:10130000002B07D13B689B789B00DBB203F00F03F7
:10131000FB731CE03B689B78082B02D10423FB7312
:1013200015E00823FB733B689B78022B07D17B6891
:10133000DB683A6812881A437B68DA6007E07B68EA
:10134000DB683A681288D2431A407B68DA60FC7B1B
:101350003B681B881846FFF7D5FE034604FA03F2E4
:10136000BB681B681A43BB681A6000BF1437BD46D0
:1013700090BD80B483B000AF78600B467B8013468D
:101380007B707B78002B03D07A887B681A6102E03F
:101390007A887B685A6100BF0C37BD4680BC7047B5
:1013A00080B483B000AF78600B467B807A887B681E
:1013B000DA6000BF0C37BD4680BC704780B483B094
:1013C00000AF78600B467B807B68DA687B885A4088
:1013D0007B68DA6000BF0C37BD4680BC70470000F8
:1013E00080B584B000AF78600B46FB707B68304AF4
:1013F000934214BF01230023DBB2FB73FB78032B62
:1014000051D801A252F823F0191400083D14000825
:1014100055140008791400087B689B6903F00403E5
:10142000002B3BD0FA7B23491346DB009B1A9B0021
:101430000B4418331B68002098472FE0FA7B1D49A6
:101440001346DB009B1A9B000B4418331B680120DA
:10145000984728E07B689B6903F00403002B1FD0AA
:10146000FA7B14491346DB009B1A9B000B4418338C
:101470001B680220984713E07B689B6903F0040314
:10148000002B0FD1FA7B0B491346DB009B1A9B0004
:101490000B4418331B680320984703E000BF02E0A9
:1014A00000BF00E000BF00BF1037BD4680BD00BFD9
:1014B000005400406000002080B584B000AF0023DD
:1014C0003B60364B5B6903F01003FB60334B5B689A
:1014D00003F40073BB60314B5B6803F480637B6093
:1014E000BB68002B0AD0FB68002B07D02B4B2B4A84
:1014F0001B68136000212948FFF772FF274B5B69C7
:1015000003F00203FB60BB68002B12D0FB68002BCA
:101510000FD0224B9B6903F00103002B09D11F4B15
:101520005B693B601D4B9B693B6001211B48FFF7DA
:1015300057FF1A4B5B6903F08003FB60BB68002B0D
:101540000FD07B68002B0CD0FB68002B09D0134B0D
:101550009B6903F00103002B03D102210F48FFF721
:101560003FFF0E4B5B6903F04003FB60BB68002B41
:101570000FD07B68002B0CD0FB68002B09D0074BE9
:101580009B6903F00103002B03D103210348FFF7FC
:1015900027FF00BF1037BD4680BD00BF005400408C
:1015A00080B400AF074B5B689B08002B02D0012B77
:1015B00002D003E0044B01E0044BFFE71846BD46B0
:1015C00080BC70470010024000127A000024F40032
:1015D00080B500AFFFF7E4FF0246054B5B681B0ACE
:1015E00003F011030349CB5C22FA03F3184680BDD4
:1015F00000100240A01B000880B582B000AF134B62
:101600009B685B0803F00103DAB23B7962F30003E5
:101610003B710E4B9B6803F00103DAB23B7962F336
:1016200041033B71094B9B681B0903F00103DAB2CC
:101630003B7962F382033B71054B1B689B693879E8
:10164000984700BF0837BD4680BD00BF003001404D
:101650009800002080B582B000AF134B9B685B08F8
:1016600003F00103DAB23B7962F300033B710E4BE6
:101670009B6803F00103DAB23B7962F341033B71EB
:10168000094B9B681B0903F00103DAB23B7962F353
:1016900082033B71054B5B689B693879984700BFB3
:1016A0000837BD4680BD00BF0038004098000020CC
:1016B00080B586B000AFF860B9601346FB71FB6877
:1016C00081221A60BB681B88022B00F0D380FB6864
:1016D000B3F1804F31D1A04BDB699F4A43F0010346
:1016E000D3610623BB750123FB75FB79032B17D848
:1016F00001A252F823F000BF091700080F170008D5
:10170000151700081B1700080123BB8208E00223FD
:10171000BB8205E00423BB8202E00823BB8200BF3A
:1017200007F1140319468D48FFF7A4FD8C4B1B6885
:101730008B4A43F08053136072E0FB68894A9342FE
:101740003DD10623BB750123FB75FB79032B2FD8F5
:1017500001A252F823F000BF691700087B170008A8
:101760008D1700089F1700084023BB8207F1140360
:1017700019467A48FFF77EFD1AE08023BB8207F105
:10178000140319467548FFF775FD11E00123BB826C
:1017900007F1140319467448FFF76CFD08E00223B3
:1017A000BB8207F1140319466F48FFF763FD00BFC2
:1017B0006B4B1B686A4A43F08053136030E0FB6850
:1017C0006A4A93422CD10623BB750123FB75FB7932
:1017D000032B19D801A252F823F000BFED1700081F
:1017E000F3170008F9170008011800084023BB820E
:1017F0000AE08023BB8207E04FF48073BB8203E0E2
:101800004FF40073BB8200BF07F11403194656481A
:10181000FFF730FD524B1B68514A43F08043136081
:10182000FB79032B50D801A252F823F03D18000891
:101830004B1800085918000867180008FB689B69D6
:1018400043F07802FB689A613EE0FB689B6943F4D1
:10185000F042FB689A6137E0FB68DB6943F078028D
:10186000FB68DA6130E0FB68DB6943F4F042FB6857
:10187000DA6129E0FB79032B26D801A252F823F084
:10188000911800089F180008AD180008BB18000840
:10189000FB689B6923F07802FB689A6114E0FB689F
:1018A0009B6923F4F042FB689A610DE0FB68DB69F9
:1018B00023F07802FB68DA6106E0FB68DB6923F459
:1018C000F042FB68DA6100BFFB79032B36D801A236
:1018D00052F823F0E5180008FB1800081119000859
:1018E00027190008FB681B6A43F00102FB681A62B3
:1018F000FB6842F210725A6320E0FB681B6A43F0F7
:101900001002FB681A62FB6842F210729A6315E0DB
:10191000FB681B6A43F48072FB681A62FB6842F240
:101920001072DA630AE0FB681B6A43F48052FB68BA
:101930001A62FB6842F210721A6400BFBB689B888F
:101940001A46FB689A62FB6844F62062DA6200BFBE
:101950001837BD4680BD00BF00100240000801409E
:1019600080E100E000040040000C0140000800405D
:1019700080B483B000AF78600B467B8013467B70E9
:101980007B78032B1AD801A252F823F09D19000886
:10199000A5190008AD190008B51900087A887B68F8
:1019A0005A630BE07A887B689A6307E07A887B68E1
:1019B000DA6303E07A887B681A6400BF054B5B69D1
:1019C000044A43F00103536100BF0C37BD4680BC9D
:1019D000704700BF0004004080B483B000AF78605F
:1019E0000B467B807A887B68DA6200BF0C37BD4685
:1019F00080BC704780B582B000AF0123BB7140232B
:101A0000BB803B1D19461648FFF734FC154B9B6AFB
:101A1000144A43F007039362124BDB6A114A6FEAE0
:101A200013436FEA0343D3620E4B9B690D4A43F0A5
:101A3000310393610B4B1B680A4A23F44073136014
:101A4000084B1B68074A43F080031360054B1B6A71
:101A5000044A43F00103136200BF0837BD4680BD4E
:101A6000000C01400008004080B582B000AF4FF08C
:101A700000037B60224B1B68214A43F00103136083
:101A800000BF1F4B1B6903F00203002BF9D01C4B56
:101A900000221A611A4B00225A62194B1B6A184A1B
:101AA00043F00203136200BF154B1B6903F00203EE
:101AB000002BF9D0124B00221A61114B5B6B1846B8
:101AC000FEF798FC0CA3D3E90023FEF70DFD0246B8
:101AD0000B4610461946FEF739FF03467B60084B5C
:101AE0001B68074A23F0010313607B681846083718
:101AF000BD4680BDAFF300808DEDB5A0F7C6B03E0A
:101B00000008004080B500AF024B1B68DB689847B7
:101B100000BF80BDA000002080B500AF024B5B6815
:101B2000DB68984700BF80BDA000002080B500AFF3
:101B3000024B9B68DB68984700BF80BDA000002077
:101B400070B500260C4D0D4C641BA410A64209D1A3
:101B500000F01AF800260A4D0A4C641BA410A64295
:101B600005D170BD55F8043B98470136EEE755F8AE
:101B7000043B98470136F2E7A81B0008A81B0008A1
:101B8000A81B0008AC1B0008F8B500BFF8BC08BCD7
:101B90009E467047F8B500BFF8BC08BC9E4670472B
:081BA000000000000102030433
:041BA80055010008DB
:041BAC0031010008FB
:0400000508000E31B0
:00000001FF
