:020000040800F2
:1000000000280020ED0100083D0200083D02000824
:100010003D0200083D0200083D020008000000000B
:100020000000000000000000000000003D02000889
:100030003D020008000000003D0200083D020008EB
:100040003D0200083D0200083D0200083D02000894
:100050003D0200083D020008410200086502000858
:1000600089020008AD020008D10200083D02000824
:100070003D0200083D0200083D0200083D02000864
:100080003D0200083D0200083D0200083D02000854
:100090003D0200083D0200083D020008F50200088C
:1000A0003D0200083D0200083D0200083D02000834
:1000B0003D0200083D0200083D0200083905000825
:1000C0003D0200083D0200083D020008210600082C
:1000D0007D060008D9060008ED06000801070008A3
:1000E0009D0300083D020008000000003D020008DA
:1000F0003D0200083D0200083D0200083D020008E4
:100100003D0200083D0200083D0200083D020008D3
:100110003D0200083D0200083D0200083D020008C3
:100120003D0200083D0200083D0200083D020008B3
:1001300010B5054C237833B9044B13B10448AFF321
:1001400000800123237010BD00000020000000008B
:100150005C07000808B5034B1BB103490348AFF324
:10016000008008BD00000000040000205C070008BB
:1001700080B400AF194B9B69184A43F004039361A4
:10018000164B9B69154A43F008039361134B9B6917
:10019000124A43F010039361104B9B690F4A43F0DE
:1001A000010393610D4BDB690C4A43F00103D361FA
:1001B0000A4BDB69094A43F00203D361074BDB6951
:1001C000064A43F00403D361044B9B69034A43F49A
:1001D0000073936100BFBD4680BC704700100240B1
:1001E00080B500AFFFF7C4FFFEE700000D4885466D
:1001F000AFF300800C480D490D4A002302E0D458AB
:10020000C4500433C4188C42F9D30A4A0A4C002360
:1002100001E013600432A242FBD300F07BFAFFF747
:10022000DFFFFEE700280020000000200000002083
:100230007C07000800000020A4000020FEE700006A
:1002400080B500AF054B5B69044A43F0010353617D
:10025000034B1B68984700BF80BD00BF00040140EE
:100260006800002080B500AF054B5B69044A43F08D
:1002700002035361034B5B68984700BF80BD00BF1A
:10028000000401406800002080B500AF054B5B69A9
:10029000044A43F004035361034B9B68984700BF33
:1002A00080BD00BF000401406800002080B500AFA1
:1002B000054B5B69044A43F008035361034BDB6859
:1002C000984700BF80BD00BF0004014068000020C7
:1002D00080B500AF054B5B69044A43F010035361DE
:1002E000034B1B69984700BF80BD00BF000401405D
:1002F0006800002080B500AF264B5B6903F0200347
:10030000002B08D0234B5B69224A43F02003536142
:10031000214B5B6998471F4B5B6903F04003002B3F
:1003200008D01C4B5B691B4A43F0400353611A4BD6
:100330009B699847174B5B6903F08003002B08D03B
:10034000144B5B69134A43F080035361124BDB6922
:100350009847104B5B6903F48073002B08D00D4B5A
:100360005B690C4A43F4807353610B4B1B6A9847DB
:10037000084B5B6903F40073002B08D0054B5B69E5
:10038000044A43F400735361034B5B6A984700BF10
:1003900080BD00BF000401406800002080B500AFB0
:1003A0002D4B5B6903F48063002B08D02A4B5B69FB
:1003B000294A43F480635361284B9B6A9847264B34
:1003C0005B6903F40063002B08D0234B5B69224A6E
:1003D00043F400635361214BDB6A98471E4B5B6912
:1003E00003F48053002B08D01B4B5B691A4A43F47B
:1003F00080535361194B1B6B9847174B5B6903F490
:100400000053002B08D0144B5B69134A43F400538C
:100410005361124B5B6B98470F4B5B6903F480434E
:10042000002B08D00C4B5B690B4A43F480435361AB
:100430000A4B9B6B9847084B5B6903F40043002B06
:1004400008D0054B5B69044A43F400435361034BF6
:10045000DB6B984700BF80BD0004014068000020AE
:1004600080B584B000AF78600B46FB707B68304A83
:10047000934214BF01230023DBB2FB73FB78032BF1
:1004800051D801A252F823F099040008BD040008D5
:10049000D5040008F90400087B689B6903F0040395
:1004A000002B3BD0FA7B23491346DB009B1A9B00B1
:1004B0000B4418331B68002098472FE0FA7B1D4936
:1004C0001346DB009B1A9B000B4418331B6801206A
:1004D000984728E07B689B6903F00403002B1FD03A
:1004E000FA7B14491346DB009B1A9B000B4418331C
:1004F0001B680220984713E07B689B6903F00403A4
:10050000002B0FD1FA7B0B491346DB009B1A9B0093
:100510000B4418331B680320984703E000BF02E038
:1005200000BF00E000BF00BF1037BD4680BD00BF68
:10053000005400401C00002080B584B000AF0023B0
:100540003B60364B5B6903F01003FB60334B5B6829
:1005500003F40073BB60314B5B6803F480637B6022
:10056000BB68002B0AD0FB68002B07D02B4B2B4A13
:100570001B68136000212948FFF772FF274B5B6956
:1005800003F00203FB60BB68002B12D0FB68002B5A
:100590000FD0224B9B6903F00103002B09D11F4BA5
:1005A0005B693B601D4B9B693B6001211B48FFF76A
:1005B00057FF1A4B5B6903F08003FB60BB68002B9D
:1005C0000FD07B68002B0CD0FB68002B09D0134B9D
:1005D0009B6903F00103002B03D102210F48FFF7B1
:1005E0003FFF0E4B5B6903F04003FB60BB68002BD1
:1005F0000FD07B68002B0CD0FB68002B09D0074B79
:100600009B6903F00103002B03D103210348FFF78B
:1006100027FF00BF1037BD4680BD00BF005400401B
:1006200080B582B000AF134B9B685B0803F00103F9
:10063000DAB23B7962F300033B710E4B9B6803F027
:100640000103DAB23B7962F341033B71094B9B68CA
:100650001B0903F00103DAB23B7962F382033B71B9
:10066000054B1B689B693879984700BF0837BD4622
:1006700080BD00BF003001405400002080B582B032
:1006800000AF134B9B685B0803F00103DAB23B79C0
:1006900062F300033B710E4B9B6803F00103DAB277
:1006A0003B7962F341033B71094B9B681B0903F0E3
:1006B0000103DAB23B7962F382033B71054B5B685D
:1006C0009B693879984700BF0837BD4680BD00BF99
:1006D000003800405400002080B500AF024B1B687A
:1006E000DB68984700BF80BD5C00002080B500AF8C
:1006F000024B5B68DB68984700BF80BD5C00002050
:1007000080B500AF024B9B68DB68984700BF80BD97
:100710005C00002070B500250C4E0D4CA41BA410ED
:10072000A54209D100F01AF800250A4E0A4CA41B74
:10073000A410A54205D170BD56F825309847013563
:10074000EEE756F8253098470135F2E774070008C0
:10075000740700087407000878070008F8B500BFA0
:10076000F8BC08BC9E467047F8B500BFF8BC08BC92
:040770009E467047EA
:040774005501000823
:040778003101000843
:04000005080001ED01
:00000001FF
