:020000040800F2
:10000000002800200D1200085D1200085D12000893
:100010005D1200085D1200085D120008000000007B
:100020000000000000000000000000005D12000859
:100030005D120008000000005D1200085D1200085B
:100040005D1200085D1200085D1200085D120008D4
:100050005D1200085D1200083513000859130008EE
:100060007D130008A1130008C51300085D120008E5
:100070005D1200085D1200085D1200085D120008A4
:100080005D1200085D1200085D1200085D12000894
:100090005D1200085D1200085D120008E9130008F7
:1000A0005D1200085D1200085D1200085D12000874
:1000B0005D1200085D1200085D120008211800089A
:1000C0005D1200085D1200085D12000809190008A1
:1000D00065190008211E0008351E0008491E000889
:1000E000911400085D120008000000005D12000875
:1000F0005D1200085D1200085D1200085D12000824
:100100005D1200085D1200085D1200085D12000813
:100110005D1200085D1200085D1200085D12000803
:100120005D1200085D1200085D1200085D120008F3
:1001300010B5054C237833B9044B13B10448AFF321
:1001400000800123237010BD040000200000000087
:10015000A41E000808B5034B1BB103490348AFF3C5
:10016000008008BD0000000008000020A41E000858
:1001700081F0004102E000BF83F0004330B54FEA58
:1001800041044FEA430594EA050F08BF90EA020FC5
:100190001FBF54EA000C55EA020C7FEA645C7FEA58
:1001A000655C00F0E2804FEA5454D4EB5555B8BF7B
:1001B0006D420CDD2C4480EA020281EA030382EAEC
:1001C000000083EA010180EA020281EA0303362D7E
:1001D00088BF30BD11F0004F4FEA01314FF4801C51
:1001E0004CEA113102D0404261EB410113F0004F63
:1001F0004FEA03334CEA133302D0524263EB43031A
:1002000094EA050F00F0A780A4F10104D5F1200EB7
:100210000DDB02FA0EFC22FA05F2801841F1000112
:1002200003FA0EF2801843FA05F359410EE0A5F1E6
:1002300020050EF1200E012A03FA0EFC28BF4CF017
:10024000020C43FA05F3C01851EBE37101F00045CD
:1002500007D54FF0000EDCF1000C7EEB00006EEBDA
:100260000101B1F5801F1BD3B1F5001F0CD3490864
:100270005FEA30004FEA3C0C04F101044FEA4452BB
:1002800012F5800F80F09A80BCF1004F08BF5FEA42
:10029000500C50F1000041EB045141EA050130BD22
:1002A0005FEA4C0C404141EB010111F4801FA4F1C5
:1002B0000104E9D191F0000F04BF01460020B1FA1A
:1002C00081F308BF2033A3F10B03B3F120020CDA52
:1002D0000C3208DD02F1140CC2F10C0201FA0CF030
:1002E00021FA02F10CE002F11402D8BFC2F1200C95
:1002F00001FA02F120FA0CFCDCBF41EA0C0190404B
:10030000E41AA2BF01EB0451294330BD6FEA040493
:100310001F3C1CDA0C340EDC04F11404C4F120027E
:1003200020FA04F001FA02F340EA030021FA04F390
:1003300045EA030130BDC4F10C04C4F1200220FAE7
:1003400002F001FA04F340EA0300294630BD21FA25
:1003500004F0294630BD94F0000F83F4801306BFEB
:1003600081F480110134013D4EE77FEA645C18BFDF
:100370007FEA655C29D094EA050F08BF90EA020F76
:1003800005D054EA000C04BF1946104630BD91EA6E
:10039000030F1EBF0021002030BD5FEA545C05D171
:1003A0004000494128BF41F0004130BD14F58004B0
:1003B0003CBF01F5801130BD01F0004545F0FE4124
:1003C00041F470014FF0000030BD7FEA645C1ABF59
:1003D000194610467FEA655C1CBF0B46024650EA90
:1003E000013406BF52EA033591EA030F41F40021BC
:1003F00030BD00BF90F0000F04BF0021704730B542
:100400004FF4806404F132044FF000054FF0000116
:1004100050E700BF90F0000F04BF0021704730B5D7
:100420004FF4806404F1320410F0004548BF4042AC
:100430004FF000013EE700BF42004FEAE2014FEA01
:1004400031014FEA02701FBF12F07F4393F07F4FDC
:1004500081F06051704732F07F4208BF704793F0DF
:100460007F4F04BF41F40021704730B54FF46074F2
:1004700001F0004521F000411CE700BF50EA0102F5
:1004800008BF704730B54FF000050AE050EA01029E
:1004900008BF704730B511F0004502D5404261EB0E
:1004A00041014FF4806404F132045FEA915C3FF44F
:1004B000D8AE4FF003025FEADC0C18BF03325FEAEC
:1004C000DC0C18BF033202EBDC02C2F1200300FA9D
:1004D00003FC20FA02F001FA03FE40EA0E0021FAC2
:1004E00002F11444BDE600BF70B54FF0FF0C4CF4B0
:1004F000E06C1CEA11541DBF1CEA135594EA0C0F62
:1005000095EA0C0F00F0DEF82C4481EA030621EA9C
:100510004C5123EA4C5350EA013518BF52EA0335D7
:1005200041F4801143F4801338D0A0FB02CE4FF089
:100530000005E1FB02E506F00042E0FB03E54FF0B9
:100540000006E1FB03569CF0000F18BF4EF0010EB1
:10055000A4F1FF04B6F5007F64F5407404D25FEAAD
:100560004E0E6D4146EB060642EAC62141EA555160
:100570004FEAC52040EA5E504FEACE2EB4F1FD0CA2
:1005800088BFBCF5E06F1ED8BEF1004F08BF5FEA20
:10059000500E50F1000041EB045170BD06F00046D2
:1005A00046EA010140EA020081EA0301B4EB5C047F
:1005B000C2BFD4EB0C0541EA045170BD41F4801177
:1005C0004FF0000E013C00F3AB8014F1360FDEBF9C
:1005D000002001F0004170BDC4F10004203C35DA78
:1005E0000C341BDC04F11404C4F1200500FA05F3FB
:1005F00020FA04F001FA05F240EA020001F000429C
:1006000021F0004110EBD37021FA04F642EB060111
:100610005EEA430E08BF20EAD37070BDC4F10C043B
:10062000C4F1200500FA04F320FA05F001FA04F2FF
:1006300040EA020001F0004110EBD37041F10001EB
:100640005EEA430E08BF20EAD37070BDC4F12005F6
:1006500000FA05F24EEA020E20FA04F301FA05F25E
:1006600043EA020321FA04F001F0004121FA04F206
:1006700020EA020000EBD3705EEA430E08BF20EAD6
:10068000D37070BD94F0000F0FD101F00046400010
:1006900041EB010111F4801F08BF013CF7D041EA92
:1006A000060195F0000F18BF704703F00046520096
:1006B00043EB030313F4801F08BF013DF7D043EA67
:1006C0000603704794EA0C0F0CEA135518BF95EA1D
:1006D0000C0F0CD050EA410618BF52EA4306D1D1A4
:1006E00081EA030101F000414FF0000070BD50EAC3
:1006F000410606BF1046194652EA430619D094EA4D
:100700000C0F02D150EA013613D195EA0C0F05D136
:1007100052EA03361CBF104619460AD181EA03018A
:1007200001F0004141F0FE4141F470014FF0000042
:1007300070BD41F0FE4141F4780170BD70B54FF0DD
:10074000FF0C4CF4E06C1CEA11541DBF1CEA13555D
:1007500094EA0C0F95EA0C0F00F0A7F8A4EB05043F
:1007600081EA030E52EA03354FEA013100F0888036
:100770004FEA03334FF0805545EA131343EA1263FF
:100780004FEA022245EA111545EA10654FEA0026B4
:100790000EF000419D4208BF964244F1FD0404F56D
:1007A000407402D25B084FEA3202B61A65EB0305C9
:1007B0005B084FEA32024FF480104FF4002CB6EB86
:1007C000020E75EB030E22BFB61A754640EA0C0006
:1007D0005B084FEA3202B6EB020E75EB030E22BF46
:1007E000B61A754640EA5C005B084FEA3202B6EB87
:1007F000020E75EB030E22BFB61A754640EA9C0046
:100800005B084FEA3202B6EB020E75EB030E22BF15
:10081000B61A754640EADC0055EA060E18D04FEAD3
:10082000051545EA16754FEA06164FEAC30343EA73
:1008300052734FEAC2025FEA1C1CC0D111F4801F40
:100840000BD141EA00014FF000004FF0004CB6E739
:1008500011F4801F04BF01430020B4F1FD0C88BFD8
:10086000BCF5E06F3FF6AFAEB5EB030C04BFB6EBE3
:10087000020C5FEA500C50F1000041EB045170BDD6
:100880000EF0004E4EEA113114EB5C04C2BFD4EB03
:100890000C0541EA045170BD41F480114FF0000E87
:1008A000013C90E645EA060E8DE60CEA135594EA03
:1008B0000C0F08BF95EA0C0F3FF43BAF94EA0C0F06
:1008C0000AD150EA01347FF434AF95EA0C0F7FF47B
:1008D00025AF104619462CE795EA0C0F06D152EACF
:1008E00003353FF4FDAE1046194622E750EA4106B3
:1008F00018BF52EA43067FF4C5AE50EA41047FF4C4
:100900000DAF52EA43057FF4EBAE12E74FEA410226
:10091000B2F1E04324BFB3F5001CDCF1FE5C0DD95D
:1009200001F0004C4FEAC0024CEA5070B2F1004FA7
:1009300040EB830008BF20F00100704711F0804FAA
:1009400021D113F13872BCBF01F00040704741F46F
:1009500080114FEA5252C2F11802C2F1200C10FA73
:100960000CF320FA02F018BF40F001004FEAC12357
:100970004FEAD32303FA0CFC40EA0C0023FA02F3FB
:100980004FEA4303CCE77FEA625307D150EA0133D1
:100990001EBF4FF0FE4040F44000704701F00040A1
:1009A00040F0FE4040F40000704700BF4FF0FF0CE5
:1009B0001CEAD0521EBF1CEAD15392EA0C0F93EAF4
:1009C0000C0F6FD01A4480EA010C400218BF5FEA96
:1009D00041211ED04FF0006343EA501043EA511109
:1009E000A0FB01310CF00040B1F5000F3EBF490003
:1009F00041EAD3715B0040EA010062F17F02FD2A07
:100A00001DD8B3F1004F40EBC25008BF20F00100E9
:100A1000704790F0000F0CF0004C08BF49024CEA00
:100A2000502040EA51207F3AC2BFD2F1FF0340EA92
:100A3000C250704740F400004FF00003013A5DDC03
:100A400012F1190FDCBF00F000407047C2F1000244
:100A5000410021FA02F1C2F1200200FA02FC5FEA31
:100A6000310040F1000053EA4C0308BF20EADC707B
:100A7000704792F0000F00F0004C02BF400010F4ED
:100A8000000F013AF9D040EA0C0093F0000F01F09A
:100A9000004C02BF490011F4000F013BF9D041EABC
:100AA0000C018FE70CEAD15392EA0C0F18BF93EABE
:100AB0000C0F0AD030F0004C18BF31F0004CD8D1E8
:100AC00080EA010000F00040704790F0000F17BF6F
:100AD00090F0004F084691F0000F91F0004F14D0B5
:100AE00092EA0C0F01D142020FD193EA0C0F03D10D
:100AF0004B0218BF084608D180EA010000F0004010
:100B000040F0FE4040F40000704740F0FE4040F4EA
:100B1000400070474FF0FF0C1CEAD0521EBF1CEA89
:100B2000D15392EA0C0F93EA0C0F69D0A2EB0302A7
:100B300080EA010C49024FEA402037D04FF0805341
:100B400043EA111143EA10130CF000408B4238BF06
:100B50005B0042F17D024FF4000C8B4224BF5B1A14
:100B600040EA0C00B3EB510F24BFA3EB510340EA62
:100B70005C00B3EB910F24BFA3EB910340EA9C0010
:100B8000B3EBD10F24BFA3EBD10340EADC001B0180
:100B900018BF5FEA1C1CE0D1FD2A3FF650AF8B4224
:100BA00040EBC25008BF20F0010070470CF0004C31
:100BB0004CEA50207F32C2BFD2F1FF0340EAC2505C
:100BC000704740F400004FF00003013A37E792F01D
:100BD000000F00F0004C02BF400010F4000F013A7B
:100BE000F9D040EA0C0093F0000F01F0004C02BF76
:100BF000490011F4000F013BF9D041EA0C0195E7DF
:100C00000CEAD15392EA0C0F08D142027FF47DAF77
:100C100093EA0C0F7FF470AF084676E793EA0C0F67
:100C200004D14B023FF44CAF08466EE730F0004C65
:100C300018BF31F0004CCAD130F000427FF45CAFF5
:100C400031F000437FF43CAF5FE700BF42000ED2BB
:100C5000B2F1FE4F0BD34FF09E03B3EB126209D4F7
:100C60004FEA002343F0004323FA02F070474FF0AD
:100C70000000704712F1610F01D1420202D14FF022
:100C8000FF3070474FF00000704700BF80B500AFE5
:100C9000154B00221A80144B00225A80124B072257
:100CA0009A80114B42F210729A600F4B42F210720E
:100CB000DA6000220C494FF0804000F081FE0122F2
:100CC00009494FF0804000F07BFE022206494FF0B8
:100CD000804000F075FE032203494FF0804000F091
:100CE0006FFE00BF80BD00BF6C00002080B582B0E9
:100CF00000AF03460A46FB711346BB71BB79012B5B
:100D000021D1012240F6B8314FF0804001F036F891
:100D1000002242F234114FF0804001F02FF80222FD
:100D200042F234114FF0804001F028F8032242F2E1
:100D300034114FF0804001F021F8642000F08FFA68
:100D400000F057F823E0BB79002B20D1002241F2BC
:100D500088314FF0804001F011F8012242F2341145
:100D60004FF0804001F00AF8022242F234114FF0B5
:100D7000804001F003F8032242F234114FF080402A
:100D800000F0FCFF642000F06AFA00F032F800BFC7
:100D90000837BD4680BD80B582B000AF03460A4625
:100DA000FB711346BB71002241F288314FF0804045
:100DB00000F0E4FF012241F288314FF0804000F062
:100DC000DDFF022241F288314FF0804000F0D6FF73
:100DD000032241F288314FF0804000F0CFFF4FF402
:100DE000FA6000F03CFA00F004F800BF0837BD4696
:100DF00080BD80B500AF4FF0804001F001F800BF2A
:100E000080BD80B400AF00BFBD4680BC704780B5D8
:100E100000AF002000F04EFA0346184680BD80B5B2
:100E200000AF012000F046FA0346184680BD80B5A9
:100E300000AF022000F03EFA0346184680BD80B5A0
:100E400000AF032000F036FA0346184680BD80B597
:100E500000AF042000F02EFA0346184680BD80B58E
:100E600000AF052000F026FA0346184680BD0000BA
:100E700080B500AF00F018FF074B06229A70064BB2
:100E80000122DA70044B20221A800349034800F043
:100E9000C4FB00BF80BD00BF7C000020000C0140EF
:100EA00080B582B000AF00F0FFFE012220210E4885
:100EB00000F032FC0A2000F0D2F9002220210A487A
:100EC00000F02AFC00F014FF034608491846FFF71B
:100ED0006DFD03461846FFF7B9FE0346FB71FB792B
:100EE00018460837BD4680BD000C014000D00447BD
:100EF00080B400AF194B9B69184A43F00403936117
:100F0000164B9B69154A43F008039361134B9B6989
:100F1000124A43F010039361104B9B690F4A43F050
:100F2000010393610D4BDB690C4A43F00103D3616C
:100F30000A4BDB69094A43F00203D361074BDB69C3
:100F4000064A43F00403D361044B9B69034A43F40C
:100F50000073936100BFBD4680BC70470010024023
:100F600080B586B000AFFFF752FF0346283B7B6198
:100F7000FFF755FF0346283B3B61FFF758FF034649
:100F8000283BFB60FFF75BFF0346283BBB60FFF796
:100F90005EFF0346283B7B60FFF761FF0346283B6B
:100FA0003B607A693B699A4211DD7A69FB689A4233
:100FB0000DDD7A69BB689A4209DD7A697B689A42DD
:100FC00005DD7A693B689A4201DD002330E03A6929
:100FD000FB689A420DDD3A69BB689A4209DD3A69BD
:100FE0007B689A4205DD3A693B689A4201DD02233B
:100FF0001EE0FA68BB689A4209DDFA687B689A428B
:1010000005DDFA683B689A4201DD012310E0BA6809
:101010007B689A4205DDBA683B689A4201DD052388
:1010200006E07A683B689A4201DD032300E004236E
:1010300018461837BD4680BD80B582B000AF034664
:10104000FB71FB79013B042B1FD801A252F823F05E
:101050006D10000881100008811000086D10000854
:101060008110000801210520FFF740FEFFF778FFFF
:101070000346002BF6D103E000210520FFF736FEE2
:10108000FFF76EFF0346002BF6D100BF0837BD46C1
:1010900080BD00BF80B500AF00215A20FFF726FEBB
:1010A000164B1B68DBB21A46920013441A46910095
:1010B0001A460B4613445B00DBB21946B820FFF713
:1010C0006AFE00215A20FFF711FE0C4B1B68DBB2B1
:1010D0001A46920013441A4691001A460B461344CE
:1010E0005B00DBB21946B820FFF755FE034B1B68C7
:1010F0000133024A136000BF80BD00BF0000002022
:1011000080B500AF03E00521B820FFF744FEFFF7EC
:10111000C7FE0346142BF6D800BFFFF778FE034640
:10112000272BFADC00BF80BD80B500AFFFF7AEFD16
:10113000FFF79EFEFFF765FE00BF80BD80B582B061
:1011400000AFFFF7D5FEFFF7EFFFFFF7A9FE03465D
:10115000142B94BF01230023DBB2FB71FFF757FE72
:101160000346272B18DCFFF75AFE0346272B13DC18
:10117000FFF75DFE0346272B0EDCFFF760FE0346FC
:10118000272B09DCFFF763FE0346272B04DCFFF760
:1011900066FE0346272B01DD012300E00023BB711F
:1011A000FB79002B05D1BB79002B02D1FFF772FF31
:1011B00028E0FB79002B0ED0BB79002B0BD0FFF77A
:1011C000CFFE03461846FFF737FFFFF799FF0E4B98
:1011D00001221A6016E0FB79002B05D00A4B012290
:1011E0001A60FFF757FFB0E7BB79002BADD0FFF7D0
:1011F000B7FE03461846FFF71FFFFFF781FF024BBC
:1012000001221A60A1E700BF000000200D488546BA
:10121000AFF300800C480D490D4A002302E0D4587A
:10122000C4500433C4188C42F9D30A4A0A4C002330
:1012300001E013600432A242FBD300F00FFEFFF77F
:101240007DFFFEE7002800200000002004000020B1
:10125000C41E000804000020BC000020FEE780B48B
:1012600083B000AF78604FF0804341F63F729A62DE
:101270007B685A1E4FF08043DA624FF080431B6850
:101280004FF0804243F00103136000BF4FF08043F2
:101290001B6903F00103002BF8D04FF080430022BC
:1012A0001A614FF0804300221A6000BF0C37BD4620
:1012B00080BC704780B485B000AF0346FB711C4A08
:1012C000FB7953631A4B9B68194A43F001039360FF
:1012D000174B9B68164A43F001039360144B9B68BD
:1012E000134A43F48003936000BF114B1B6803F063
:1012F0001003002BF9D00E4B1B680D4A23F010038E
:10130000136000BF0A4B1B6803F00203002BF9D0E7
:10131000074BDB6CFB81064B9B68054A23F00103FE
:101320009360FB8918461437BD4680BC704700BFE8
:101330000024014080B500AF054B5B69044A43F0CF
:1013400001035361034B1B68984700BF80BD00BF7A
:10135000000401408000002080B500AF054B5B69B0
:10136000044A43F002035361034B5B68984700BF94
:1013700080BD00BF000401408000002080B500AFA8
:10138000054B5B69044A43F004035361034B9B68BC
:10139000984700BF80BD00BF0004014080000020CE
:1013A00080B500AF054B5B69044A43F00803536105
:1013B000034BDB68984700BF80BD00BF00040140BD
:1013C0008000002080B500AF054B5B69044A43F004
:1013D00010035361034B1B69984700BF80BD00BFDA
:1013E000000401408000002080B500AF264B5B69FF
:1013F00003F02003002B08D0234B5B69224A43F003
:1014000020035361214B5B6998471F4B5B6903F0D5
:101410004003002B08D01C4B5B691B4A43F0400380
:1014200053611A4B9B699847174B5B6903F0800324
:10143000002B08D0144B5B69134A43F080035361BF
:10144000124BDB699847104B5B6903F48073002BE8
:1014500008D00D4B5B690C4A43F4807353610B4B0E
:101460001B6A9847084B5B6903F40073002B08D094
:10147000054B5B69044A43F400735361034B5B6A99
:10148000984700BF80BD00BF0004014080000020DD
:1014900080B500AF2D4B5B6903F48063002B08D04F
:1014A0002A4B5B69294A43F480635361284B9B6A4A
:1014B0009847264B5B6903F40063002B08D0234B4D
:1014C0005B69224A43F400635361214BDB6A98470E
:1014D0001E4B5B6903F48053002B08D01B4B5B69E8
:1014E0001A4A43F480535361194B1B6B9847174BAF
:1014F0005B6903F40053002B08D0144B5B69134A5B
:1015000043F400535361124B5B6B98470F4B5B697D
:1015100003F48043002B08D00C4B5B690B4A43F467
:10152000804353610A4B9B6B9847084B5B6903F4FC
:101530000043002B08D0054B5B69044A43F4004389
:101540005361034BDB6B984700BF80BD0004014033
:101550008000002080B483B000AF0346FB80FB888E
:10156000802B42D0802B11DC082B36D0082B06DCD8
:10157000022B2ED0042B2ED0012B28D047E0202B7D
:101580002FD0402B2FD0102B29D040E0B3F5006F87
:1015900033D0B3F5006F09DCB3F5007F29D0B3F584
:1015A000806F28D0B3F5807F21D030E0B3F5005FA5
:1015B00027D0B3F5005F03DCB3F5805F1FD026E0D2
:1015C000B3F5804F1FD0B3F5004F1ED01FE00023AE
:1015D0001EE004231CE008231AE00C2318E010236B
:1015E00016E0142314E0182312E01C2310E000235B
:1015F0000EE004230CE008230AE00C2308E010238B
:1016000006E0142304E0182302E01C2300E000237A
:1016100018460C37BD4680BC704790B585B000AF0A
:10162000786039600023BB600023FB733B681B8834
:10163000FF2B01D87B6801E07B680433BB603B680B
:101640001B881846FFF786FF03461A460F23934070
:10165000DA43BB681B681A40BB681A603B689B781A
:10166000072B0BD03B689B78062B07D03B689B78F9
:10167000052B03D03B689B78042B0ED13B689B78ED
:10168000043B9B005AB23B68DB785BB213435BB20E
:10169000DBB203F00F03FB732CE03B689B78012B5C
:1016A00003D03B689B78002B07D13B689B789B005D
:1016B000DBB203F00F03FB731CE03B689B78082B45
:1016C00002D10423FB7315E00823FB733B689B786E
:1016D000022B07D17B68DB683A6812881A437B6863
:1016E000DA6007E07B68DB683A681288D2431A4008
:1016F0007B68DA60FC7B3B681B881846FFF72AFF93
:10170000034604FA03F2BB681B681A43BB681A60FD
:1017100000BF1437BD4690BD80B483B000AF786081
:101720000B467B8013467B707B78002B03D07A8836
:101730007B681A6102E07A887B685A6100BF0C37C7
:10174000BD4680BC7047000080B584B000AF7860B3
:101750000B46FB707B68304A934214BF0123002381
:10176000DBB2FB73FB78032B51D801A252F823F0B4
:1017700081170008A5170008BD170008E117000829
:101780007B689B6903F00403002B3BD0FA7B234961
:101790001346DB009B1A9B000B4418331B68002088
:1017A00098472FE0FA7B1D491346DB009B1A9B00EC
:1017B0000B4418331B680120984728E07B689B691D
:1017C00003F00403002B1FD0FA7B14491346DB00FF
:1017D0009B1A9B000B4418331B680220984713E0A8
:1017E0007B689B6903F00403002B0FD1FA7B0B4944
:1017F0001346DB009B1A9B000B4418331B68032025
:10180000984703E000BF02E000BF00E000BF00BF58
:101810001037BD4680BD00BF0054004020000020AE
:1018200080B584B000AF00233B60364B5B6903F0AA
:101830001003FB60334B5B6803F40073BB60314BF8
:101840005B6803F480637B60BB68002B0AD0FB6895
:10185000002B07D02B4B2B4A1B6813600021294813
:10186000FFF772FF274B5B6903F00203FB60BB6865
:10187000002B12D0FB68002B0FD0224B9B6903F08A
:101880000103002B09D11F4B5B693B601D4B9B691A
:101890003B6001211B48FFF757FF1A4B5B6903F0C0
:1018A0008003FB60BB68002B0FD07B68002B0CD043
:1018B000FB68002B09D0134B9B6903F00103002B3D
:1018C00003D102210F48FFF73FFF0E4B5B6903F086
:1018D0004003FB60BB68002B0FD07B68002B0CD053
:1018E000FB68002B09D0074B9B6903F00103002B19
:1018F00003D103210348FFF727FF00BF1037BD4680
:1019000080BD00BF0054004080B582B000AF134BD3
:101910009B685B0803F00103DAB23B7962F30003D2
:101920003B710E4B9B6803F00103DAB23B7962F323
:1019300041033B71094B9B681B0903F00103DAB2B9
:101940003B7962F382033B71054B1B689B693879D5
:10195000984700BF0837BD4680BD00BF003001403A
:101960005800002080B582B000AF134B9B685B0825
:1019700003F00103DAB23B7962F300033B710E4BD3
:101980009B6803F00103DAB23B7962F341033B71D8
:10199000094B9B681B0903F00103DAB23B7962F340
:1019A00082033B71054B5B689B693879984700BFA0
:1019B0000837BD4680BD00BF0038004058000020F9
:1019C00080B586B000AFF860B9601346FB71FB6864
:1019D00081221A60BB681B88022B00F0D480FB6850
:1019E000B3F1804F31D1AA4BDB69A94A43F001031F
:1019F000D3610623BB750123FB75FB79032B17D835
:101A000001A252F823F000BF191A00081F1A00089B
:101A1000251A00082B1A00080123BB8208E00223C4
:101A2000BB8205E00423BB8202E00823BB8200BF27
:101A300007F1140319469748FFF7EFFD964B1B6813
:101A4000954A43F08053136072E0FB68934A9342D7
:101A50003DD10623BB750123FB75FB79032B2FD8E2
:101A600001A252F823F000BF791A00088B1A00086F
:101A70009D1A0008AF1A00084023BB8207F1140327
:101A800019468448FFF7C9FD1AE08023BB8207F19D
:101A9000140319467F48FFF7C0FD11E00123BB8204
:101AA00007F1140319467E48FFF7B7FD08E002234B
:101AB000BB8207F1140319467948FFF7AEFD00BF5A
:101AC000754B1B68744A43F08053136030E0FB6829
:101AD000744A93422CD10623BB750123FB75FB7915
:101AE000032B19D801A252F823F000BFFD1A0008F9
:101AF000031B0008091B0008111B00084023BB82C0
:101B00000AE08023BB8207E04FF48073BB8203E0CE
:101B10004FF40073BB8200BF07F1140319466048FD
:101B2000FFF77BFD5C4B1B685B4A43F0804313600F
:101B3000FB79032B52D801A252F823F04D1B000869
:101B40005B1B0008691B0008771B0008FB689B698A
:101B500043F07802FB689A6140E0FB689B6943F4BC
:101B6000F042FB689A6139E0FB68DB6943F0780278
:101B7000FB68DA6132E0FB68DB6943F4F042FB6842
:101B8000DA6100BF2AE0FB79032B27D801A252F8C3
:101B900023F000BFA51B0008B31B0008C11B0008F1
:101BA000CF1B0008FB689B6923F07802FB689A61F1
:101BB00014E0FB689B6923F4F042FB689A610DE036
:101BC000FB68DB6923F07802FB68DA6106E0FB68FA
:101BD000DB6923F4F042FB68DA6100BFFB79032B79
:101BE00046D801A252F823F0F91B0008171C000880
:101BF000351C0008531C0008FB681B6A43F00102F7
:101C0000FB681A62BB68DB689BB200221946F86861
:101C100000F0B4F82CE0FB681B6A43F03002FB686C
:101C20001A62BB68DB689BB201221946F86800F0B3
:101C3000A5F81DE0FB681B6A43F48072FB681A621A
:101C4000BB68DB689BB202221946F86800F096F880
:101C50000EE0FB681B6A43F48052FB681A62BB68A3
:101C6000DB689BB203221946F86800F087F800BFD2
:101C7000BB689B881A46FB689A62BB689B689BB2EC
:101C80001946F86800F0AEF800BF1837BD4680BDB1
:101C9000001002400008014080E100E00004004024
:101CA000000C01400008004080B582B000AF012365
:101CB000BB714023BB803B1D19460B48FFF7ADFCB1
:101CC0000A4B07229A62094B4FF6FF72DA62074B02
:101CD00031229A61054B1B6A044A43F001031362E7
:101CE00000BF0837BD4680BD000C01400008004021
:101CF00098B500AF204B01221A601F4B1B6A1E4A89
:101D000023F00203136200BF1B4B1B6903F00203A5
:101D1000002BF9D0184B00221A61174B00225A628F
:101D2000154B1B6A144A43F00203136200BF124BA7
:101D30001B6903F00203002BF9D00F4B00221A613C
:101D40000D4B00221A600C4B5B6B1846FEF752FBE2
:101D500007A3D3E90023FEF7C7FB03460C4618464A
:101D60002146FEF7D3FD0346184698BDAFF3008029
:101D70008DEDB5A0F7C6B03E0008004080B483B03A
:101D800000AF78600B467B8013467B707B78032B1B
:101D90001AD801A252F823F0A91D0008B11D0008AD
:101DA000B91D0008C11D00087A887B685A630BE0E2
:101DB0007A887B689A6307E07A887B68DA6303E055
:101DC0007A887B681A6400BF054B5B69044A43F05C
:101DD0000103536100BF0C37BD4680BC704700BF94
:101DE0000004004080B483B000AF78600B467B8075
:101DF0007A887B68DA6200BF0C37BD4680BC7047CA
:101E000080B483B000AF78607B680022DA627B68C0
:101E100000221A6000BF0C37BD4680BC704700002E
:101E200080B500AF024B1B68DB68984700BF80BDE0
:101E30006000002080B500AF024B5B68DB6898470C
:101E400000BF80BD6000002080B500AF024B9B68E2
:101E5000DB68984700BF80BD6000002070B500259A
:101E60000C4E0D4CA41BA410A54209D100F01AF889
:101E700000250A4E0A4CA41BA410A54205D170BD32
:101E800056F8253098470135EEE756F82530984743
:101E90000135F2E7BC1E0008BC1E0008BC1E00088D
:101EA000C01E0008F8B500BFF8BC08BC9E467047CD
:0C1EB000F8B500BFF8BC08BC9E467047A7
:041EBC0055010008C4
:041EC00031010008E4
:041EC4000100000019
:040000050800120DD0
:00000001FF
