:020000040800F2
:1000000000280020310A0008810A0008810A00083F
:10001000810A0008810A0008810A00080000000027
:10002000000000000000000000000000810A00083D
:10003000810A000800000000810A0008810A000807
:10004000810A0008810A0008810A0008810A000864
:10005000810A0008810A0008850A0008A90A000828
:10006000CD0A0008F10A0008150B0008810A0008F3
:10007000810A0008810A0008810A0008810A000834
:10008000810A0008810A0008810A0008810A000824
:10009000810A0008810A0008810A0008390B00085B
:1000A000810A0008810A0008810A0008810A000804
:1000B000810A0008810A0008810A0008410F00082F
:1000C000810A0008810A0008810A00082910000836
:1000D00085100008B5110008C9110008DD110008DD
:1000E000E10B0008810A000800000000810A0008F6
:1000F000810A0008810A0008810A0008810A0008B4
:10010000810A0008810A0008810A0008810A0008A3
:10011000810A0008810A0008810A0008810A000893
:10012000810A0008810A0008810A0008810A000883
:1001300010B5054C237833B9044B13B10448AFF321
:1001400000800123237010BD00000020000000008B
:100150003812000808B5034B1BB103490348AFF33D
:10016000008008BD000000000400002038120008D4
:1001700081F0004102E000BF83F0004330B54FEA58
:1001800041044FEA430594EA050F08BF90EA020FC5
:100190001FBF54EA000C55EA020C7FEA645C7FEA58
:1001A000655C00F0E2804FEA5454D4EB5555B8BF7B
:1001B0006D420CDD2C4480EA020281EA030382EAEC
:1001C000000083EA010180EA020281EA0303362D7E
:1001D00088BF30BD11F0004F4FEA01314FF4801C51
:1001E0004CEA113102D0404261EB410113F0004F63
:1001F0004FEA03334CEA133302D0524263EB43031A
:1002000094EA050F00F0A780A4F10104D5F1200EB7
:100210000DDB02FA0EFC22FA05F2801841F1000112
:1002200003FA0EF2801843FA05F359410EE0A5F1E6
:1002300020050EF1200E012A03FA0EFC28BF4CF017
:10024000020C43FA05F3C01851EBE37101F00045CD
:1002500007D54FF0000EDCF1000C7EEB00006EEBDA
:100260000101B1F5801F1BD3B1F5001F0CD3490864
:100270005FEA30004FEA3C0C04F101044FEA4452BB
:1002800012F5800F80F09A80BCF1004F08BF5FEA42
:10029000500C50F1000041EB045141EA050130BD22
:1002A0005FEA4C0C404141EB010111F4801FA4F1C5
:1002B0000104E9D191F0000F04BF01460020B1FA1A
:1002C00081F308BF2033A3F10B03B3F120020CDA52
:1002D0000C3208DD02F1140CC2F10C0201FA0CF030
:1002E00021FA02F10CE002F11402D8BFC2F1200C95
:1002F00001FA02F120FA0CFCDCBF41EA0C0190404B
:10030000E41AA2BF01EB0451294330BD6FEA040493
:100310001F3C1CDA0C340EDC04F11404C4F120027E
:1003200020FA04F001FA02F340EA030021FA04F390
:1003300045EA030130BDC4F10C04C4F1200220FAE7
:1003400002F001FA04F340EA0300294630BD21FA25
:1003500004F0294630BD94F0000F83F4801306BFEB
:1003600081F480110134013D4EE77FEA645C18BFDF
:100370007FEA655C29D094EA050F08BF90EA020F76
:1003800005D054EA000C04BF1946104630BD91EA6E
:10039000030F1EBF0021002030BD5FEA545C05D171
:1003A0004000494128BF41F0004130BD14F58004B0
:1003B0003CBF01F5801130BD01F0004545F0FE4124
:1003C00041F470014FF0000030BD7FEA645C1ABF59
:1003D000194610467FEA655C1CBF0B46024650EA90
:1003E000013406BF52EA033591EA030F41F40021BC
:1003F00030BD00BF90F0000F04BF0021704730B542
:100400004FF4806404F132044FF000054FF0000116
:1004100050E700BF90F0000F04BF0021704730B5D7
:100420004FF4806404F1320410F0004548BF4042AC
:100430004FF000013EE700BF42004FEAE2014FEA01
:1004400031014FEA02701FBF12F07F4393F07F4FDC
:1004500081F06051704732F07F4208BF704793F0DF
:100460007F4F04BF41F40021704730B54FF46074F2
:1004700001F0004521F000411CE700BF50EA0102F5
:1004800008BF704730B54FF000050AE050EA01029E
:1004900008BF704730B511F0004502D5404261EB0E
:1004A00041014FF4806404F132045FEA915C3FF44F
:1004B000D8AE4FF003025FEADC0C18BF03325FEAEC
:1004C000DC0C18BF033202EBDC02C2F1200300FA9D
:1004D00003FC20FA02F001FA03FE40EA0E0021FAC2
:1004E00002F11444BDE600BF70B54FF0FF0C4CF4B0
:1004F000E06C1CEA11541DBF1CEA135594EA0C0F62
:1005000095EA0C0F00F0DEF82C4481EA030621EA9C
:100510004C5123EA4C5350EA013518BF52EA0335D7
:1005200041F4801143F4801338D0A0FB02CE4FF089
:100530000005E1FB02E506F00042E0FB03E54FF0B9
:100540000006E1FB03569CF0000F18BF4EF0010EB1
:10055000A4F1FF04B6F5007F64F5407404D25FEAAD
:100560004E0E6D4146EB060642EAC62141EA555160
:100570004FEAC52040EA5E504FEACE2EB4F1FD0CA2
:1005800088BFBCF5E06F1ED8BEF1004F08BF5FEA20
:10059000500E50F1000041EB045170BD06F00046D2
:1005A00046EA010140EA020081EA0301B4EB5C047F
:1005B000C2BFD4EB0C0541EA045170BD41F4801177
:1005C0004FF0000E013C00F3AB8014F1360FDEBF9C
:1005D000002001F0004170BDC4F10004203C35DA78
:1005E0000C341BDC04F11404C4F1200500FA05F3FB
:1005F00020FA04F001FA05F240EA020001F000429C
:1006000021F0004110EBD37021FA04F642EB060111
:100610005EEA430E08BF20EAD37070BDC4F10C043B
:10062000C4F1200500FA04F320FA05F001FA04F2FF
:1006300040EA020001F0004110EBD37041F10001EB
:100640005EEA430E08BF20EAD37070BDC4F12005F6
:1006500000FA05F24EEA020E20FA04F301FA05F25E
:1006600043EA020321FA04F001F0004121FA04F206
:1006700020EA020000EBD3705EEA430E08BF20EAD6
:10068000D37070BD94F0000F0FD101F00046400010
:1006900041EB010111F4801F08BF013CF7D041EA92
:1006A000060195F0000F18BF704703F00046520096
:1006B00043EB030313F4801F08BF013DF7D043EA67
:1006C0000603704794EA0C0F0CEA135518BF95EA1D
:1006D0000C0F0CD050EA410618BF52EA4306D1D1A4
:1006E00081EA030101F000414FF0000070BD50EAC3
:1006F000410606BF1046194652EA430619D094EA4D
:100700000C0F02D150EA013613D195EA0C0F05D136
:1007100052EA03361CBF104619460AD181EA03018A
:1007200001F0004141F0FE4141F470014FF0000042
:1007300070BD41F0FE4141F4780170BD70B54FF0DD
:10074000FF0C4CF4E06C1CEA11541DBF1CEA13555D
:1007500094EA0C0F95EA0C0F00F0A7F8A4EB05043F
:1007600081EA030E52EA03354FEA013100F0888036
:100770004FEA03334FF0805545EA131343EA1263FF
:100780004FEA022245EA111545EA10654FEA0026B4
:100790000EF000419D4208BF964244F1FD0404F56D
:1007A000407402D25B084FEA3202B61A65EB0305C9
:1007B0005B084FEA32024FF480104FF4002CB6EB86
:1007C000020E75EB030E22BFB61A754640EA0C0006
:1007D0005B084FEA3202B6EB020E75EB030E22BF46
:1007E000B61A754640EA5C005B084FEA3202B6EB87
:1007F000020E75EB030E22BFB61A754640EA9C0046
:100800005B084FEA3202B6EB020E75EB030E22BF15
:10081000B61A754640EADC0055EA060E18D04FEAD3
:10082000051545EA16754FEA06164FEAC30343EA73
:1008300052734FEAC2025FEA1C1CC0D111F4801F40
:100840000BD141EA00014FF000004FF0004CB6E739
:1008500011F4801F04BF01430020B4F1FD0C88BFD8
:10086000BCF5E06F3FF6AFAEB5EB030C04BFB6EBE3
:10087000020C5FEA500C50F1000041EB045170BDD6
:100880000EF0004E4EEA113114EB5C04C2BFD4EB03
:100890000C0541EA045170BD41F480114FF0000E87
:1008A000013C90E645EA060E8DE60CEA135594EA03
:1008B0000C0F08BF95EA0C0F3FF43BAF94EA0C0F06
:1008C0000AD150EA01347FF434AF95EA0C0F7FF47B
:1008D00025AF104619462CE795EA0C0F06D152EACF
:1008E00003353FF4FDAE1046194622E750EA4106B3
:1008F00018BF52EA43067FF4C5AE50EA41047FF4C4
:100900000DAF52EA43057FF4EBAE12E74FEA410226
:10091000B2F1E04324BFB3F5001CDCF1FE5C0DD95D
:1009200001F0004C4FEAC0024CEA5070B2F1004FA7
:1009300040EB830008BF20F00100704711F0804FAA
:1009400021D113F13872BCBF01F00040704741F46F
:1009500080114FEA5252C2F11802C2F1200C10FA73
:100960000CF320FA02F018BF40F001004FEAC12357
:100970004FEAD32303FA0CFC40EA0C0023FA02F3FB
:100980004FEA4303CCE77FEA625307D150EA0133D1
:100990001EBF4FF0FE4040F44000704701F00040A1
:1009A00040F0FE4040F40000704700BF80B400AF4C
:1009B000194B9B69184A43F004039361164B9B69DA
:1009C000154A43F008039361134B9B69124A43F0A5
:1009D00010039361104B9B690F4A43F0010393612D
:1009E0000D4BDB690C4A43F00103D3610A4BDB6911
:1009F000094A43F00203D361074BDB69064A43F01F
:100A00000403D361044B9B69034A43F4007393616D
:100A100000BFBD4680BC70470010024080B500AFEB
:100A2000FFF7C4FF00F05CFB00F07EFBFEE7000078
:100A30000D488546AFF300800C480D490D4A002350
:100A400002E0D458C4500433C4188C42F9D30A4A83
:100A50000A4C002301E013600432A242FBD300F0F1
:100A6000C7FBFFF7DBFFFEE70028002000000020A7
:100A7000000000205812000800000020A400002000
:100A8000FEE7000080B500AF054B5B69044A43F008
:100A900001035361034B1B68984700BF80BD00BF33
:100AA000000401406800002080B500AF054B5B6981
:100AB000044A43F002035361034B5B68984700BF4D
:100AC00080BD00BF000401406800002080B500AF79
:100AD000054B5B69044A43F004035361034B9B6875
:100AE000984700BF80BD00BF00040140680000209F
:100AF00080B500AF054B5B69044A43F008035361BE
:100B0000034BDB68984700BF80BD00BF0004014075
:100B10006800002080B500AF054B5B69044A43F0D4
:100B200010035361034B1B69984700BF80BD00BF92
:100B3000000401406800002080B500AF264B5B69CF
:100B400003F02003002B08D0234B5B69224A43F0BB
:100B500020035361214B5B6998471F4B5B6903F08E
:100B60004003002B08D01C4B5B691B4A43F0400339
:100B700053611A4B9B699847174B5B6903F08003DD
:100B8000002B08D0144B5B69134A43F08003536178
:100B9000124BDB699847104B5B6903F48073002BA1
:100BA00008D00D4B5B690C4A43F4807353610B4BC7
:100BB0001B6A9847084B5B6903F40073002B08D04D
:100BC000054B5B69044A43F400735361034B5B6A52
:100BD000984700BF80BD00BF0004014068000020AE
:100BE00080B500AF2D4B5B6903F48063002B08D008
:100BF0002A4B5B69294A43F480635361284B9B6A03
:100C00009847264B5B6903F40063002B08D0234B05
:100C10005B69224A43F400635361214BDB6A9847C6
:100C20001E4B5B6903F48053002B08D01B4B5B69A0
:100C30001A4A43F480535361194B1B6B9847174B67
:100C40005B6903F40053002B08D0144B5B69134A13
:100C500043F400535361124B5B6B98470F4B5B6936
:100C600003F48043002B08D00C4B5B690B4A43F420
:100C7000804353610A4B9B6B9847084B5B6903F4B5
:100C80000043002B08D0054B5B69044A43F4004342
:100C90005361034BDB6B984700BF80BD00040140EC
:100CA0006800002080B483B000AF0346FB80FB885F
:100CB000802B42D0802B11DC082B36D0082B06DC91
:100CC000022B2ED0042B2ED0012B28D047E0202B36
:100CD0002FD0402B2FD0102B29D040E0B3F5006F40
:100CE00033D0B3F5006F09DCB3F5007F29D0B3F53D
:100CF000806F28D0B3F5807F21D030E0B3F5005F5E
:100D000027D0B3F5005F03DCB3F5805F1FD026E08A
:100D1000B3F5804F1FD0B3F5004F1ED01FE0002366
:100D20001EE004231CE008231AE00C2318E0102323
:100D300016E0142314E0182312E01C2310E0002313
:100D40000EE004230CE008230AE00C2308E0102343
:100D500006E0142304E0182302E01C2300E0002333
:100D600018460C37BD4680BC704790B585B000AFC3
:100D7000786039600023BB600023FB733B681B88ED
:100D8000FF2B01D87B6801E07B680433BB603B68C4
:100D90001B881846FFF786FF03461A460F23934029
:100DA000DA43BB681B681A40BB681A603B689B78D3
:100DB000072B0BD03B689B78062B07D03B689B78B2
:100DC000052B03D03B689B78042B0ED13B689B78A6
:100DD000043B9B005AB23B68DB785BB213435BB2C7
:100DE000DBB203F00F03FB732CE03B689B78012B15
:100DF00003D03B689B78002B07D13B689B789B0016
:100E0000DBB203F00F03FB731CE03B689B78082BFD
:100E100002D10423FB7315E00823FB733B689B7826
:100E2000022B07D17B68DB683A6812881A437B681B
:100E3000DA6007E07B68DB683A681288D2431A40C0
:100E40007B68DA60FC7B3B681B881846FFF72AFF4B
:100E5000034604FA03F2BB681B681A43BB681A60B6
:100E600000BF1437BD4690BD80B584B000AF786038
:100E70000B46FB707B68304A934214BF012300236A
:100E8000DBB2FB73FB78032B51D801A252F823F09D
:100E9000A10E0008C50E0008DD0E0008010F0008B5
:100EA0007B689B6903F00403002B3BD0FA7B23494A
:100EB0001346DB009B1A9B000B4418331B68002071
:100EC00098472FE0FA7B1D491346DB009B1A9B00D5
:100ED0000B4418331B680120984728E07B689B6906
:100EE00003F00403002B1FD0FA7B14491346DB00E8
:100EF0009B1A9B000B4418331B680220984713E091
:100F00007B689B6903F00403002B0FD1FA7B0B492C
:100F10001346DB009B1A9B000B4418331B6803200D
:100F2000984703E000BF02E000BF00E000BF00BF41
:100F30001037BD4680BD00BF005400401C0000209B
:100F400080B584B000AF00233B60364B5B6903F093
:100F50001003FB60334B5B6803F40073BB60314BE1
:100F60005B6803F480637B60BB68002B0AD0FB687E
:100F7000002B07D02B4B2B4A1B68136000212948FC
:100F8000FFF772FF274B5B6903F00203FB60BB684E
:100F9000002B12D0FB68002B0FD0224B9B6903F073
:100FA0000103002B09D11F4B5B693B601D4B9B6903
:100FB0003B6001211B48FFF757FF1A4B5B6903F0A9
:100FC0008003FB60BB68002B0FD07B68002B0CD02C
:100FD000FB68002B09D0134B9B6903F00103002B26
:100FE00003D102210F48FFF73FFF0E4B5B6903F06F
:100FF0004003FB60BB68002B0FD07B68002B0CD03C
:10100000FB68002B09D0074B9B6903F00103002B01
:1010100003D103210348FFF727FF00BF1037BD4668
:1010200080BD00BF0054004080B582B000AF134BBC
:101030009B685B0803F00103DAB23B7962F30003BB
:101040003B710E4B9B6803F00103DAB23B7962F30C
:1010500041033B71094B9B681B0903F00103DAB2A2
:101060003B7962F382033B71054B1B689B693879BE
:10107000984700BF0837BD4680BD00BF0030014023
:101080005400002080B582B000AF134B9B685B0812
:1010900003F00103DAB23B7962F300033B710E4BBC
:1010A0009B6803F00103DAB23B7962F341033B71C1
:1010B000094B9B681B0903F00103DAB23B7962F329
:1010C00082033B71054B5B689B693879984700BF89
:1010D0000837BD4680BD00BF0038004054000020E6
:1010E00080B582B000AF0123BB714023BB803B1DA4
:1010F00019460B48FFF739FE0A4B07229A62094B43
:101100004FF6FF72DA62074B31229A61054B1B6A78
:10111000044A43F00103136200BF0837BD4680BD97
:10112000000C01400008004098B500AF204B0122A0
:101130001A601F4B1B6A1E4A43F00203136200BF72
:101140001B4B1B6903F00203002BF9D0184B002244
:101150001A61174B00225A62154B1B6A144A23F07E
:101160000203136200BF124B1B6903F00203002B42
:10117000F9D00F4B00221A610D4B00221A600C4B64
:101180005B6B1846FFF736F907A3D3E90023FFF797
:10119000ABF903460C4618462146FFF7B7FB03465A
:1011A000184698BDAFF300808DEDB5A0F7C6B03EF0
:1011B0000008004080B500AF024B1B68DB68984711
:1011C00000BF80BD5C00002080B500AF024B5B68B3
:1011D000DB68984700BF80BD5C00002080B500AF91
:1011E000024B9B68DB68984700BF80BD5C00002015
:1011F00070B500250C4E0D4CA41BA410A54209D1BE
:1012000000F01AF800250A4E0A4CA41BA410A542AF
:1012100005D170BD56F8253098470135EEE756F8F0
:10122000253098470135F2E75012000850120008A7
:101230005012000854120008F8B500BFF8BC08BCF2
:101240009E467047F8B500BFF8BC08BC9E46704784
:04125000550100083C
:04125400310100085C
:0400000508000A31B4
:00000001FF
