:020000040800F2
:1000000000280020D1030008210400082104000872
:100010002104000821040008210400080000000059
:1000200000000000000000000000000021040008A3
:100030002104000800000000210400082104000839
:1000400021040008210400082104000821040008FC
:1000500021040008210400082504000849040008C0
:100060006D04000891040008B5040008210400088C
:1000700021040008210400082104000821040008CC
:1000800021040008210400082104000821040008BC
:10009000210400082104000821040008D9040008F4
:1000A000210400082104000821040008210400089C
:1000B0002104000821040008210400088D0900081B
:1000C000210400082104000821040008750A000822
:1000D000D10A0008550E0008690E00087D0E0008C0
:1000E0008105000821040008000000002104000828
:1000F000210400082104000821040008210400084C
:10010000210400082104000821040008210400083B
:10011000210400082104000821040008210400082B
:10012000210400082104000821040008210400081B
:1001300010B5054C237833B9044B13B10448AFF321
:1001400000800123237010BD00000020000000008B
:10015000D80E000808B5034B1BB103490348AFF3A1
:10016000008008BD0000000004000020D80E000838
:1001700080B500AF224B04229A70214B0122DA7025
:100180001F4B4FF480621A801D491E4800F012FB7D
:100190001B4B4FF400721A8019491A4800F00AFBF1
:1001A000174B4FF400621A801549164800F002FB05
:1001B000134B4FF480521A801149124800F0FAFA9A
:1001C0000F4B08221A800E490F4800F0F3FA0C4B2F
:1001D00010221A800A490C4800F0ECFA084B8022E1
:1001E0001A800749084800F0E5FA054B4FF4807281
:1001F0001A800349044800F0DDFA00BF80BD00BF4B
:100200002C00002000080140000C014080B500AF28
:10021000164B00221A80154B00225A80134B0722DE
:100220009A80124B44F620629A60104B42F2107290
:10023000DA6000220D494FF0804000F077FC012287
:100240000A494FF0804000F071FC022207494FF04C
:10025000804000F06BFC032204494FF0804000F026
:1002600065FCFFF785FF00BF80BD00BF1C000020BC
:1002700080B582B000AF03460A46FB8013467B710F
:10028000FB881A46920013441A4691001A460B4600
:100290001344DB009BB2C3F59C4320339BB2002286
:1002A00019464FF0804000F0A1FDFB881A469200ED
:1002B00013441A4691001A460B461344DB009BB2C6
:1002C000C3F59C4320339BB2012219464FF0804076
:1002D00000F08CFDFB881A46920013441A469100E8
:1002E0001A460B461344DB009BB2C3F59C432033F4
:1002F0009BB2022219464FF0804000F077FDFB8848
:100300001A46920013441A4691001A460B461344AB
:10031000DB009BB2C3F59C4320339BB203221946FA
:100320004FF0804000F062FD00BF0837BD4680BD41
:1003300080B400AF194B9B69184A43F004039361E2
:10034000164B9B69154A43F008039361134B9B6955
:10035000124A43F010039361104B9B690F4A43F01C
:10036000010393610D4BDB690C4A43F00103D36138
:100370000A4BDB69094A43F00203D361074BDB698F
:10038000064A43F00403D361044B9B69034A43F4D8
:100390000073936100BFBD4680BC704700100240EF
:1003A00080B584B000AFFFF7C3FF0023FB810023BB
:1003B000BB8100237B8100233B810023FB80002342
:1003C000BB80FFF723FF0A212820FFF751FFFAE740
:1003D0000D488546AFF300800C480D490D4A0023B7
:1003E00002E0D458C4500433C4188C42F9D30A4AEA
:1003F0000A4C002301E013600432A242FBD300F058
:1004000047FDFFF7CDFFFEE7002800200000002099
:1004100000000020F80E000800000020B8000020B6
:10042000FEE7000080B500AF054B5B69044A43F06E
:1004300001035361034B1B68984700BF80BD00BF99
:10044000000401403000002080B500AF054B5B691F
:10045000044A43F002035361034B5B68984700BFB3
:1004600080BD00BF000401403000002080B500AF17
:10047000054B5B69044A43F004035361034B9B68DB
:10048000984700BF80BD00BF00040140300000203D
:1004900080B500AF054B5B69044A43F00803536124
:1004A000034BDB68984700BF80BD00BF00040140DC
:1004B0003000002080B500AF054B5B69044A43F073
:1004C00010035361034B1B69984700BF80BD00BFF9
:1004D000000401403000002080B500AF264B5B696E
:1004E00003F02003002B08D0234B5B69224A43F022
:1004F00020035361214B5B6998471F4B5B6903F0F5
:100500004003002B08D01C4B5B691B4A43F040039F
:1005100053611A4B9B699847174B5B6903F0800343
:10052000002B08D0144B5B69134A43F080035361DE
:10053000124BDB699847104B5B6903F48073002B07
:1005400008D00D4B5B690C4A43F4807353610B4B2D
:100550001B6A9847084B5B6903F40073002B08D0B3
:10056000054B5B69044A43F400735361034B5B6AB8
:10057000984700BF80BD00BF00040140300000204C
:1005800080B500AF2D4B5B6903F48063002B08D06E
:100590002A4B5B69294A43F480635361284B9B6A69
:1005A0009847264B5B6903F40063002B08D0234B6C
:1005B0005B69224A43F400635361214BDB6A98472D
:1005C0001E4B5B6903F48053002B08D01B4B5B6907
:1005D0001A4A43F480535361194B1B6B9847174BCE
:1005E0005B6903F40053002B08D0144B5B69134A7A
:1005F00043F400535361124B5B6B98470F4B5B699D
:1006000003F48043002B08D00C4B5B690B4A43F486
:10061000804353610A4B9B6B9847084B5B6903F41B
:100620000043002B08D0054B5B69044A43F40043A8
:100630005361034BDB6B984700BF80BD0004014052
:100640003000002080B483B000AF0346FB80FB88FD
:10065000B3F5004F00F0A580B3F5004F00F3A38081
:10066000B3F5804F00F09B80B3F5804F00F39B8083
:10067000B3F5005F00F09180B3F5005F00F3938065
:10068000B3F5805F00F08780B3F5805F00F38B8067
:10069000B3F5006F7DD0B3F5006F00F38480B3F540
:1006A000806F74D0B3F5806F7DDCB3F5007F6CD0C4
:1006B000B3F5007F77DCB3F5807F64D0B3F5807F3E
:1006C00071DC802B5DD0802B6DDC202B48DC002B77
:1006D00069DD013B1F2B66D801A252F823F000BF51
:1006E000670700086B070008A70700086F070008E6
:1006F000A7070008A7070008A70700087307000856
:10070000A7070008A7070008A7070008A707000811
:10071000A7070008A7070008A70700087707000831
:10072000A7070008A7070008A7070008A7070008F1
:10073000A7070008A7070008A7070008A7070008E1
:10074000A7070008A7070008A7070008A7070008D1
:10075000A7070008A7070008A70700087B070008ED
:10076000402B0CD01FE000231EE004231CE00823D4
:100770001AE00C2318E0102316E0142314E01823C9
:1007800012E01C2310E000230EE004230CE00823F9
:100790000AE00C2308E0102306E0142304E01823E9
:1007A00002E01C2300E0002318460C37BD4680BC45
:1007B000704700BF90B585B000AF78603960002306
:1007C000BB600023FB733B681B88FF2B01D87B6851
:1007D00001E07B680433BB603B681B881846FFF769
:1007E00031FF03461A460F239340DA43BB681B6868
:1007F0001A40BB681A603B689B78072B0BD03B689C
:100800009B78062B07D03B689B78052B03D03B6871
:100810009B78042B0ED13B689B78043B9B005AB21B
:100820003B68DB785BB213435BB2DBB203F00F03D0
:10083000FB732CE03B689B78012B03D03B689B78D3
:10084000002B07D13B689B789B00DBB203F00F03C2
:10085000FB731CE03B689B78082B02D10423FB73DD
:1008600015E00823FB733B689B78022B07D17B685C
:10087000DB683A6812881A437B68DA6007E07B68B5
:10088000DB683A681288D2431A407B68DA60FC7BE6
:100890003B681B881846FFF7D5FE034604FA03F2AF
:1008A000BB681B681A43BB681A6000BF1437BD469B
:1008B00090BD000080B584B000AF78600B46FB703F
:1008C0007B68304A934214BF01230023DBB2FB73E1
:1008D000FB78032B51D801A252F823F0ED08000851
:1008E00011090008290900084D0900087B689B6967
:1008F00003F00403002B3BD0FA7B23491346DB00B3
:100900009B1A9B000B4418331B68002098472FE06C
:10091000FA7B1D491346DB009B1A9B000B441833DE
:100920001B680120984728E07B689B6903F004035B
:10093000002B1FD0FA7B14491346DB009B1A9B0047
:100940000B4418331B680220984713E07B689B69AF
:1009500003F00403002B0FD1FA7B0B491346DB0095
:100960009B1A9B000B4418331B680320984703E035
:1009700000BF02E000BF00E000BF00BF1037BD466F
:1009800080BD00BF005400406C00002080B584B0E2
:1009900000AF00233B60364B5B6903F01003FB6044
:1009A000334B5B6803F40073BB60314B5B6803F44B
:1009B00080637B60BB68002B0AD0FB68002B07D0EC
:1009C0002B4B2B4A1B68136000212948FFF772FF4D
:1009D000274B5B6903F00203FB60BB68002B12D05E
:1009E000FB68002B0FD0224B9B6903F00103002B07
:1009F00009D11F4B5B693B601D4B9B693B6001212B
:100A00001B48FFF757FF1A4B5B6903F08003FB603D
:100A1000BB68002B0FD07B68002B0CD0FB68002B31
:100A200009D0134B9B6903F00103002B03D1022172
:100A30000F48FFF73FFF0E4B5B6903F04003FB607D
:100A4000BB68002B0FD07B68002B0CD0FB68002B01
:100A500009D0074B9B6903F00103002B03D103214D
:100A60000348FFF727FF00BF1037BD4680BD00BF1A
:100A70000054004080B582B000AF134B9B685B0808
:100A800003F00103DAB23B7962F300033B710E4BD2
:100A90009B6803F00103DAB23B7962F341033B71D7
:100AA000094B9B681B0903F00103DAB23B7962F33F
:100AB00082033B71054B1B689B693879984700BFDF
:100AC0000837BD4680BD00BF00300140A4000020B3
:100AD00080B582B000AF134B9B685B0803F0010345
:100AE000DAB23B7962F300033B710E4B9B6803F073
:100AF0000103DAB23B7962F341033B71094B9B6816
:100B00001B0903F00103DAB23B7962F382033B7104
:100B1000054B5B689B693879984700BF0837BD462D
:100B200080BD00BF00380040A400002080B586B022
:100B300000AFF860B9601346FB71FB6881221A6050
:100B4000BB681B88022B00F0D380FB68B3F1804F99
:100B500031D1A04BDB699F4A43F00103D3610623E7
:100B6000BB750123FB75FB79032B17D801A252F843
:100B700023F000BF850B00088B0B0008910B0008C9
:100B8000970B00080123BB8208E00223BB8205E02B
:100B90000423BB8202E00823BB8200BF07F11403D9
:100BA00019468D48FFF706FE8C4B1B688B4A43F0B5
:100BB0008053136072E0FB68894A93423DD106235B
:100BC000BB750123FB75FB79032B2FD801A252F8CB
:100BD00023F000BFE50B0008F70B0008090C000824
:100BE0001B0C00084023BB8207F1140319467A4806
:100BF000FFF7E0FD1AE08023BB8207F114031946DA
:100C00007548FFF7D7FD11E00123BB8207F11403FC
:100C100019467448FFF7CEFD08E00223BB8207F1B6
:100C2000140319466F48FFF7C5FD00BF6B4B1B68E7
:100C30006A4A43F08053136030E0FB686A4A93428B
:100C40002CD10623BB750123FB75FB79032B19D827
:100C500001A252F823F000BF690C00086F0C0008D5
:100C6000750C00087D0C00084023BB820AE080233D
:100C7000BB8207E04FF48073BB8203E04FF4007344
:100C8000BB8200BF07F1140319465648FFF792FDD7
:100C9000524B1B68514A43F080431360FB79032B8E
:100CA00050D801A252F823F0B90C0008C70C000874
:100CB000D50C0008E30C0008FB689B6943F0780240
:100CC000FB689A613EE0FB689B6943F4F042FB6875
:100CD0009A6137E0FB68DB6943F07802FB68DA6110
:100CE00030E0FB68DB6943F4F042FB68DA6129E03D
:100CF000FB79032B26D801A252F823F00D0D000832
:100D00001B0D0008290D0008370D0008FB689B69C2
:100D100023F07802FB689A6114E0FB689B6923F476
:100D2000F042FB689A610DE0FB68DB6923F0780212
:100D3000FB68DA6106E0FB68DB6923F4F042FB68DC
:100D4000DA6100BFFB6844F62062DA62FB79032BAC
:100D500036D801A252F823F0690D00087F0D000873
:100D6000950D0008AB0D0008FB681B6A43F00302F9
:100D7000FB681A62FB6842F210725A6320E0FB685B
:100D80001B6A43F03002FB681A62FB6842F2107281
:100D90009A6315E0FB681B6A43F44072FB681A62B1
:100DA000FB6842F21072DA630AE0FB681B6A43F4E4
:100DB0004052FB681A62FB6842F210721A6400BF6C
:100DC000BB689B881A46FB689A6200BF1837BD460D
:100DD00080BD00BF001002400008014080E100E03B
:100DE00000040040000C01400008004080B483B0C3
:100DF00000AF78600B467B8013467B707B78032BBB
:100E00001AD801A252F823F0190E0008210E00088A
:100E1000290E0008310E00087A887B685A630BE0BF
:100E20007A887B689A6307E07A887B68DA6303E0F4
:100E30007A887B681A6400BF4FF080435B694FF08B
:100E4000804243F00103536100BF0C37BD4680BCB4
:100E5000704700BF80B500AF024B1B68DB68984746
:100E600000BF80BDAC00002080B500AF024B5B68C6
:100E7000DB68984700BF80BDAC00002080B500AFA4
:100E8000024B9B68DB68984700BF80BDAC00002028
:100E900070B500260C4D0D4C641BA410A64209D160
:100EA00000F01AF800260A4D0A4C641BA410A64252
:100EB00005D170BD55F8043B98470136EEE755F86B
:100EC000043B98470136F2E7F00E0008F00E0008E8
:100ED000F00E0008F40E0008F8B500BFF8BC08BC1E
:100EE0009E467047F8B500BFF8BC08BC9E467047E8
:040EF00055010008A0
:040EF40031010008C0
:04000005080003D11B
:00000001FF
