S01E000046697265666967687465722D526F626F745F436F64652E737265638A
S31508000000002800206D130008BD130008BD13000862
S31508000010BD130008BD130008BD130008000000004A
S31508000020000000000000000000000000BD130008EA
S31508000030BD13000800000000BD130008BD1300082A
S31508000040BD130008BD130008BD130008BD13000842
S31508000050BD130008BD13000835150008591500081A
S315080000607D150008A1150008C5150008BD13000870
S31508000070BD130008BD130008BD130008BD13000812
S31508000080BD130008BD130008BD130008BD13000802
S31508000090BD130008BD130008BD130008E9150008C4
S315080000A0BD130008BD130008BD130008BD130008E2
S315080000B0BD130008BD130008BD130008C91A0008BF
S315080000C0BD130008BD130008BD130008B11B0008C6
S315080000D00D1C00085D200008712000088520000816
S315080000E091160008BD13000800000000BD130008A3
S315080000F0BD130008BD130008BD130008BD13000892
S31508000100BD130008BD130008BD130008BD13000881
S31508000110BD130008BD130008BD130008BD13000871
S31508000120BD130008BD130008BD130008BD13000861
S3150800013010B5054C237833B9044B13B10448AFF313
S3150800014000800123237010BD040000200000000079
S31508000150E020000808B5034B1BB103490348AFF379
S31508000160008008BD0000000008000020E02000080C
S3150800017081F0004102E000BF83F0004330B54FEA4A
S3150800018041044FEA430594EA050F08BF90EA020FB7
S315080001901FBF54EA000C55EA020C7FEA645C7FEA4A
S315080001A0655C00F0E2804FEA5454D4EB5555B8BF6D
S315080001B06D420CDD2C4480EA020281EA030382EADE
S315080001C0000083EA010180EA020281EA0303362D70
S315080001D088BF30BD11F0004F4FEA01314FF4801C43
S315080001E04CEA113102D0404261EB410113F0004F55
S315080001F04FEA03334CEA133302D0524263EB43030C
S3150800020094EA050F00F0A780A4F10104D5F1200EA9
S315080002100DDB02FA0EFC22FA05F2801841F1000104
S3150800022003FA0EF2801843FA05F359410EE0A5F1D8
S3150800023020050EF1200E012A03FA0EFC28BF4CF009
S31508000240020C43FA05F3C01851EBE37101F00045BF
S3150800025007D54FF0000EDCF1000C7EEB00006EEBCC
S315080002600101B1F5801F1BD3B1F5001F0CD3490856
S315080002705FEA30004FEA3C0C04F101044FEA4452AD
S3150800028012F5800F80F09A80BCF1004F08BF5FEA34
S31508000290500C50F1000041EB045141EA050130BD14
S315080002A05FEA4C0C404141EB0101013C28BFB1F526
S315080002B0801FE9D291F0000F04BF01460020B1FA71
S315080002C081F308BF2033A3F10B03B3F120020CDA44
S315080002D00C3208DD02F1140CC2F10C0201FA0CF022
S315080002E021FA02F10CE002F11402D8BFC2F1200C87
S315080002F001FA02F120FA0CFCDCBF41EA0C0190403D
S31508000300E41AA2BF01EB0451294330BD6FEA040485
S315080003101F3C1CDA0C340EDC04F11404C4F1200270
S3150800032020FA04F001FA02F340EA030021FA04F382
S3150800033045EA030130BDC4F10C04C4F1200220FAD9
S3150800034002F001FA04F340EA0300294630BD21FA17
S3150800035004F0294630BD94F0000F83F4801306BFDD
S3150800036081F480110134013D4EE77FEA645C18BFD1
S315080003707FEA655C29D094EA050F08BF90EA020F68
S3150800038005D054EA000C04BF1946104630BD91EA60
S31508000390030F1EBF0021002030BD5FEA545C05D163
S315080003A04000494128BF41F0004130BD14F58004A2
S315080003B03CBF01F5801130BD01F0004545F0FE4116
S315080003C041F470014FF0000030BD7FEA645C1ABF4B
S315080003D0194610467FEA655C1CBF0B46024650EA82
S315080003E0013406BF52EA033591EA030F41F40021AE
S315080003F030BD00BF90F0000F04BF0021704730B534
S315080004004FF4806404F132044FF000054FF0000108
S3150800041050E700BF90F0000F04BF0021704730B5C9
S315080004204FF4806404F1320410F0004548BF40429E
S315080004304FF000013EE700BF42004FEAE2014FEAF3
S3150800044031014FEA02701FBF12F07F4393F07F4FCE
S3150800045081F06051704732F07F4208BF704793F0D1
S315080004607F4F04BF41F40021704730B54FF46074E4
S3150800047001F0004521F000411CE700BF50EA0102E7
S3150800048008BF704730B54FF000050AE050EA010290
S3150800049008BF704730B511F0004502D5404261EB00
S315080004A041014FF4806404F132045FEA915C3FF441
S315080004B0D8AE4FF003025FEADC0C18BF03325FEADE
S315080004C0DC0C18BF033202EBDC02C2F1200300FA8F
S315080004D003FC20FA02F001FA03FE40EA0E0021FAB4
S315080004E002F11444BDE600BF70B54FF0FF0C4CF4A2
S315080004F0E06C1CEA11541DBF1CEA135594EA0C0F54
S3150800050095EA0C0F00F0DEF82C4481EA030621EA8E
S315080005104C5123EA4C5350EA013518BF52EA0335C9
S3150800052041F4801143F4801338D0A0FB02CE4FF07B
S315080005300005E1FB02E506F00042E0FB03E54FF0AB
S315080005400006E1FB03569CF0000F18BF4EF0010EA3
S31508000550A4F1FF04B6F5007F64F5407404D25FEA9F
S315080005604E0E6D4146EB060642EAC62141EA555152
S315080005704FEAC52040EA5E504FEACE2EB4F1FD0C94
S3150800058088BFBCF5E06F1ED8BEF1004F08BF5FEA12
S31508000590500E50F1000041EB045170BD06F00046C4
S315080005A046EA010140EA020081EA0301B4EB5C0471
S315080005B0C2BFD4EB0C0541EA045170BD41F4801169
S315080005C04FF0000E013C00F3AB8014F1360FDEBF8E
S315080005D0002001F0004170BDC4F10004203C35DA6A
S315080005E00C341BDC04F11404C4F1200500FA05F3ED
S315080005F020FA04F001FA05F240EA020001F000428E
S3150800060021F0004110EBD37021FA04F642EB060103
S315080006105EEA430E08BF20EAD37070BDC4F10C042D
S31508000620C4F1200500FA04F320FA05F001FA04F2F1
S3150800063040EA020001F0004110EBD37041F10001DD
S315080006405EEA430E08BF20EAD37070BDC4F12005E8
S3150800065000FA05F24EEA020E20FA04F301FA05F250
S3150800066043EA020321FA04F001F0004121FA04F2F8
S3150800067020EA020000EBD3705EEA430E08BF20EAC8
S31508000680D37070BD94F0000F0FD101F00046400002
S3150800069041EB010111F4801F08BF013CF7D041EA84
S315080006A0060195F0000F18BF704703F00046520088
S315080006B043EB030313F4801F08BF013DF7D043EA59
S315080006C00603704794EA0C0F0CEA135518BF95EA0F
S315080006D00C0F0CD050EA410618BF52EA4306D1D196
S315080006E081EA030101F000414FF0000070BD50EAB5
S315080006F0410606BF1046194652EA430619D094EA3F
S315080007000C0F02D150EA013613D195EA0C0F05D128
S3150800071052EA03361CBF104619460AD181EA03017C
S3150800072001F0004141F0FE4141F470014FF0000034
S3150800073070BD41F0FE4141F4780170BD70B54FF0CF
S31508000740FF0C4CF4E06C1CEA11541DBF1CEA13554F
S3150800075094EA0C0F95EA0C0F00F0A7F8A4EB050431
S3150800076081EA030E52EA03354FEA013100F0888028
S315080007704FEA03334FF0805545EA131343EA1263F1
S315080007804FEA022245EA111545EA10654FEA0026A6
S315080007900EF000419D4208BF964244F1FD0404F55F
S315080007A0407402D25B084FEA3202B61A65EB0305BB
S315080007B05B084FEA32024FF480104FF4002CB6EB78
S315080007C0020E75EB030E22BFB61A754640EA0C00F8
S315080007D05B084FEA3202B6EB020E75EB030E22BF38
S315080007E0B61A754640EA5C005B084FEA3202B6EB79
S315080007F0020E75EB030E22BFB61A754640EA9C0038
S315080008005B084FEA3202B6EB020E75EB030E22BF07
S31508000810B61A754640EADC0055EA060E18D04FEAC5
S31508000820051545EA16754FEA06164FEAC30343EA65
S3150800083052734FEAC2025FEA1C1CC0D111F4801F32
S315080008400BD141EA00014FF000004FF0004CB6E72B
S3150800085011F4801F04BF01430020B4F1FD0C88BFCA
S31508000860BCF5E06F3FF6AFAEB5EB030C04BFB6EBD5
S31508000870020C5FEA500C50F1000041EB045170BDC8
S315080008800EF0004E4EEA113114EB5C04C2BFD4EBF5
S315080008900C0541EA045170BD41F480114FF0000E79
S315080008A0013C90E645EA060E8DE60CEA135594EAF5
S315080008B00C0F08BF95EA0C0F3FF43BAF94EA0C0FF8
S315080008C00AD150EA01347FF434AF95EA0C0F7FF46D
S315080008D025AF104619462CE795EA0C0F06D152EAC1
S315080008E003353FF4FDAE1046194622E750EA4106A5
S315080008F018BF52EA43067FF4C5AE50EA41047FF4B6
S315080009000DAF52EA43057FF4EBAE12E74FEA410218
S31508000910B2F1E04324BFB3F5001CDCF1FE5C0DD94F
S3150800092001F0004C4FEAC0024CEA5070B2F1004F99
S3150800093040EB830008BF20F00100704711F0804F9C
S3150800094021D113F13872BCBF01F00040704741F461
S3150800095080114FEA5252C2F11802C2F1200C10FA65
S315080009600CF320FA02F018BF40F001004FEAC12349
S315080009704FEAD32303FA0CFC40EA0C0023FA02F3ED
S315080009804FEA4303CCE77FEA625307D150EA0133C3
S315080009901EBF4FF0FE4040F44000704701F0004093
S315080009A040F0FE4040F40000704700BF80F0004071
S315080009B002E000BF81F0004142001FBF5FEA410329
S315080009C092EA030F7FEA226C7FEA236C6AD04FEA29
S315080009D01262D2EB1363C1BFD2184140484041406E
S315080009E0B8BF5B42192B88BF704710F0004F40F420
S315080009F0000020F07F4018BF404211F0004F41F43C
S31508000A00000121F07F4118BF494292EA030F3FD007
S31508000A10A2F1010241FA03FC10EB0C00C3F120031A
S31508000A2001FA03F100F0004302D5494260EB4000A9
S31508000A30B0F5000F13D3B0F1807F06D340084FEA14
S31508000A40310102F10102FE2A51D2B1F1004F40EB09
S31508000A50C25008BF20F0010040EA03007047490071
S31508000A6040EB0000013A28BFB0F5000FEDD2B0FA0E
S31508000A7080FCACF1080CB2EB0C0200FA0CF0AABF31
S31508000A8000EBC25052421843BCBFD04018437047CF
S31508000A9092F0000F81F4000106BF80F400000132D5
S31508000AA0013BB5E74FEA41037FEA226C18BF7FEAAC
S31508000AB0236C21D092EA030F04D092F0000F08BFEE
S31508000AC00846704790EA010F1CBF0020704712F0D5
S31508000AD07F4F04D1400028BF40F00040704712F114
S31508000AE000723CBF00F50000704700F0004343F079
S31508000AF0FE4040F4000070477FEA226216BF0846AF
S31508000B007FEA23630146420206BF5FEA412390EA71
S31508000B10010F40F4800070474FF0000304E000BF67
S31508000B2010F0004348BF40425FEA000C08BF704718
S31508000B3043F0964301464FF000001CE050EA0102DC
S31508000B4008BF70474FF000030AE000BF50EA0102F1
S31508000B5008BF704711F0004302D5404261EB4101DE
S31508000B605FEA010C02BF84460146002043F0B64303
S31508000B7008BFA3F18053A3F50003BCFA8CF2083A28
S31508000B80A3EBC25310DB01FA02FC634400FA02FC31
S31508000B90C2F12002BCF1004F20FA02F243EB020038
S31508000BA008BF20F00100704702F1200201FA02FC9A
S31508000BB0C2F1200250EA4C0021FA02F243EB02008D
S31508000BC008BF20EADC7070474FF0FF3C06E000BF24
S31508000BD04FF0010C02E000BF4FF0010C4DF804CDB8
S31508000BE04FEA40024FEA41037FEA226C18BF7FEAC8
S31508000BF0236C11D001B052EA530C18BF90EA010FCA
S31508000C0058BFB2EB030088BFC81738BF6FEAE17058
S31508000C1018BF40F0010070477FEA226C02D15FEAF4
S31508000C20402C05D17FEA236CE4D15FEA412CE1D060
S31508000C305DF8040B704700BF844608466146FFE727
S31508000C400FB5FFF7C9FF002848BF10F1000F0FBD09
S31508000C504DF808EDFFF7F4FF0CBF012000205DF802
S31508000C6008FB00BF4DF808EDFFF7EAFF34BF012087
S31508000C7000205DF808FB00BF4DF808EDFFF7E0FF20
S31508000C8094BF012000205DF808FB00BF4DF808ED71
S31508000C90FFF7D2FF94BF012000205DF808FB00BFD4
S31508000CA04DF808EDFFF7C8FF34BF012000205DF8B6
S31508000CB008FB00BF80B500AF124B04229A70114B97
S31508000CC00122DA700F4B4FF480721A800D490E48D4
S31508000CD000F0F8FD0B4B4FF400721A8009490A48D8
S31508000CE000F0F0FD074B80221A800649064800F0FE
S31508000CF0E9FD044B40221A800249034800F0E2FD50
S31508000D0000BF80BD30000020000C014080B500AF58
S31508000D100C4B00221A800B4B00225A80094B0722E3
S31508000D209A80012207494FF0804000F09DFF032278
S31508000D3004494FF0804000F097FFFFF7BBFF00BF64
S31508000D4080BD00BF2000002080B582B000AF0346FA
S31508000D503960FB71FB79002B28D1012280212B48B1
S31508000D6000F02FFE00224021284800F02AFE00222B
S31508000D704FF40071254800F024FE01224FF48071DB
S31508000D80224800F01EFE032243F2B0614FF0804075
S31508000D9001F032F9012243F2B0614FF0804001F0D0
S31508000DA02BF93B68184600F00BFB2AE0FB79012B70
S31508000DB027D100224FF48071144800F002FE012268
S31508000DC04FF40071114800F0FCFD012240210F4844
S31508000DD000F0F7FD002280210C4800F0F2FD012208
S31508000DE043F2B0614FF0804001F006F9032243F266
S31508000DF0B0614FF0804001F0FFF83B68184600F0FC
S31508000E00DFFA00BF0837BD4680BD00BF000C0140B1
S31508000E1080B582B000AF03463960FB7100224FF4FB
S31508000E208071234800F0CDFD01224FF4007120485F
S31508000E3000F0C7FD012280211D4800F0C2FD0022F6
S31508000E4040211B4800F0BDFDFB799BB21A46920073
S31508000E5013441A4691001A460B461344DB009BB20C
S31508000E60C3F59C4320339BB2012219464FF08040BC
S31508000E7001F0C2F8FB799BB21A46920013441A464F
S31508000E8091001A460B461344DB009BB2C3F59C43FC
S31508000E9020339BB2032219464FF0804001F0ACF88C
S31508000EA03B68184600F08CFA00BF0837BD4680BD7F
S31508000EB0000C014080B582B000AF0023BB7101234E
S31508000EC0BB803B1D19464A4800F0FCFC0023BB7159
S31508000ED00423BB803B1D1946454800F0F3FC00235C
S31508000EE0BB711023BB803B1D1946414800F0EAFC44
S31508000EF00023BB712023BB803B1D19463C4800F0EC
S31508000F00E1FC0023BB718023BB803B1D1946384892
S31508000F1000F0D8FC0023BB710123BB803B1D19469A
S31508000F20344800F0CFFC344B00221A60324B6FF481
S31508000F3000629A60304B00221A612F4B00221A7108
S31508000F402D4800F067FA2C4B00221A602A4B6FF4E2
S31508000F5000629A60284B00221A61274B02221A71F6
S31508000F60254800F057FA244B00221A60224B6FF4EA
S31508000F7000629A60204B00221A611F4B04221A71E4
S31508000F801D4800F047FA1C4B00221A601A4B6FF4F2
S31508000F9000629A60184B00221A61174B05221A71D3
S31508000FA0154800F037FA144B00221A60124B6FF4FA
S31508000FB000629A60104B00221A610F4B06221A71C2
S31508000FC00D4800F027FA0C4B00221A600A4B6FF402
S31508000FD000629A60084B00221A61074B07221A71B1
S31508000FE0054800F017FA00BF0837BD4680BD00BFA8
S31508000FF000080140000C01403400002080B500AF15
S31508001000002000F077FA0346184680BD80B500AF89
S31508001010022000F06FFA0346184680BD80B500AF7F
S31508001020042000F067FA0346184680BD80B500AF75
S31508001030052000F05FFA0346184680BD80B500AF6C
S31508001040062000F057FA0346184680BD80B500AF63
S31508001050082000F04FFA0346184680BD80B500AF59
S3150800106000F062FF074B04229A70064B0122DA70E1
S31508001070044B20221A800349034800F023FC00BFD2
S3150800108080BD00BF4C000020000C0140000000009D
S3150800109080B582B000AF4FF000037B6001222021AB
S315080010A0134800F08EFC0A2000F08AF9002220215D
S315080010B00F4800F086FC00F05FFF03461846FFF76E
S315080010C0BBF909A3D3E90023FFF738FB02460B4611
S315080010D010461946FFF71AFC03467B607B681846DC
S315080010E00837BD4680BD00BF6666666666264D4003
S315080010F0000C014080B400AF194B9B69184A43F0B5
S3150800110004039361164B9B69154A43F008039361E0
S31508001110134B9B69124A43F010039361104B9B696A
S315080011200F4A43F0010393610D4BDB690C4A43F008
S315080011300103D3610A4BDB69094A43F00203D36111
S31508001140074BDB69064A43F00403D361044B9B69EA
S31508001150034A43F40073936100BFBD4680BC7047E1
S315080011600010024080B586B000AFFFF747FF034680
S31508001170283B7B61FFF74AFF0346283B3B61FFF7A5
S315080011804DFF0346283BFB60FFF750FF0346283B0D
S31508001190BB60FFF753FF0346283B7B60FFF756FF0C
S315080011A00346283B3B607A693B699A4211DD7A69B6
S315080011B0FB689A420DDD7A69BB689A4209DD7A694D
S315080011C07B689A4205DD7A693B689A4201DD00230D
S315080011D030E03A69FB689A420DDD3A69BB689A4283
S315080011E009DD3A697B689A4205DD3A693B689A42A5
S315080011F001DD02231EE0FA68BB689A4209DDFA6837
S315080012007B689A4205DDFA683B689A4201DD01234C
S3150800121010E0BA687B689A4205DDBA683B689A426C
S3150800122001DD052306E07A683B689A4201DD03235F
S3150800123000E0042318461837BD4680BD80B582B045
S3150800124000AF0346FB71FB79013B042B1FD801A2B3
S3150800125052F823F07112000885120008851200085A
S31508001260711200088512000832210120FFF76CFD73
S31508001270FFF778FF0346002BF6D103E03221002062
S31508001280FFF762FDFFF76EFF0346002BF6D100BF9E
S315080012900837BD4680BD00BF98B500AF03E03221D0
S315080012A04620FFF7B5FDFFF7F3FE03460122144675
S315080012B00B491846FFF7E0FC0346002B01D1002333
S315080012C01C46E3B283F00103DBB2002BE7D100BF73
S315080012D0FFF794FE0346272BFADC00BF00BF98BD34
S315080012E00000204280B500AFFFF7E4FDFFF70EFDD2
S315080012F0FFF7B4FE00BF80BD80B582B000AFFFF730
S31508001300F9FEFFF7EFFFFFF779FE0346272B18DCF8
S31508001310FFF77CFE0346272B13DCFFF77FFE034609
S31508001320272B0EDCFFF782FE0346272B09DCFFF787
S3150800133085FE0346272B04DCFFF788FE0346272B8A
S3150800134001DD012300E00023FB71FB79002BDAD1D4
S31508001350FFF708FF03461846FFF770FFFFF79CFFE5
S31508001360014B01221A60CEE7000000200D48854691
S31508001370AFF300800C480D490D4A002302E0D4580B
S31508001380C4500433C4188C42F9D30A4A0A4C0023C1
S3150800139001E013600432A242FBD300F07DFEFFF7A2
S315080013A0ABFFFEE700280020000000200400002014
S315080013B00021000804000020D8000020FEE70000F5
S315080013C080B483B000AF7860114B41F63F729A62E1
S315080013D07B685A1E0E4BDA620D4B1B680C4A43F0AB
S315080013E00103136000BF0A4B1B6903F00103002BBE
S315080013F0F9D0074B00221A61054B00221A60044BEC
S3150800140000225A6200BF0C37BD4680BC704700BF39
S315080014100008004080B483B000AF78607B689B68A2
S31508001420B3F5006F05D1304B9B682F4A43F4006330
S3150800143093607B681B68022B05D12B4B9B682A4A55
S3150800144043F0020393607B681B69002B23D07B68FB
S315080014501B79092B0FD8244BDA687B6819697B68D6
S315080014601B79184603465B00034401FA03F31E4939
S315080014701343CB600FE01C4B19697B6818697B68BE
S315080014801B79A3F10A0213465B00134400FA03F31F
S31508001490154A0B4313617B68DB68202B0CD1124B72
S315080014A05B68114A43F020035360104B1B680F4AD0
S315080014B043F4802313600BE00B4B5B680A4A23F066
S315080014C0200353600A4B1B68094A43F480231360C0
S315080014D0054B9B68044A43F00103936000BF0C3731
S315080014E0BD4680BC704700BF0024014000E100E013
S315080014F080E100E080B485B000AF0346FB710C4A7A
S31508001500FB7953630A4B9B68094A43F001039360CE
S3150800151000BF074B1B6803F00203002BF9D0044BEE
S31508001520DB6CFB81FB8918461437BD4680BC7047C7
S315080015300024014080B500AF054B5B69044A43F0BF
S3150800154001035361034B1B68984700BF80BD00BF6A
S31508001550000401405000002080B500AF054B5B69D0
S31508001560044A43F002035361034B5B68984700BF84
S3150800157080BD00BF000401405000002080B500AFC8
S31508001580054B5B69044A43F004035361034B9B68AC
S31508001590984700BF80BD00BF0004014050000020EE
S315080015A080B500AF054B5B69044A43F008035361F5
S315080015B0034BDB68984700BF80BD00BF00040140AD
S315080015C05000002080B500AF054B5B69044A43F024
S315080015D010035361034B1B69984700BF80BD00BFCA
S315080015E0000401405000002080B500AF264B5B691F
S315080015F003F02003002B08D0234B5B69224A43F0F3
S3150800160020035361214B5B6998471F4B5B6903F0C5
S315080016104003002B08D01C4B5B691B4A43F0400370
S3150800162053611A4B9B699847174B5B6903F0800314
S31508001630002B08D0144B5B69134A43F080035361AF
S31508001640124BDB699847104B5B6903F48073002BD8
S3150800165008D00D4B5B690C4A43F4807353610B4BFE
S315080016601B6A9847084B5B6903F40073002B08D084
S31508001670054B5B69044A43F400735361034B5B6A89
S31508001680984700BF80BD00BF0004014050000020FD
S3150800169080B500AF2D4B5B6903F48063002B08D03F
S315080016A02A4B5B69294A43F480635361284B9B6A3A
S315080016B09847264B5B6903F40063002B08D0234B3D
S315080016C05B69224A43F400635361214BDB6A9847FE
S315080016D01E4B5B6903F48053002B08D01B4B5B69D8
S315080016E01A4A43F480535361194B1B6B9847174B9F
S315080016F05B6903F40053002B08D0144B5B69134A4B
S3150800170043F400535361124B5B6B98470F4B5B696D
S3150800171003F48043002B08D00C4B5B690B4A43F457
S31508001720804353610A4B9B6B9847084B5B6903F4EC
S315080017300043002B08D0054B5B69044A43F4004379
S315080017405361034BDB6B984700BF80BD0004014023
S315080017505000002080B483B000AF0346FB80FB88AE
S31508001760B3F5004F00F0A580B3F5004F00F3A38052
S31508001770B3F5804F00F09B80B3F5804F00F39B8054
S31508001780B3F5005F00F09180B3F5005F00F3938036
S31508001790B3F5805F00F08780B3F5805F00F38B8038
S315080017A0B3F5006F7DD0B3F5006F00F38480B3F511
S315080017B0806F74D0B3F5806F7DDCB3F5007F6CD095
S315080017C0B3F5007F77DCB3F5807F64D0B3F5807F0F
S315080017D071DC802B5DD0802B6DDC202B48DC002B48
S315080017E069DD013B1F2B66D801A252F823F000BF22
S315080017F0771800087B180008B71800087F18000833
S31508001800B7180008B7180008B718000883180008A2
S31508001810B7180008B7180008B7180008B71800085E
S31508001820B7180008B7180008B7180008871800087E
S31508001830B7180008B7180008B7180008B71800083E
S31508001840B7180008B7180008B7180008B71800082E
S31508001850B7180008B7180008B7180008B71800081E
S31508001860B7180008B7180008B71800088B1800083A
S31508001870402B0CD01FE000231EE004231CE00823A5
S315080018801AE00C2318E0102316E0142314E018239A
S3150800189012E01C2310E000230EE004230CE00823CA
S315080018A00AE00C2308E0102306E0142304E01823BA
S315080018B002E01C2300E0002318460C37BD4680BC16
S315080018C0704700BF90B585B000AF786039600023D7
S315080018D0BB600023FB733B681B88FF2B01D87B6822
S315080018E001E07B680433BB603B681B881846FFF73A
S315080018F031FF03461A460F239340DA43BB681B6839
S315080019001A40BB681A603B689B78072B0BD03B686C
S315080019109B78062B07D03B689B78052B03D03B6842
S315080019209B78042B0ED13B689B78043B9B005AB2EC
S315080019303B68DB785BB213435BB2DBB203F00F03A1
S31508001940FB732CE03B689B78012B03D03B689B78A4
S31508001950002B07D13B689B789B00DBB203F00F0393
S31508001960FB731CE03B689B78082B02D10423FB73AE
S3150800197015E00823FB733B689B78022B07D17B682D
S31508001980DB683A6812881A437B68DA6007E07B6886
S31508001990DB683A681288D2431A407B68DA60FC7BB7
S315080019A03B681B881846FFF7D5FE034604FA03F280
S315080019B0BB681B681A43BB681A6000BF1437BD466C
S315080019C090BD80B483B000AF78600B467B80134629
S315080019D07B707B78002B03D07A887B681A6102E0DB
S315080019E07A887B685A6100BF0C37BD4680BC704751
S315080019F080B584B000AF78600B46FB707B68304AD0
S31508001A00934214BF01230023DBB2FB73FB78032B3D
S31508001A1051D801A252F823F0291A00084D1A0008D5
S31508001A20651A0008891A00087B689B6903F0040395
S31508001A30002B3BD0FA7B23491346DB009B1A9B00FD
S31508001A400B4418331B68002098472FE0FA7B1D4982
S31508001A501346DB009B1A9B000B4418331B680120B6
S31508001A60984728E07B689B6903F00403002B1FD086
S31508001A70FA7B14491346DB009B1A9B000B44183368
S31508001A801B680220984713E07B689B6903F00403F0
S31508001A90002B0FD1FA7B0B491346DB009B1A9B00E0
S31508001AA00B4418331B680320984703E000BF02E085
S31508001AB000BF00E000BF00BF1037BD4680BD00BFB5
S31508001AC0005400408C00002080B584B000AF00238D
S31508001AD03B60364B5B6903F01003FB60334B5B6876
S31508001AE003F40073BB60314B5B6803F480637B606F
S31508001AF0BB68002B0AD0FB68002B07D02B4B2B4A60
S31508001B001B68136000212948FFF772FF274B5B69A2
S31508001B1003F00203FB60BB68002B12D0FB68002BA6
S31508001B200FD0224B9B6903F00103002B09D11F4BF1
S31508001B305B693B601D4B9B693B6001211B48FFF7B6
S31508001B4057FF1A4B5B6903F08003FB60BB68002BE9
S31508001B500FD07B68002B0CD0FB68002B09D0134BE9
S31508001B609B6903F00103002B03D102210F48FFF7FD
S31508001B703FFF0E4B5B6903F04003FB60BB68002B1D
S31508001B800FD07B68002B0CD0FB68002B09D0074BC5
S31508001B909B6903F00103002B03D103210348FFF7D8
S31508001BA027FF00BF1037BD4680BD00BF0054004068
S31508001BB080B582B000AF134B9B685B0803F0010346
S31508001BC0DAB23B7962F300033B710E4B9B6803F074
S31508001BD00103DAB23B7962F341033B71094B9B6817
S31508001BE01B0903F00103DAB23B7962F382033B7106
S31508001BF0054B1B689B693879984700BF0837BD466F
S31508001C0080BD00BF00300140C400002080B582B00E
S31508001C1000AF134B9B685B0803F00103DAB23B790C
S31508001C2062F300033B710E4B9B6803F00103DAB2C3
S31508001C303B7962F341033B71094B9B681B0903F02F
S31508001C400103DAB23B7962F382033B71054B5B68A9
S31508001C509B693879984700BF0837BD4680BD00BFE5
S31508001C6000380040C400002080B586B000AFF86098
S31508001C70B9601346FB71FB6881221A60BB681B8832
S31508001C80022B00F0D380FB68B3F1804F31D1A04B13
S31508001C90DB699F4A43F00103D3610623BB75012321
S31508001CA0FB75FB79032B17D801A252F823F000BF66
S31508001CB0C11C0008C71C0008CD1C0008D31C00085E
S31508001CC00123BB8208E00223BB8205E00423BB8212
S31508001CD002E00823BB8200BF07F1140319468D48AA
S31508001CE0FFF7F0FD8C4B1B688B4A43F0805313605B
S31508001CF072E0FB68894A93423DD10623BB750123EE
S31508001D00FB75FB79032B2FD801A252F823F000BFED
S31508001D10211D0008331D0008451D0008571D000831
S31508001D204023BB8207F1140319467A48FFF7CAFD18
S31508001D301AE08023BB8207F1140319467548FFF79A
S31508001D40C1FD11E00123BB8207F11403194674484B
S31508001D50FFF7B8FD08E00223BB8207F11403194612
S31508001D606F48FFF7AFFD00BF6B4B1B686A4A43F02D
S31508001D708053136030E0FB686A4A93422CD10623ED
S31508001D80BB750123FB75FB79032B19D801A252F801
S31508001D9023F000BFA51D0008AB1D0008B11D0008F3
S31508001DA0B91D00084023BB820AE08023BB8207E0F6
S31508001DB04FF48073BB8203E04FF40073BB8200BF0D
S31508001DC007F1140319465648FFF77CFD524B1B686A
S31508001DD0514A43F080431360FB79032B50D801A284
S31508001DE052F823F0F51D0008031E0008111E00080E
S31508001DF01F1E0008FB689B6943F07802FB689A611E
S31508001E003EE0FB689B6943F4F042FB689A6137E061
S31508001E10FB68DB6943F07802FB68DA6130E0FB684F
S31508001E20DB6943F4F042FB68DA6129E0FB79032BAE
S31508001E3026D801A252F823F0491E0008571E0008AA
S31508001E40651E0008731E0008FB689B6923F078026C
S31508001E50FB689A6114E0FB689B6923F4F042FB680F
S31508001E609A610DE0FB68DB6923F07802FB68DA61AA
S31508001E7006E0FB68DB6923F4F042FB68DA6100BF21
S31508001E80FB79032B36D801A252F823F09D1E0008D1
S31508001E90B31E0008C91E0008DF1E0008FB681B6A7F
S31508001EA043F00102FB681A62FB6842F210725A6339
S31508001EB020E0FB681B6A43F01002FB681A62FB68A5
S31508001EC042F210729A6315E0FB681B6A43F480724B
S31508001ED0FB681A62FB6842F21072DA630AE0FB6872
S31508001EE01B6A43F48052FB681A62FB6842F210725E
S31508001EF01A6400BFBB689B881A46FB689A62FB682F
S31508001F0044F62062DA6200BF1837BD4680BD00BFBE
S31508001F10001002400008014080E100E00004004093
S31508001F20000C01400008004080B582B000AF104B9D
S31508001F3081221A600123BB714023BB803B1D1946D1
S31508001F400C48FFF7BFFC0A4B07229A62084B4FF66C
S31508001F50FF72DA62064B31229A61054B1B6A044A04
S31508001F6043F00103136200BF0837BD4680BD00BFBA
S31508001F70000400400008014080B582B000AF4FF071
S31508001F8000037B601B4B1B6A1A4A23F00203136289
S31508001F9000BF184B1B6903F00203002BF9D0154B41
S31508001FA05B69144A43F001035361124B00221A611C
S31508001FB0104B1B6A0F4A43F00203136200BF0D4B16
S31508001FC01B6903F00203002BF9D00A4B00221A61A1
S31508001FD0084B1B6A074A23F002031362054B5B6B27
S31508001FE01846FEF799FD03467B607B681846083756
S31508001FF0BD4680BD0004004080B483B000AF786061
S315080020000B467B8013467B707B78032B1AD801A27C
S3150800201052F823F0252000082D2000083520000856
S315080020203D2000087A887B685A630BE07A887B68CB
S315080020309A6307E07A887B68DA6303E07A887B68C4
S315080020401A6400BF7B685B6943F001027B685A61CA
S3150800205000BF0C37BD4680BC704700BF80B500AFD7
S31508002060024B1B68DB68984700BF80BDCC00002088
S3150800207080B500AF024B5B68DB68984700BF80BD40
S31508002080CC00002080B500AF024B9B68DB68984700
S3150800209000BF80BDCC00002070B500260C4D0D4C4D
S315080020A0641BA410A64209D100F01AF800260A4DAE
S315080020B00A4C641BA410A64205D170BD55F8043B12
S315080020C098470136EEE755F8043B98470136F2E79C
S315080020D0F8200008F8200008F8200008FC2000086E
S315080020E0F8B500BFF8BC08BC9E467047F8B500BFF7
S30D080020F0F8BC08BC9E467047C7
S309080020F85501000878
S309080020FC3101000898
S3090800210001000000CC
S7050800136D72
