S01E000046697265666967687465722D526F626F745F436F64652E737265638A
S3150800000000280020D116000821170008211700082B
S315080000102117000821170008211700080000000012
S315080000200000000000000000000000002117000882
S3150800003021170008000000002117000821170008F2
S3150800004021170008211700082117000821170008A2
S315080000502117000821170008791700089D170008BE
S31508000060C1170008E5170008091800082117000835
S315080000702117000821170008211700082117000872
S315080000802117000821170008211700082117000862
S315080000902117000821170008211700082D18000845
S315080000A02117000821170008211700082117000842
S315080000B02117000821170008211700085D1D0008F0
S315080000C0211700082117000821170008451E0008F7
S315080000D0A11E0008F12200080523000819230008BC
S315080000E0D51800082117000800000000211700088D
S315080000F021170008211700082117000821170008F2
S3150800010021170008211700082117000821170008E1
S3150800011021170008211700082117000821170008D1
S3150800012021170008211700082117000821170008C1
S3150800013010B5054C237833B9044B13B10448AFF313
S3150800014000800123237010BD040000200000000079
S315080001507423000808B5034B1BB103490348AFF3E2
S31508000160008008BD00000000080000207423000875
S3150800017081F0004102E000BF83F0004330B54FEA4A
S3150800018041044FEA430594EA050F08BF90EA020FB7
S315080001901FBF54EA000C55EA020C7FEA645C7FEA4A
S315080001A0655C00F0E2804FEA5454D4EB5555B8BF6D
S315080001B06D420CDD2C4480EA020281EA030382EADE
S315080001C0000083EA010180EA020281EA0303362D70
S315080001D088BF30BD11F0004F4FEA01314FF4801C43
S315080001E04CEA113102D0404261EB410113F0004F55
S315080001F04FEA03334CEA133302D0524263EB43030C
S3150800020094EA050F00F0A780A4F10104D5F1200EA9
S315080002100DDB02FA0EFC22FA05F2801841F1000104
S3150800022003FA0EF2801843FA05F359410EE0A5F1D8
S3150800023020050EF1200E012A03FA0EFC28BF4CF009
S31508000240020C43FA05F3C01851EBE37101F00045BF
S3150800025007D54FF0000EDCF1000C7EEB00006EEBCC
S315080002600101B1F5801F1BD3B1F5001F0CD3490856
S315080002705FEA30004FEA3C0C04F101044FEA4452AD
S3150800028012F5800F80F09A80BCF1004F08BF5FEA34
S31508000290500C50F1000041EB045141EA050130BD14
S315080002A05FEA4C0C404141EB0101013C28BFB1F526
S315080002B0801FE9D291F0000F04BF01460020B1FA71
S315080002C081F308BF2033A3F10B03B3F120020CDA44
S315080002D00C3208DD02F1140CC2F10C0201FA0CF022
S315080002E021FA02F10CE002F11402D8BFC2F1200C87
S315080002F001FA02F120FA0CFCDCBF41EA0C0190403D
S31508000300E41AA2BF01EB0451294330BD6FEA040485
S315080003101F3C1CDA0C340EDC04F11404C4F1200270
S3150800032020FA04F001FA02F340EA030021FA04F382
S3150800033045EA030130BDC4F10C04C4F1200220FAD9
S3150800034002F001FA04F340EA0300294630BD21FA17
S3150800035004F0294630BD94F0000F83F4801306BFDD
S3150800036081F480110134013D4EE77FEA645C18BFD1
S315080003707FEA655C29D094EA050F08BF90EA020F68
S3150800038005D054EA000C04BF1946104630BD91EA60
S31508000390030F1EBF0021002030BD5FEA545C05D163
S315080003A04000494128BF41F0004130BD14F58004A2
S315080003B03CBF01F5801130BD01F0004545F0FE4116
S315080003C041F470014FF0000030BD7FEA645C1ABF4B
S315080003D0194610467FEA655C1CBF0B46024650EA82
S315080003E0013406BF52EA033591EA030F41F40021AE
S315080003F030BD00BF90F0000F04BF0021704730B534
S315080004004FF4806404F132044FF000054FF0000108
S3150800041050E700BF90F0000F04BF0021704730B5C9
S315080004204FF4806404F1320410F0004548BF40429E
S315080004304FF000013EE700BF42004FEAE2014FEAF3
S3150800044031014FEA02701FBF12F07F4393F07F4FCE
S3150800045081F06051704732F07F4208BF704793F0D1
S315080004607F4F04BF41F40021704730B54FF46074E4
S3150800047001F0004521F000411CE700BF50EA0102E7
S3150800048008BF704730B54FF000050AE050EA010290
S3150800049008BF704730B511F0004502D5404261EB00
S315080004A041014FF4806404F132045FEA915C3FF441
S315080004B0D8AE4FF003025FEADC0C18BF03325FEADE
S315080004C0DC0C18BF033202EBDC02C2F1200300FA8F
S315080004D003FC20FA02F001FA03FE40EA0E0021FAB4
S315080004E002F11444BDE600BF70B54FF0FF0C4CF4A2
S315080004F0E06C1CEA11541DBF1CEA135594EA0C0F54
S3150800050095EA0C0F00F0DEF82C4481EA030621EA8E
S315080005104C5123EA4C5350EA013518BF52EA0335C9
S3150800052041F4801143F4801338D0A0FB02CE4FF07B
S315080005300005E1FB02E506F00042E0FB03E54FF0AB
S315080005400006E1FB03569CF0000F18BF4EF0010EA3
S31508000550A4F1FF04B6F5007F64F5407404D25FEA9F
S315080005604E0E6D4146EB060642EAC62141EA555152
S315080005704FEAC52040EA5E504FEACE2EB4F1FD0C94
S3150800058088BFBCF5E06F1ED8BEF1004F08BF5FEA12
S31508000590500E50F1000041EB045170BD06F00046C4
S315080005A046EA010140EA020081EA0301B4EB5C0471
S315080005B0C2BFD4EB0C0541EA045170BD41F4801169
S315080005C04FF0000E013C00F3AB8014F1360FDEBF8E
S315080005D0002001F0004170BDC4F10004203C35DA6A
S315080005E00C341BDC04F11404C4F1200500FA05F3ED
S315080005F020FA04F001FA05F240EA020001F000428E
S3150800060021F0004110EBD37021FA04F642EB060103
S315080006105EEA430E08BF20EAD37070BDC4F10C042D
S31508000620C4F1200500FA04F320FA05F001FA04F2F1
S3150800063040EA020001F0004110EBD37041F10001DD
S315080006405EEA430E08BF20EAD37070BDC4F12005E8
S3150800065000FA05F24EEA020E20FA04F301FA05F250
S3150800066043EA020321FA04F001F0004121FA04F2F8
S3150800067020EA020000EBD3705EEA430E08BF20EAC8
S31508000680D37070BD94F0000F0FD101F00046400002
S3150800069041EB010111F4801F08BF013CF7D041EA84
S315080006A0060195F0000F18BF704703F00046520088
S315080006B043EB030313F4801F08BF013DF7D043EA59
S315080006C00603704794EA0C0F0CEA135518BF95EA0F
S315080006D00C0F0CD050EA410618BF52EA4306D1D196
S315080006E081EA030101F000414FF0000070BD50EAB5
S315080006F0410606BF1046194652EA430619D094EA3F
S315080007000C0F02D150EA013613D195EA0C0F05D128
S3150800071052EA03361CBF104619460AD181EA03017C
S3150800072001F0004141F0FE4141F470014FF0000034
S3150800073070BD41F0FE4141F4780170BD70B54FF0CF
S31508000740FF0C4CF4E06C1CEA11541DBF1CEA13554F
S3150800075094EA0C0F95EA0C0F00F0A7F8A4EB050431
S3150800076081EA030E52EA03354FEA013100F0888028
S315080007704FEA03334FF0805545EA131343EA1263F1
S315080007804FEA022245EA111545EA10654FEA0026A6
S315080007900EF000419D4208BF964244F1FD0404F55F
S315080007A0407402D25B084FEA3202B61A65EB0305BB
S315080007B05B084FEA32024FF480104FF4002CB6EB78
S315080007C0020E75EB030E22BFB61A754640EA0C00F8
S315080007D05B084FEA3202B6EB020E75EB030E22BF38
S315080007E0B61A754640EA5C005B084FEA3202B6EB79
S315080007F0020E75EB030E22BFB61A754640EA9C0038
S315080008005B084FEA3202B6EB020E75EB030E22BF07
S31508000810B61A754640EADC0055EA060E18D04FEAC5
S31508000820051545EA16754FEA06164FEAC30343EA65
S3150800083052734FEAC2025FEA1C1CC0D111F4801F32
S315080008400BD141EA00014FF000004FF0004CB6E72B
S3150800085011F4801F04BF01430020B4F1FD0C88BFCA
S31508000860BCF5E06F3FF6AFAEB5EB030C04BFB6EBD5
S31508000870020C5FEA500C50F1000041EB045170BDC8
S315080008800EF0004E4EEA113114EB5C04C2BFD4EBF5
S315080008900C0541EA045170BD41F480114FF0000E79
S315080008A0013C90E645EA060E8DE60CEA135594EAF5
S315080008B00C0F08BF95EA0C0F3FF43BAF94EA0C0FF8
S315080008C00AD150EA01347FF434AF95EA0C0F7FF46D
S315080008D025AF104619462CE795EA0C0F06D152EAC1
S315080008E003353FF4FDAE1046194622E750EA4106A5
S315080008F018BF52EA43067FF4C5AE50EA41047FF4B6
S315080009000DAF52EA43057FF4EBAE12E74FEA410218
S31508000910B2F1E04324BFB3F5001CDCF1FE5C0DD94F
S3150800092001F0004C4FEAC0024CEA5070B2F1004F99
S3150800093040EB830008BF20F00100704711F0804F9C
S3150800094021D113F13872BCBF01F00040704741F461
S3150800095080114FEA5252C2F11802C2F1200C10FA65
S315080009600CF320FA02F018BF40F001004FEAC12349
S315080009704FEAD32303FA0CFC40EA0C0023FA02F3ED
S315080009804FEA4303CCE77FEA625307D150EA0133C3
S315080009901EBF4FF0FE4040F44000704701F0004093
S315080009A040F0FE4040F40000704700BF80F0004071
S315080009B002E000BF81F0004142001FBF5FEA410329
S315080009C092EA030F7FEA226C7FEA236C6AD04FEA29
S315080009D01262D2EB1363C1BFD2184140484041406E
S315080009E0B8BF5B42192B88BF704710F0004F40F420
S315080009F0000020F07F4018BF404211F0004F41F43C
S31508000A00000121F07F4118BF494292EA030F3FD007
S31508000A10A2F1010241FA03FC10EB0C00C3F120031A
S31508000A2001FA03F100F0004302D5494260EB4000A9
S31508000A30B0F5000F13D3B0F1807F06D340084FEA14
S31508000A40310102F10102FE2A51D2B1F1004F40EB09
S31508000A50C25008BF20F0010040EA03007047490071
S31508000A6040EB0000013A28BFB0F5000FEDD2B0FA0E
S31508000A7080FCACF1080CB2EB0C0200FA0CF0AABF31
S31508000A8000EBC25052421843BCBFD04018437047CF
S31508000A9092F0000F81F4000106BF80F400000132D5
S31508000AA0013BB5E74FEA41037FEA226C18BF7FEAAC
S31508000AB0236C21D092EA030F04D092F0000F08BFEE
S31508000AC00846704790EA010F1CBF0020704712F0D5
S31508000AD07F4F04D1400028BF40F00040704712F114
S31508000AE000723CBF00F50000704700F0004343F079
S31508000AF0FE4040F4000070477FEA226216BF0846AF
S31508000B007FEA23630146420206BF5FEA412390EA71
S31508000B10010F40F4800070474FF0000304E000BF67
S31508000B2010F0004348BF40425FEA000C08BF704718
S31508000B3043F0964301464FF000001CE050EA0102DC
S31508000B4008BF70474FF000030AE000BF50EA0102F1
S31508000B5008BF704711F0004302D5404261EB4101DE
S31508000B605FEA010C02BF84460146002043F0B64303
S31508000B7008BFA3F18053A3F50003BCFA8CF2083A28
S31508000B80A3EBC25310DB01FA02FC634400FA02FC31
S31508000B90C2F12002BCF1004F20FA02F243EB020038
S31508000BA008BF20F00100704702F1200201FA02FC9A
S31508000BB0C2F1200250EA4C0021FA02F243EB02008D
S31508000BC008BF20EADC7070474FF0FF3C06E000BF24
S31508000BD04FF0010C02E000BF4FF0010C4DF804CDB8
S31508000BE04FEA40024FEA41037FEA226C18BF7FEAC8
S31508000BF0236C11D001B052EA530C18BF90EA010FCA
S31508000C0058BFB2EB030088BFC81738BF6FEAE17058
S31508000C1018BF40F0010070477FEA226C02D15FEAF4
S31508000C20402C05D17FEA236CE4D15FEA412CE1D060
S31508000C305DF8040B704700BF844608466146FFE727
S31508000C400FB5FFF7C9FF002848BF10F1000F0FBD09
S31508000C504DF808EDFFF7F4FF0CBF012000205DF802
S31508000C6008FB00BF4DF808EDFFF7EAFF34BF012087
S31508000C7000205DF808FB00BF4DF808EDFFF7E0FF20
S31508000C8094BF012000205DF808FB00BF4DF808ED71
S31508000C90FFF7D2FF94BF012000205DF808FB00BFD4
S31508000CA04DF808EDFFF7C8FF34BF012000205DF8B6
S31508000CB008FB00BF80B500AF124B04229A70114B97
S31508000CC00122DA700F4B4FF480721A800D490E48D4
S31508000CD000F01AFF0B4B4FF400721A8009490A48B4
S31508000CE000F012FF074B80221A800649064800F0DA
S31508000CF00BFF044B40221A800249034800F004FF08
S31508000D0000BF80BD30000020000C014080B500AF58
S31508000D100C4B00221A800B4B00225A80094B0722E3
S31508000D209A80002207494FF0804001F0E7F8032235
S31508000D3004494FF0804001F0E1F8FFF7BBFF00BF20
S31508000D4080BD00BF2000002080B582B000AF78606B
S31508000D5000228021144800F06DFF0122402112482C
S31508000D6000F068FF00224FF400710F4800F062FFA0
S31508000D7001224FF480710C4800F05CFF032243F215
S31508000D80B0614FF0804001F081FA002243F2B06171
S31508000D904FF0804001F07AFA7B68184600F0C2FCF2
S31508000DA000BF0837BD4680BD000C014080B582B043
S31508000DB000AF03463960FB71FB79002B28D101226D
S31508000DC080212C4800F036FF00224021294800F0F7
S31508000DD031FF00224FF40071264800F02BFF012254
S31508000DE04FF48071234800F025FF032242F6E061A4
S31508000DF04FF0804001F04AFA002242F6E0614FF0D7
S31508000E00804001F043FA3B68184600F08BFC2AE064
S31508000E10FB79012B27D100224FF48071154800F089
S31508000E2009FF01224FF40071124800F003FF012266
S31508000E304021104800F0FEFE002280210D4800F0F7
S31508000E40F9FE002242F6E0614FF0804001F01EFAFA
S31508000E50032242F6E0614FF0804001F017FA3B6842
S31508000E60184600F05FFC00F0BBF800BF0837BD4627
S31508000E7080BD00BF000C014080B582B000AF0346BC
S31508000E80FB71FB79002B24D101228021294800F02F
S31508000E90D1FE00224021274800F0CCFE00224FF464
S31508000EA00071244800F0C6FE01224FF480712148E3
S31508000EB000F0C0FE032242F210714FF0804001F0AC
S31508000EC0E5F9002242F210714FF0804001F0DEF998
S31508000ED026E0FB79012B23D100224FF480711548B7
S31508000EE000F0A8FE01224FF40071124800F0A2FE9D
S31508000EF0012240210F4800F09DFE002280210D4866
S31508000F0000F098FE002242F210714FF0804001F086
S31508000F10BDF9032242F210714FF0804001F0B6F994
S31508000F204FF4077000F0FEFB00F05AF800BF0837D0
S31508000F30BD4680BD000C014080B582B000AF0346B7
S31508000F403960FB7100224FF48071244800F072FE6C
S31508000F5001224FF40071214800F06CFE0122802125
S31508000F601E4800F067FE002240211C4800F062FE81
S31508000F70FB799BB21A46920013441A4691001A4608
S31508000F800B461344DB009BB2C3F59C4320339BB24C
S31508000F90002219464FF0804001F078F9FB799BB2A0
S31508000FA01A46920013441A4691001A460B461344F1
S31508000FB0DB009BB2C3F59C4320339BB20322194640
S31508000FC04FF0804001F062F93B68184600F0AAFB32
S31508000FD000F006F800BF0837BD4680BD000C01408A
S31508000FE080B500AF002244F620614FF0804001F042
S31508000FF04DF9032244F620614FF0804001F046F98E
S3150800100000BF80BD80B582B000AF0223BB714FF42C
S315080010108043BB803B1D19461F4800F075FD02231F
S31508001020BB710223BB803B1D19461B4800F06CFDB3
S315080010300223BB711023BB803B1D1946174800F0DD
S3150800104063FD0223BB712023BB803B1D1946134851
S3150800105000F05AFD0223BB718023BB803B1D194655
S315080010600E4800F051FD0223BB714FF40043BB80CC
S315080010703B1D1946084800F047FD0223BB714FF493
S315080010800053BB803B1D1946034800F03DFD00BFD9
S315080010900837BD4680BD00BF000C0140000801406E
S315080010A080B500AF4FF48041024800F0ACFD03461E
S315080010B0184680BD000C014080B500AF4FF40051C2
S315080010C0024800F0A0FD0346184680BD000C01400A
S315080010D080B500AF4FF40041024800F094FD034686
S315080010E0184680BD000C014080B500AF202103489A
S315080010F000F089FD0346184680BD00BF0008014080
S3150800110080B500AF8021034800F07DFD03461846F0
S3150800111080BD00BF0008014080B500AF102103481C
S3150800112000F071FD0346184680BD00BF0008014067
S3150800113080B500AF01F042F8074B04229A70064BBF
S315080011400122DA70044B20221A800349034800F072
S31508001150DBFC00BF80BD00BF34000020000C01404E
S3150800116080B582B000AF4FF000037B6001222021DA
S31508001170134800F05FFD0A2000F0D4FA002220216F
S315080011800F4800F057FD01F041F803461846FFF7EF
S3150800119053F909A3D3E90023FFF7D0FA02460B4611
S315080011A010461946FFF7B2FB03467B607B68184674
S315080011B00837BD4680BD00BF6666666666264D4032
S315080011C0000C014080B400AF284B9B69274A43F0C6
S315080011D004039361254B9B69244A43F008039361F2
S315080011E0224B9B69214A43F0100393611F4B9B696D
S315080011F01E4A43F0010393611C4BDB691B4A43F00B
S315080012000103D361194BDB69184A43F00203D36122
S31508001210164BDB69154A43F00403D361134B9B69EC
S31508001220124A43F400739361104B9B690F4A43F4C7
S31508001230006393610E4B1B680D4A43F0020313606B
S315080012400B4B1B680A4A43F4C0131360084B1B6810
S31508001250074A43F090031360044B1B68034A43F0A4
S315080012608073136000BFBD4680BC70470010024003
S315080012700410024080B582B000AF0346FB71FB79CB
S315080012801A464FF48051034800F0D4FC00BF0837D3
S31508001290BD4680BD000C014080B500AFFFF700FFDA
S315080012A00346002B01D0012323E0FFF71DFF034669
S315080012B0002B01D004231CE0FFF722FF0346002B76
S315080012C001D0022315E0FFF727FF0346002B01D0C4
S315080012D003230EE0FFF7FCFE0346002B01D005238F
S315080012E007E0FFF7E9FE0346002B01D0062300E0DE
S315080012F00023184680BD000080B584B000AF0346C1
S31508001300FB710023FB60FB79062B3BD801A252F840
S3150800131023F000BF83130008851300086F13000825
S31508001320471300086F1300086F13000847130008D7
S31508001330FB680133FB6014210120FFF737FDFB68CA
S31508001340B3F5967F05D0FFF7A7FF0346012BEFD12C
S3150800135000E000BFFFF744FE14E0FB680133FB60C2
S3150800136014210020FFF722FDFB68C82B05D0FFF7E4
S3150800137093FF0346012BF0D100E000BFFFF730FED4
S3150800138000E000BF00BF1037BD4680BD80B582B003
S3150800139000AF00237B6000237B6034E032213C20D1
S315080013A0FFF7CAFDFFF71CFEFFF7DAFE03463F49C3
S315080013B01846FFF761FC0346002B18D1FFF770FEAD
S315080013C00346002B13D1FFF78FFE0346002B0ED1E1
S315080013D0FFF796FE0346002B09D1FFF79DFE03464D
S315080013E0002B04D1FFF774FE0346002B08D0FFF745
S315080013F0F7FD2F4B1B68013B2D4A1360002350E075
S315080014007B6801337B602A4B1B687A689A42C5DB86
S315080014100020FFF731FD00237B6034E032213C20B9
S31508001420FFF78AFDFFF7DCFDFFF79AFE03461F4923
S315080014301846FFF721FC0346002B18D1FFF730FEAC
S315080014400346002B13D1FFF74FFE0346002B0ED1A0
S31508001450FFF756FE0346002B09D1FFF75DFE03464C
S31508001460002B04D1FFF734FE0346002B08D0FFF704
S31508001470B7FD0F4B1B68013B0D4A1360002310E0B4
S315080014807B6801337B600A4B1B687A689A42C5DB26
S315080014900020FFF7F1FC064B1B680133044A136072
S315080014A0002318460837BD4680BD00BF000020420D
S315080014B00000002090B583B000AF00237B6013E0E6
S315080014C0FFF706FE0346002B04D1FFF7F5FD03469A
S315080014D0002B05D0FFF7E0FE03461846FFF70CFF82
S315080014E014212820FFF728FDFFF73AFE03460122BC
S315080014F0144614491846FFF7BFFB0346002B01D1D3
S3150800150000231C46E3B283F00103DBB2002B04D0B0
S31508001510FFF7C6FD0346002BD2D101237B60FFF7F8
S315080015205FFD02E00120FFF7A5FEFFF7B9FD0346C0
S31508001530002BF7D10020FFF79DFE00BF0C37BD46F4
S3150800154090BD00BF0000C84180B582B000AF04233B
S31508001550BB710123FB714FF48053BB803B1D1946B9
S31508001560034800F0D1FA00BF0837BD4680BD00BF6A
S31508001570000C014080B500AFFFF744FDFFF7C6FB3E
S31508001580FFF7D6FDFFF7E0FF00BF80BD80B500AFCF
S31508001590FFF726FD4FF4C870FFF7D6FB4FF4167118
S315080015A00020FFF703FCFFF71BFD00BF80BD00000E
S315080015B090B583B000AFFFF705FEFFF7DBFF00230A
S315080015C0FB710023BB710523BB700223FB704FF42C
S315080015D000533B803B4619463A4800F095FAFFF718
S315080015E0BFFD03460122144637491846FFF744FB58
S315080015F00346002B01D100231C46E3B2FB71FFF71B
S315080016004FFD0346002B18D1FFF76EFD0346002B4E
S3150800161013D1FFF775FD0346002B0ED1FFF77CFDAE
S315080016200346002B09D1FFF753FD0346002B04D1CF
S31508001630FFF742FD0346002B01D0012300E00023FB
S31508001640BB71FB79002B05D1BB79002B02D1FFF7C3
S315080016509DFE2EE0FB79002B10D0BB79002B0DD018
S31508001660FFF71AFE03461846FFF746FEFFF722FF66
S31508001670164B1B68013B154A13601AE0FB79002BD1
S3150800168007D0124B1B68013B104A1360FFF77EFF19
S315080016900FE0BB79002B0CD0FFF7FEFD034618467A
S315080016A0FFF72AFEFFF706FF084B1B68013B074AB0
S315080016B013604FF40051034800F0D3FA642000F099
S315080016C031F88CE70010014000002042000000209D
S315080016D00D488546AFF300800C480D490D4A002396
S315080016E002E0D458C4500433C4188C42F9D30A4AC9
S315080016F00A4C002301E013600432A242FBD300F037
S3150800170015FEFFF755FFFEE7002800200000002021
S31508001710040000209423000804000020C0000020D4
S31508001720FEE7000080B483B000AF7860114B41F645
S315080017303F729A627B685A1E0E4BDA620D4B1B6823
S315080017400C4A43F00103136000BF0A4B1B6903F000
S315080017500103002BF9D0074B00221A61054B002222
S315080017601A60044B00225A6200BF0C37BD4680BC83
S31508001770704700BF002C014080B500AF054B5B6980
S31508001780044A43F001035361034B1B68984700BFA3
S3150800179080BD00BF000401403800002080B500AFBE
S315080017A0054B5B69044A43F002035361034B5B68CC
S315080017B0984700BF80BD00BF0004014038000020E4
S315080017C080B500AF054B5B69044A43F004035361D7
S315080017D0034B9B68984700BF80BD00BF00040140CB
S315080017E03800002080B500AF054B5B69044A43F01A
S315080017F008035361034BDB68984700BF80BD00BFF1
S31508001800000401403800002080B500AF054B5B6935
S31508001810044A43F010035361034B1B69984700BF02
S3150800182080BD00BF000401403800002080B500AF2D
S31508001830264B5B6903F02003002B08D0234B5B691A
S31508001840224A43F020035361214B5B6998471F4B9B
S315080018505B6903F04003002B08D01C4B5B691B4AED
S3150800186043F0400353611A4B9B699847174B5B69D2
S3150800187003F08003002B08D0144B5B69134A43F02E
S3150800188080035361124BDB699847104B5B6903F47D
S315080018908073002B08D00D4B5B690C4A43F48073A8
S315080018A053610B4B1B6A9847084B5B6903F400733B
S315080018B0002B08D0054B5B69044A43F40073536157
S315080018C0034B5B6A984700BF80BD00BF0004014018
S315080018D03800002080B500AF2D4B5B6903F48063A8
S315080018E0002B08D02A4B5B69294A43F4806353616D
S315080018F0284B9B6A9847264B5B6903F40063002BC9
S3150800190008D0234B5B69224A43F400635361214B99
S31508001910DB6A98471E4B5B6903F48053002B08D09B
S315080019201B4B5B691A4A43F480535361194B1B6B73
S315080019309847174B5B6903F40053002B08D0144BE8
S315080019405B69134A43F400535361124B5B6B984728
S315080019500F4B5B6903F48043002B08D00C4B5B6983
S315080019600B4A43F4804353610A4B9B6B9847084BD9
S315080019705B6903F40043002B08D0054B5B69044AF6
S3150800198043F400435361034BDB6B984700BF80BDAC
S31508001990000401403800002080B483B000AF03463D
S315080019A0FB80FB88B3F5004F00F0A580B3F5004F28
S315080019B000F3A380B3F5804F00F09B80B3F5804F0A
S315080019C000F39B80B3F5005F00F09180B3F5005FEC
S315080019D000F39380B3F5805F00F08780B3F5805FEE
S315080019E000F38B80B3F5006F7DD0B3F5006F00F37D
S315080019F08480B3F5806F74D0B3F5806F7DDCB3F562
S31508001A00007F6CD0B3F5007F77DCB3F5807F64D0B8
S31508001A10B3F5807F71DC802B5DD0802B6DDC202BAD
S31508001A2048DC002B69DD013B1F2B66D801A252F862
S31508001A3023F000BFBB1A0008BF1A0008FB1A0008EB
S31508001A40C31A0008FB1A0008FB1A0008FB1A00084C
S31508001A50C71A0008FB1A0008FB1A0008FB1A000838
S31508001A60FB1A0008FB1A0008FB1A0008FB1A0008F4
S31508001A70CB1A0008FB1A0008FB1A0008FB1A000814
S31508001A80FB1A0008FB1A0008FB1A0008FB1A0008D4
S31508001A90FB1A0008FB1A0008FB1A0008FB1A0008C4
S31508001AA0FB1A0008FB1A0008FB1A0008FB1A0008B4
S31508001AB0CF1A0008402B0CD01FE000231EE0042399
S31508001AC01CE008231AE00C2318E0102316E0142360
S31508001AD014E0182312E01C2310E000230EE0042370
S31508001AE00CE008230AE00C2308E0102306E0142380
S31508001AF004E0182302E01C2300E0002318460C37F4
S31508001B00BD4680BC704700BF90B585B000AF786011
S31508001B1039600023BB600023FB733B681B88FF2BDF
S31508001B2001D87B6801E07B680433BB603B681B888F
S31508001B301846FFF731FF03461A460F239340DA4348
S31508001B40BB681B681A40BB681A603B689B78072B02
S31508001B500BD03B689B78062B07D03B689B78052BF8
S31508001B6003D03B689B78042B0ED13B689B78043BDB
S31508001B709B005AB23B68DB785BB213435BB2DBB2BD
S31508001B8003F00F03FB732CE03B689B78012B03D013
S31508001B903B689B78002B07D13B689B789B00DBB2A0
S31508001BA003F00F03FB731CE03B689B78082B02D1FC
S31508001BB00423FB7315E00823FB733B689B78022B11
S31508001BC007D17B68DB683A6812881A437B68DA6053
S31508001BD007E07B68DB683A681288D2431A407B685C
S31508001BE0DA60FC7B3B681B881846FFF7D5FE034680
S31508001BF004FA03F2BB681B681A43BB681A6000BF85
S31508001C001437BD4690BD80B485B000AF78600B46EA
S31508001C107B807B689A687B881340002B02D001235F
S31508001C20FB7301E00023FB73FB7B18461437BD46A4
S31508001C3080BC704780B483B000AF78600B467B8069
S31508001C4013467B707B78002B03D07A887B681A61F1
S31508001C5002E07A887B685A6100BF0C37BD4680BCB3
S31508001C60704780B483B000AF78600B467B807B6892
S31508001C70DA687B885A407B68DA6000BF0C37BD4655
S31508001C8080BC704780B584B000AF78600B46FB70A7
S31508001C907B68304A934214BF01230023DBB2FB73EF
S31508001CA0FB78032B51D801A252F823F0BD1C00087B
S31508001CB0E11C0008F91C00081D1D00087B689B69CB
S31508001CC003F00403002B3BD0FA7B23491346DB00C1
S31508001CD09B1A9B000B4418331B68002098472FE07B
S31508001CE0FA7B1D491346DB009B1A9B000B441833ED
S31508001CF01B680120984728E07B689B6903F004036A
S31508001D00002B1FD0FA7B14491346DB009B1A9B0055
S31508001D100B4418331B680220984713E07B689B69BD
S31508001D2003F00403002B0FD1FA7B0B491346DB00A3
S31508001D309B1A9B000B4418331B680320984703E043
S31508001D4000BF02E000BF00E000BF00BF1037BD467D
S31508001D5080BD00BF005400407400002080B584B0E8
S31508001D6000AF00233B60364B5B6903F01003FB6052
S31508001D70334B5B6803F40073BB60314B5B6803F459
S31508001D8080637B60BB68002B0AD0FB68002B07D0FA
S31508001D902B4B2B4A1B68136000212948FFF772FF5B
S31508001DA0274B5B6903F00203FB60BB68002B12D06C
S31508001DB0FB68002B0FD0224B9B6903F00103002B15
S31508001DC009D11F4B5B693B601D4B9B693B60012139
S31508001DD01B48FFF757FF1A4B5B6903F08003FB604C
S31508001DE0BB68002B0FD07B68002B0CD0FB68002B40
S31508001DF009D0134B9B6903F00103002B03D1022181
S31508001E000F48FFF73FFF0E4B5B6903F04003FB608B
S31508001E10BB68002B0FD07B68002B0CD0FB68002B0F
S31508001E2009D0074B9B6903F00103002B03D103215B
S31508001E300348FFF727FF00BF1037BD4680BD00BF28
S31508001E400054004080B582B000AF134B9B685B0816
S31508001E5003F00103DAB23B7962F300033B710E4BE0
S31508001E609B6803F00103DAB23B7962F341033B71E5
S31508001E70094B9B681B0903F00103DAB23B7962F34D
S31508001E8082033B71054B1B689B693879984700BFED
S31508001E900837BD4680BD00BF00300140AC000020B9
S31508001EA080B582B000AF134B9B685B0803F0010353
S31508001EB0DAB23B7962F300033B710E4B9B6803F081
S31508001EC00103DAB23B7962F341033B71094B9B6824
S31508001ED01B0903F00103DAB23B7962F382033B7113
S31508001EE0054B5B689B693879984700BF0837BD463C
S31508001EF080BD00BF00380040AC00002080B586B029
S31508001F0000AFF860B9601346FB71FB6881221A605E
S31508001F10BB681B88022B00F0D380FB68B3F1804FA7
S31508001F2031D1A04BDB699F4A43F00103D3610623F5
S31508001F30BB750123FB75FB79032B17D801A252F851
S31508001F4023F000BF551F00085B1F0008611F00082B
S31508001F50671F00080123BB8208E00223BB8205E055
S31508001F600423BB8202E00823BB8200BF07F11403E7
S31508001F7019468D48FFF7C8FD8C4B1B688B4A43F002
S31508001F808053136072E0FB68894A93423DD1062369
S31508001F90BB750123FB75FB79032B2FD801A252F8D9
S31508001FA023F000BFB51F0008C71F0008D91F000887
S31508001FB0EB1F00084023BB8207F1140319467A4831
S31508001FC0FFF7A2FD1AE08023BB8207F11403194626
S31508001FD07548FFF799FD11E00123BB8207F1140349
S31508001FE019467448FFF790FD08E00223BB8207F103
S31508001FF0140319466F48FFF787FD00BF6B4B1B6834
S315080020006A4A43F08053136030E0FB686A4A934299
S315080020102CD10623BB750123FB75FB79032B19D835
S3150800202001A252F823F000BF392000083F2000081B
S31508002030452000084D2000084023BB820AE0802383
S31508002040BB8207E04FF48073BB8203E04FF4007352
S31508002050BB8200BF07F1140319465648FFF754FD23
S31508002060524B1B68514A43F080431360FB79032B9C
S3150800207050D801A252F823F08920000897200008BA
S31508002080A5200008B3200008FB689B6943F0780286
S31508002090FB689A613EE0FB689B6943F4F042FB6883
S315080020A09A6137E0FB68DB6943F07802FB68DA611E
S315080020B030E0FB68DB6943F4F042FB68DA6129E04B
S315080020C0FB79032B26D801A252F823F0DD2000085D
S315080020D0EB200008F920000807210008FB689B6927
S315080020E023F07802FB689A6114E0FB689B6923F485
S315080020F0F042FB689A610DE0FB68DB6923F0780221
S31508002100FB68DA6106E0FB68DB6923F4F042FB68EA
S31508002110DA6100BFFB79032B36D801A252F823F007
S3150800212031210008472100085D21000873210008B5
S31508002130FB681B6A43F00102FB681A62FB6842F2FD
S3150800214010725A6320E0FB681B6A43F01002FB68B2
S315080021501A62FB6842F210729A6315E0FB681B6A02
S3150800216043F48072FB681A62FB6842F21072DA6303
S315080021700AE0FB681B6A43F48052FB681A62FB6834
S3150800218042F210721A6400BFBB689B881A46FB6845
S315080021909A62FB6844F62062DA6200BF1837BD46C9
S315080021A080BD00BF001002400008014080E100E049
S315080021B000040040000C01400008004080B582B0D1
S315080021C000AF104B81221A600123BB714023BB80EC
S315080021D03B1D19460C48FFF797FC0A4B07229A62E3
S315080021E0084B4FF6FF72DA62064B31229A61054BAD
S315080021F01B6A044A43F00103136200BF0837BD4651
S3150800220080BD00BF000400400008014080B582B0D0
S3150800221000AF4FF000037B601B4B1B6A1A4A23F082
S315080022200203136200BF184B1B6903F00203002B5D
S31508002230F9D0154B5B69144A43F001035361124BFD
S3150800224000221A61104B1B6A0F4A43F002031362FD
S3150800225000BF0D4B1B6903F00203002BF9D00A4B94
S3150800226000221A61084B1B6A074A23F0020313620D
S31508002270054B5B6B1846FEF74FFC03467B607B6895
S3150800228018460837BD4680BD0004004080B483B0B8
S3150800229000AF78600B467B8013467B707B78032BF8
S315080022A01AD801A252F823F0B9220008C122000860
S315080022B0C9220008D12200087A887B685A630BE095
S315080022C07A887B689A6307E07A887B68DA6303E032
S315080022D07A887B681A6400BF7B685B6943F00102F1
S315080022E07B685A6100BF0C37BD4680BC704700BF8B
S315080022F080B500AF024B1B68DB68984700BF80BDFE
S31508002300B400002080B500AF024B5B68DB689847D5
S3150800231000BF80BDB400002080B500AF024B9B68AB
S31508002320DB68984700BF80BDB400002070B5002662
S315080023300C4D0D4C641BA410A64209D100F01AF8E6
S3150800234000260A4D0A4C641BA410A64205D170BD8E
S3150800235055F8043B98470136EEE755F8043B98478D
S315080023600136F2E78C2300088C2300088C2300082A
S3150800237090230008F8B500BFF8BC08BC9E46704715
S31108002380F8B500BFF8BC08BC9E467047C4
S3090800238C55010008E1
S309080023903101000801
S309080023941400000023
S705080016D10B
