S01E000046697265666967687465722D526F626F745F436F64652E737265638A
S3150800000000280020A1190008F1190008F1190008B4
S31508000010F1190008F1190008F1190008000000009C
S31508000020000000000000000000000000F1190008B0
S31508000030F119000800000000F1190008F11900087C
S31508000040F1190008F1190008F1190008F11900085A
S31508000050F1190008F1190008751B0008991B00081A
S31508000060BD1B0008E11B0008051C0008F119000863
S31508000070F1190008F1190008F1190008F11900082A
S31508000080F1190008F1190008F1190008F11900081A
S31508000090F1190008F1190008F1190008291C0008CF
S315080000A0F1190008F1190008F1190008F1190008FA
S315080000B0F1190008F1190008F1190008592100087A
S315080000C0F1190008F1190008F11900084122000881
S315080000D09D2200082127000835270008492700081F
S315080000E0D11C0008F119000800000000F1190008E9
S315080000F0F1190008F1190008F1190008F1190008AA
S31508000100F1190008F1190008F1190008F119000899
S31508000110F1190008F1190008F1190008F119000889
S31508000120F1190008F1190008F1190008F119000879
S3150800013010B5054C237833B9044B13B10448AFF313
S3150800014000800123237010BD040000200000000079
S31508000150A427000808B5034B1BB103490348AFF3AE
S31508000160008008BD0000000008000020A427000841
S3150800017081F0004102E000BF83F0004330B54FEA4A
S3150800018041044FEA430594EA050F08BF90EA020FB7
S315080001901FBF54EA000C55EA020C7FEA645C7FEA4A
S315080001A0655C00F0E2804FEA5454D4EB5555B8BF6D
S315080001B06D420CDD2C4480EA020281EA030382EADE
S315080001C0000083EA010180EA020281EA0303362D70
S315080001D088BF30BD11F0004F4FEA01314FF4801C43
S315080001E04CEA113102D0404261EB410113F0004F55
S315080001F04FEA03334CEA133302D0524263EB43030C
S3150800020094EA050F00F0A780A4F10104D5F1200EA9
S315080002100DDB02FA0EFC22FA05F2801841F1000104
S3150800022003FA0EF2801843FA05F359410EE0A5F1D8
S3150800023020050EF1200E012A03FA0EFC28BF4CF009
S31508000240020C43FA05F3C01851EBE37101F00045BF
S3150800025007D54FF0000EDCF1000C7EEB00006EEBCC
S315080002600101B1F5801F1BD3B1F5001F0CD3490856
S315080002705FEA30004FEA3C0C04F101044FEA4452AD
S3150800028012F5800F80F09A80BCF1004F08BF5FEA34
S31508000290500C50F1000041EB045141EA050130BD14
S315080002A05FEA4C0C404141EB0101013C28BFB1F526
S315080002B0801FE9D291F0000F04BF01460020B1FA71
S315080002C081F308BF2033A3F10B03B3F120020CDA44
S315080002D00C3208DD02F1140CC2F10C0201FA0CF022
S315080002E021FA02F10CE002F11402D8BFC2F1200C87
S315080002F001FA02F120FA0CFCDCBF41EA0C0190403D
S31508000300E41AA2BF01EB0451294330BD6FEA040485
S315080003101F3C1CDA0C340EDC04F11404C4F1200270
S3150800032020FA04F001FA02F340EA030021FA04F382
S3150800033045EA030130BDC4F10C04C4F1200220FAD9
S3150800034002F001FA04F340EA0300294630BD21FA17
S3150800035004F0294630BD94F0000F83F4801306BFDD
S3150800036081F480110134013D4EE77FEA645C18BFD1
S315080003707FEA655C29D094EA050F08BF90EA020F68
S3150800038005D054EA000C04BF1946104630BD91EA60
S31508000390030F1EBF0021002030BD5FEA545C05D163
S315080003A04000494128BF41F0004130BD14F58004A2
S315080003B03CBF01F5801130BD01F0004545F0FE4116
S315080003C041F470014FF0000030BD7FEA645C1ABF4B
S315080003D0194610467FEA655C1CBF0B46024650EA82
S315080003E0013406BF52EA033591EA030F41F40021AE
S315080003F030BD00BF90F0000F04BF0021704730B534
S315080004004FF4806404F132044FF000054FF0000108
S3150800041050E700BF90F0000F04BF0021704730B5C9
S315080004204FF4806404F1320410F0004548BF40429E
S315080004304FF000013EE700BF42004FEAE2014FEAF3
S3150800044031014FEA02701FBF12F07F4393F07F4FCE
S3150800045081F06051704732F07F4208BF704793F0D1
S315080004607F4F04BF41F40021704730B54FF46074E4
S3150800047001F0004521F000411CE700BF50EA0102E7
S3150800048008BF704730B54FF000050AE050EA010290
S3150800049008BF704730B511F0004502D5404261EB00
S315080004A041014FF4806404F132045FEA915C3FF441
S315080004B0D8AE4FF003025FEADC0C18BF03325FEADE
S315080004C0DC0C18BF033202EBDC02C2F1200300FA8F
S315080004D003FC20FA02F001FA03FE40EA0E0021FAB4
S315080004E002F11444BDE600BF70B54FF0FF0C4CF4A2
S315080004F0E06C1CEA11541DBF1CEA135594EA0C0F54
S3150800050095EA0C0F00F0DEF82C4481EA030621EA8E
S315080005104C5123EA4C5350EA013518BF52EA0335C9
S3150800052041F4801143F4801338D0A0FB02CE4FF07B
S315080005300005E1FB02E506F00042E0FB03E54FF0AB
S315080005400006E1FB03569CF0000F18BF4EF0010EA3
S31508000550A4F1FF04B6F5007F64F5407404D25FEA9F
S315080005604E0E6D4146EB060642EAC62141EA555152
S315080005704FEAC52040EA5E504FEACE2EB4F1FD0C94
S3150800058088BFBCF5E06F1ED8BEF1004F08BF5FEA12
S31508000590500E50F1000041EB045170BD06F00046C4
S315080005A046EA010140EA020081EA0301B4EB5C0471
S315080005B0C2BFD4EB0C0541EA045170BD41F4801169
S315080005C04FF0000E013C00F3AB8014F1360FDEBF8E
S315080005D0002001F0004170BDC4F10004203C35DA6A
S315080005E00C341BDC04F11404C4F1200500FA05F3ED
S315080005F020FA04F001FA05F240EA020001F000428E
S3150800060021F0004110EBD37021FA04F642EB060103
S315080006105EEA430E08BF20EAD37070BDC4F10C042D
S31508000620C4F1200500FA04F320FA05F001FA04F2F1
S3150800063040EA020001F0004110EBD37041F10001DD
S315080006405EEA430E08BF20EAD37070BDC4F12005E8
S3150800065000FA05F24EEA020E20FA04F301FA05F250
S3150800066043EA020321FA04F001F0004121FA04F2F8
S3150800067020EA020000EBD3705EEA430E08BF20EAC8
S31508000680D37070BD94F0000F0FD101F00046400002
S3150800069041EB010111F4801F08BF013CF7D041EA84
S315080006A0060195F0000F18BF704703F00046520088
S315080006B043EB030313F4801F08BF013DF7D043EA59
S315080006C00603704794EA0C0F0CEA135518BF95EA0F
S315080006D00C0F0CD050EA410618BF52EA4306D1D196
S315080006E081EA030101F000414FF0000070BD50EAB5
S315080006F0410606BF1046194652EA430619D094EA3F
S315080007000C0F02D150EA013613D195EA0C0F05D128
S3150800071052EA03361CBF104619460AD181EA03017C
S3150800072001F0004141F0FE4141F470014FF0000034
S3150800073070BD41F0FE4141F4780170BD70B54FF0CF
S31508000740FF0C4CF4E06C1CEA11541DBF1CEA13554F
S3150800075094EA0C0F95EA0C0F00F0A7F8A4EB050431
S3150800076081EA030E52EA03354FEA013100F0888028
S315080007704FEA03334FF0805545EA131343EA1263F1
S315080007804FEA022245EA111545EA10654FEA0026A6
S315080007900EF000419D4208BF964244F1FD0404F55F
S315080007A0407402D25B084FEA3202B61A65EB0305BB
S315080007B05B084FEA32024FF480104FF4002CB6EB78
S315080007C0020E75EB030E22BFB61A754640EA0C00F8
S315080007D05B084FEA3202B6EB020E75EB030E22BF38
S315080007E0B61A754640EA5C005B084FEA3202B6EB79
S315080007F0020E75EB030E22BFB61A754640EA9C0038
S315080008005B084FEA3202B6EB020E75EB030E22BF07
S31508000810B61A754640EADC0055EA060E18D04FEAC5
S31508000820051545EA16754FEA06164FEAC30343EA65
S3150800083052734FEAC2025FEA1C1CC0D111F4801F32
S315080008400BD141EA00014FF000004FF0004CB6E72B
S3150800085011F4801F04BF01430020B4F1FD0C88BFCA
S31508000860BCF5E06F3FF6AFAEB5EB030C04BFB6EBD5
S31508000870020C5FEA500C50F1000041EB045170BDC8
S315080008800EF0004E4EEA113114EB5C04C2BFD4EBF5
S315080008900C0541EA045170BD41F480114FF0000E79
S315080008A0013C90E645EA060E8DE60CEA135594EAF5
S315080008B00C0F08BF95EA0C0F3FF43BAF94EA0C0FF8
S315080008C00AD150EA01347FF434AF95EA0C0F7FF46D
S315080008D025AF104619462CE795EA0C0F06D152EAC1
S315080008E003353FF4FDAE1046194622E750EA4106A5
S315080008F018BF52EA43067FF4C5AE50EA41047FF4B6
S315080009000DAF52EA43057FF4EBAE12E74A0011D267
S3150800091012F5001211D20DD56FF47873B3EB62524B
S315080009200ED44FEAC12343F0004343EA505323FA57
S3150800093002F070474FF00000704750EA013002D1CC
S315080009404FF0FF3070474FF0000070474FEA410202
S31508000950B2F1E04324BFB3F5001CDCF1FE5C0DD90F
S3150800096001F0004C4FEAC0024CEA5070B2F1004F59
S3150800097040EB830008BF20F00100704711F0804F5C
S3150800098021D113F13872BCBF01F00040704741F421
S3150800099080114FEA5252C2F11802C2F1200C10FA25
S315080009A00CF320FA02F018BF40F001004FEAC12309
S315080009B04FEAD32303FA0CFC40EA0C0023FA02F3AD
S315080009C04FEA4303CCE77FEA625307D150EA013383
S315080009D01EBF4FF0FE4040F44000704701F0004053
S315080009E040F0FE4040F40000704700BF80F0004031
S315080009F002E000BF81F0004142001FBF5FEA4103E9
S31508000A0092EA030F7FEA226C7FEA236C6AD04FEAE8
S31508000A101262D2EB1363C1BFD2184140484041402D
S31508000A20B8BF5B42192B88BF704710F0004F40F4DF
S31508000A30000020F07F4018BF404211F0004F41F4FB
S31508000A40000121F07F4118BF494292EA030F3FD0C7
S31508000A50A2F1010241FA03FC10EB0C00C3F12003DA
S31508000A6001FA03F100F0004302D5494260EB400069
S31508000A70B0F5000F13D3B0F1807F06D340084FEAD4
S31508000A80310102F10102FE2A51D2B1F1004F40EBC9
S31508000A90C25008BF20F0010040EA03007047490031
S31508000AA040EB0000013A28BFB0F5000FEDD2B0FACE
S31508000AB080FCACF1080CB2EB0C0200FA0CF0AABFF1
S31508000AC000EBC25052421843BCBFD040184370478F
S31508000AD092F0000F81F4000106BF80F40000013295
S31508000AE0013BB5E74FEA41037FEA226C18BF7FEA6C
S31508000AF0236C21D092EA030F04D092F0000F08BFAE
S31508000B000846704790EA010F1CBF0020704712F094
S31508000B107F4F04D1400028BF40F00040704712F1D3
S31508000B2000723CBF00F50000704700F0004343F038
S31508000B30FE4040F4000070477FEA226216BF08466E
S31508000B407FEA23630146420206BF5FEA412390EA31
S31508000B50010F40F4800070474FF0000304E000BF27
S31508000B6010F0004348BF40425FEA000C08BF7047D8
S31508000B7043F0964301464FF000001CE050EA01029C
S31508000B8008BF70474FF000030AE000BF50EA0102B1
S31508000B9008BF704711F0004302D5404261EB41019E
S31508000BA05FEA010C02BF84460146002043F0B643C3
S31508000BB008BFA3F18053A3F50003BCFA8CF2083AE8
S31508000BC0A3EBC25310DB01FA02FC634400FA02FCF1
S31508000BD0C2F12002BCF1004F20FA02F243EB0200F8
S31508000BE008BF20F00100704702F1200201FA02FC5A
S31508000BF0C2F1200250EA4C0021FA02F243EB02004D
S31508000C0008BF20EADC7070474FF0FF3C06E000BFE3
S31508000C104FF0010C02E000BF4FF0010C4DF804CD77
S31508000C204FEA40024FEA41037FEA226C18BF7FEA87
S31508000C30236C11D001B052EA530C18BF90EA010F89
S31508000C4058BFB2EB030088BFC81738BF6FEAE17018
S31508000C5018BF40F0010070477FEA226C02D15FEAB4
S31508000C60402C05D17FEA236CE4D15FEA412CE1D020
S31508000C705DF8040B704700BF844608466146FFE7E7
S31508000C800FB5FFF7C9FF002848BF10F1000F0FBDC9
S31508000C904DF808EDFFF7F4FF0CBF012000205DF8C2
S31508000CA008FB00BF4DF808EDFFF7EAFF34BF012047
S31508000CB000205DF808FB00BF4DF808EDFFF7E0FFE0
S31508000CC094BF012000205DF808FB00BF4DF808ED31
S31508000CD0FFF7D2FF94BF012000205DF808FB00BF94
S31508000CE04DF808EDFFF7C8FF34BF012000205DF876
S31508000CF008FB00BF80B500AF124B04229A70114B57
S31508000D000122DA700F4B4FF480721A800D490E4893
S31508000D1001F0F8F80B4B4FF400721A8009490A489B
S31508000D2001F0F0F8074B80221A800649064801F0C0
S31508000D30E9F8044B40221A800249034801F0E2F818
S31508000D4000BF80BD30000020000C014080B500AF18
S31508000D500C4B00221A800B4B00225A80094B0722A3
S31508000D609A80002207494FF0804001F0C5FA032215
S31508000D7004494FF0804001F0BFFAFFF7BBFF00BF00
S31508000D8080BD00BF2000002080B582B000AF78602B
S31508000D9000228021144801F04BF901224021124813
S31508000DA001F046F900224FF400710F4801F040F9AE
S31508000DB001224FF480710C4801F03AF9032242F6F9
S31508000DC0E0614FF0804001F06BFC002242F6E061E2
S31508000DD04FF0804001F064FC7B68184600F00AFE7C
S31508000DE000BF0837BD4680BD000C014080B582B003
S31508000DF000AF03463960FB71FB79002B28D101222D
S31508000E0080212B4801F014F900224021284801F0DE
S31508000E100FF900224FF40071254801F009F9012263
S31508000E204FF48071224801F003F9032242F6F821B3
S31508000E304FF0804001F034FC002242F6F8214FF0D2
S31508000E40804001F02DFC3B68184600F0D3FD2AE0EF
S31508000E50FB79012B27D100224FF48071144801F049
S31508000E60E7F801224FF40071114801F0E1F8012278
S31508000E7040210F4801F0DCF8002280210C4801F0DF
S31508000E80D7F8002242F6F8214FF0804001F008FC1E
S31508000E90032242F6F8214FF0804001F001FC3B683E
S31508000EA0184600F0A7FD00BF0837BD4680BD00BF45
S31508000EB0000C014080B582B000AF0346FB71FB7998
S31508000EC0002B24D101228021294801F0B1F8002203
S31508000ED04021274801F0ACF800224FF4007124485D
S31508000EE001F0A6F801224FF48071214801F0A0F81C
S31508000EF0032242F6F8214FF0804001F0D1FB002290
S31508000F0042F6F8214FF0804001F0CAFB26E0FB7953
S31508000F10012B23D100224FF48071154801F088F87F
S31508000F2001224FF40071124801F082F80122402193
S31508000F300F4801F07DF8002280210D4801F078F86D
S31508000F40002242F6F8214FF0804001F0A9FB032267
S31508000F5042F6F8214FF0804001F0A2FB4FF42F70C3
S31508000F6000F048FD00F058F800BF0837BD4680BDC0
S31508000F70000C014080B582B000AF03463960FB71B2
S31508000F8000224FF48071234801F052F801224FF4F1
S31508000F900071204801F04CF8012280211D4801F01B
S31508000FA047F8002240211B4801F042F8FB799BB222
S31508000FB01A46920013441A4691001A460B461344E1
S31508000FC0DB009BB2C3F59C4320339BB20022194633
S31508000FD04FF0804001F064FBFB799BB21A46920001
S31508000FE013441A4691001A460B461344DB009BB27B
S31508000FF0C3F59C4320339BB2032219464FF0804029
S3150800100001F04EFB3B68184600F0F4FC00BF0837B9
S31508001010BD4680BD000C014080B500AF002244F6F5
S3150800102020614FF0804001F03BFB032244F620612B
S315080010304FF0804001F034FB00BF80BD80B582B020
S3150800104000AF0223BB714FF48043BB803B1D19469A
S31508001050304800F057FF0023BB710123BB803B1DBE
S3150800106019462C4800F04EFF0223BB710223BB80B1
S315080010703B1D1946274800F045FF0223BB71102384
S31508001080BB803B1D1946244800F03CFF0223BB7178
S315080010902023BB803B1D19461F4800F033FF02235F
S315080010A0BB714FF48063BB803B1D1946194800F09D
S315080010B029FF0223BB714FF40043BB803B1D194631
S315080010C0144800F01FFF0223BB711023BB803B1D91
S315080010D01946104800F016FF0223BB714FF400535F
S315080010E0BB803B1D19460B4800F00CFF0B4B00223A
S315080010F01A600A4B6FF400629A60084B00221A6164
S31508001100064B08221A71054800F09EFC00BF0837F6
S31508001110BD4680BD000C0140000801403400002097
S3150800112080B500AF4FF48041024800F06AFF0346DD
S31508001130184680BD000C014080B500AF4FF4005141
S31508001140024800F05EFF0346184680BD000C0140C9
S3150800115080B500AF082000F0E7FC0346184680BDBE
S3150800116080B500AF4FF40041024800F04AFF03463D
S31508001170184680BD000C014080B500AF2021034809
S3150800118000F03FFF0346184680BD00BF0008014037
S3150800119080B500AF4FF48061024800F032FF034685
S315080011A0184680BD000C014080B500AF10210348E9
S315080011B000F027FF0346184680BD00BF000801401F
S315080011C080B586B000AF44F62063FB820023FB801F
S315080011D00123BB8007233B813B1D012219464FF0A3
S315080011E0804001F089F8012200214FF0804001F08B
S315080011F057FAFB8A19464FF0804001F083FA00BF80
S315080012001837BD4680BD000080B584B000AF0346E0
S31508001210FB71FB791846FFF7FDF815A3D3E9002300
S31508001220FFF762F902460B46104619464FF00002D0
S31508001230114BFEF7A3FF02460B46104619464FF020
S3150800124000020E4BFEF79AFF02460B461046194659
S31508001250FFF75CFB0346FB81FB89012219464FF029
S31508001260804001F01DFA00BF1037BD4680BD00BFA3
S31508001270B81E85EB513826400000E03F00407F400D
S3150800128080B500AF01F098F9074B04229A70064B17
S315080012900122DA70044B20221A800349034800F021
S315080012A031FE00BF80BD00BF4C000020000C01408D
S315080012B080B584B000AF0346FB714FF00003FB60B6
S315080012C001222021144800F0B3FE0A2000F092FB08
S315080012D000222021104800F0ABFEFB79184601F0E9
S315080012E09DF903461846FFF7A7F809A3D3E9002393
S315080012F0FFF724FA02460B4610461946FFF726FB67
S315080013000346FB60FB6818461037BD4680BD00BF24
S315080013106666666666264D40000C014080B400AFDE
S31508001320254B9B69244A43F004039361224B9B692E
S31508001330214A43F0080393611F4B9B691E4A43F0F9
S31508001340100393611C4B9B691B4A43F0010393618D
S31508001350194BDB69184A43F00103D361164BDB6965
S31508001360154A43F00203D361134B9B69124A43F4AF
S3150800137000739361104B9B690F4A43F400639361B2
S315080013800E4B1B680D4A43F0020313600B4B1B6898
S315080013900A4A43F4C0131360084B1B68074A43F014
S315080013A090031360044B1B68034A43F08073136071
S315080013B000BFBD4680BC70470010024004100240C2
S315080013C080B582B000AF0346FB71FB791A464FF42D
S315080013D08051034800F02CFE00BF0837BD4680BD8B
S315080013E0000C014080B500AFFFF79AFE0346002BBC
S315080013F001D0012323E0FFF7B3FE0346002B01D0FB
S3150800140005231CE0FFF798FE0346002B01D00623B0
S3150800141015E0FFF7BDFE0346002B01D002230EE0C0
S31508001420FFF7C2FE0346002B01D0032307E0FFF7B0
S31508001430A3FE0346002B01D0042300E00023184630
S3150800144080BD000080B582B000AF0346FB71FB7912
S31508001450062B37D801A252F823F000BFC51400089E
S31508001460C51400089714000879140008A714000882
S31508001470B7140008891400084FF4C8710120FFF753
S31508001480B5FCFFF7C9FD1EE0FA210120FFF7AEFC07
S31508001490FFF7C2FD17E04FF4C8710020FFF7A6FC5E
S315080014A0FFF7BAFD0FE040F2B6310020FFF79EFCC9
S315080014B0FFF7B2FD07E0FA210020FFF797FCFFF7D8
S315080014C0ABFD00E000BF00BF0837BD4680BD00BFCA
S315080014D080B582B000AF00237B6000237B6033E0D9
S315080014E00F213220FFF746FD0020FFF7E1FE0346F5
S315080014F040491846FFF7E0FB0346002B18D1FFF7D3
S315080015000FFE0346002B13D1FFF736FE0346002BCA
S315080015100ED1FFF73DFE0346002B09D1FFF744FE27
S315080015200346002B04D1FFF71BFE0346002B08D009
S31508001530FFF772FD304B1B68013B2F4A13600023EF
S3150800154053E07B6801337B602B4B1B687A689A42B1
S31508001550C6DBFFF761FD0020FFF7ACFC00237B60CC
S3150800156033E00F213220FFF705FD0020FFF7A0FE2C
S31508001570034620491846FFF79FFB0346002B18D160
S31508001580FFF7CEFD0346002B13D1FFF7F5FD034603
S31508001590002B0ED1FFF7FCFD0346002B09D1FFF700
S315080015A003FE0346002B04D1FFF7DAFD0346002BA2
S315080015B008D0FFF731FD104B1B68013B0E4A13603C
S315080015C0002312E07B6801337B600B4B1B687A684B
S315080015D09A42C6DBFFF720FD0020FFF76BFC064B9F
S315080015E01B680533044A1360002318460837BD46AE
S315080015F080BD00BF000048420000002090B583B0BF
S3150800160000AFFFF7A5FD0346B3F5FA6F80F2F48045
S31508001610FFF786FD0346002B4DD1FFF7A1FD0346D4
S31508001620002B04D0FFF788FD0346002B43D1FFF7B4
S31508001630D9FE03461846FFF705FF3CE00020FFF7F2
S3150800164037FE03466E491846FFF736FB0346002B5E
S3150800165004D0FFF765FD0346002B42D10F21282051
S31508001660FFF788FCFFF75CFD0346002B0FD1FFF759
S3150800167077FD0346002B04D0FFF75EFD0346002BDB
S3150800168005D1FFF7AFFE03461846FFF7DBFEFFF767
S3150800169047FD0346002B0ED1FFF76EFD0346002BD0
S315080016A020D1FFF775FD0346002B1BD1FFF77CFD04
S315080016B00346002B16D10020FFF7FAFD0346012248
S315080016C014464F491846FFF7F7FA0346002B01D18F
S315080016D000231C46E3B283F00103DBB2002BADD135
S315080016E000E000BFFFF798FC6DE00020FFF7E0FD83
S315080016F0034644491846FFF7DFFA0346002B04D091
S31508001700C820FFF741FBFFF787FC0120FFF758FECB
S3150800171000237B6000233B6000233B6050E00023EE
S315080017207B600CE07B68DBB25A33DBB21846FFF706
S315080017306BFD1E2000F05EF97B6802337B607B68D8
S315080017401E2BEFDD1E237B600CE07B68DBB25A3371
S31508001750DBB21846FFF758FD1E2000F04BF97B68F0
S31508001760023B7B607B68002BEFDA00237B600DE091
S315080017707B68DBB2C3F15A03DBB21846FFF744FDB8
S315080017801E2000F037F97B6802337B607B681E2BCE
S31508001790EEDD1E237B600DE07B68DBB2C3F15A03E6
S315080017A0DBB21846FFF730FD1E2000F023F97B68F0
S315080017B0023B7B607B68002BEEDA3B6801333B60BB
S315080017C03B68002BABDD0020FFF772FD03460C4992
S315080017D01846FFF771FA0346002B04D0FFF7A0FC62
S315080017E00346002B81D10020FFF7EAFD01220021E4
S315080017F04FF0804000F054FF00BF0C37BD4690BD47
S315080018000000F0410000A04180B582B000AF04237B
S31508001810BB710123FB714FF48053BB803B1D1946F6
S31508001820034800F06FFB00BF0837BD4680BD00BF08
S31508001830000C014080B500AFFFF788FAFFF7FEFB02
S31508001840FFF71EFDFFF7BCFCFFF7DEFF00BF80BDFC
S3150800185080B500AFFFF7E0FB4FF4FA70FFF794FA94
S315080018604FF4FA710020FFF7C1FAFFF7D5FB00BF66
S3150800187080BD000090B583B000AFFFF74FFDFFF7BE
S31508001880D9FF0023FB710023BB710523BB7002231C
S31508001890FB704FF400533B803B4619463E4800F028
S315080018A031FB0423BB700223FB704FF480433B805B
S315080018B03B461946384800F025FB0423BB70022333
S315080018C0FB704FF400433B803B461946324800F014
S315080018D019FB0020FFF7ECFC0346012214462F49AA
S315080018E01846FFF7E9F90346002B01D100231C46E9
S315080018F0E3B2FB71FFF714FC0346002B18D1FFF780
S315080019003BFC0346002B13D1FFF742FC0346002B92
S315080019100ED1FFF749FC0346002B09D1FFF720FC3F
S315080019200346002B04D1FFF707FC0346002B01D022
S31508001930012300E00023BB71FB79002B0BD0BB7998
S31508001940002B08D0FFF74EFD03461846FFF77AFD31
S31508001950FFF754FE19E0FB79002B05D1BB79002B64
S3150800196002D1FFF7B5FD10E0FB79002B02D0FFF797
S315080019706FFF0AE0BB79002B07D0FFF733FD03465C
S315080019801846FFF75FFDFFF739FE4FF4004102489E
S3150800199000F065FB9DE700BF0010014000004842CB
S315080019A00D488546AFF300800C480D490D4A0023C3
S315080019B002E0D458C4500433C4188C42F9D30A4AF6
S315080019C00A4C002301E013600432A242FBD300F064
S315080019D0C5FEFFF74FFFFEE70028002000000020A5
S315080019E004000020C427000804000020D8000020B6
S315080019F0FEE7000080B483B000AF7860114B41F673
S31508001A003F729A627B685A1E0E4BDA620D4B1B6850
S31508001A100C4A43F00103136000BF0A4B1B6903F02D
S31508001A200103002BF9D0074B00221A61054B00224F
S31508001A301A60044B00225A6200BF0C37BD4680BCB0
S31508001A40704700BF002C014080B483B000AF7860B7
S31508001A507B689B68B3F5006F05D1304B9B682F4AAE
S31508001A6043F4006393607B681B68022B05D12B4BFC
S31508001A709B682A4A43F0020393607B681B69002B24
S31508001A8023D07B681B79092B0FD8244BDA687B682F
S31508001A9019697B681B79184603465B00034401FAFB
S31508001AA003F31E491343CB600FE01C4B19697B688F
S31508001AB018697B681B79A3F10A0213465B00134475
S31508001AC000FA03F3154A0B4313617B68DB68202B86
S31508001AD00CD1124B5B68114A43F020035360104B3C
S31508001AE01B680F4A43F4802313600BE00B4B5B68BB
S31508001AF00A4A23F0200353600A4B1B68094A43F439
S31508001B0080231360054B9B68044A43F001039360E6
S31508001B1000BF0C37BD4680BC704700BF002401409B
S31508001B2000E100E080E100E080B485B000AF034644
S31508001B30FB710F4AFB7953630D4B9B680C4A43F0C4
S31508001B400103936000BF0A4B1B6803F00203002BD6
S31508001B50F9D0074B9B68064A23F480039360044B2D
S31508001B60DB6CFB81FB8918461437BD4680BC704781
S31508001B700024014080B500AF054B5B69044A43F079
S31508001B8001035361034B1B68984700BF80BD00BF24
S31508001B90000401405000002080B500AF054B5B698A
S31508001BA0044A43F002035361034B5B68984700BF3E
S31508001BB080BD00BF000401405000002080B500AF82
S31508001BC0054B5B69044A43F004035361034B9B6866
S31508001BD0984700BF80BD00BF0004014050000020A8
S31508001BE080B500AF054B5B69044A43F008035361AF
S31508001BF0034BDB68984700BF80BD00BF0004014067
S31508001C005000002080B500AF054B5B69044A43F0DD
S31508001C1010035361034B1B69984700BF80BD00BF83
S31508001C20000401405000002080B500AF264B5B69D8
S31508001C3003F02003002B08D0234B5B69224A43F0AC
S31508001C4020035361214B5B6998471F4B5B6903F07F
S31508001C504003002B08D01C4B5B691B4A43F040032A
S31508001C6053611A4B9B699847174B5B6903F08003CE
S31508001C70002B08D0144B5B69134A43F08003536169
S31508001C80124BDB699847104B5B6903F48073002B92
S31508001C9008D00D4B5B690C4A43F4807353610B4BB8
S31508001CA01B6A9847084B5B6903F40073002B08D03E
S31508001CB0054B5B69044A43F400735361034B5B6A43
S31508001CC0984700BF80BD00BF0004014050000020B7
S31508001CD080B500AF2D4B5B6903F48063002B08D0F9
S31508001CE02A4B5B69294A43F480635361284B9B6AF4
S31508001CF09847264B5B6903F40063002B08D0234BF7
S31508001D005B69224A43F400635361214BDB6A9847B7
S31508001D101E4B5B6903F48053002B08D01B4B5B6991
S31508001D201A4A43F480535361194B1B6B9847174B58
S31508001D305B6903F40053002B08D0144B5B69134A04
S31508001D4043F400535361124B5B6B98470F4B5B6927
S31508001D5003F48043002B08D00C4B5B690B4A43F411
S31508001D60804353610A4B9B6B9847084B5B6903F4A6
S31508001D700043002B08D0054B5B69044A43F4004333
S31508001D805361034BDB6B984700BF80BD00040140DD
S31508001D905000002080B483B000AF0346FB80FB8868
S31508001DA0B3F5004F00F0A580B3F5004F00F3A3800C
S31508001DB0B3F5804F00F09B80B3F5804F00F39B800E
S31508001DC0B3F5005F00F09180B3F5005F00F39380F0
S31508001DD0B3F5805F00F08780B3F5805F00F38B80F2
S31508001DE0B3F5006F7DD0B3F5006F00F38480B3F5CB
S31508001DF0806F74D0B3F5806F7DDCB3F5007F6CD04F
S31508001E00B3F5007F77DCB3F5807F64D0B3F5807FC8
S31508001E1071DC802B5DD0802B6DDC202B48DC002B01
S31508001E2069DD013B1F2B66D801A252F823F000BFDB
S31508001E30B71E0008BB1E0008F71E0008BF1E0008D4
S31508001E40F71E0008F71E0008F71E0008C31E000844
S31508001E50F71E0008F71E0008F71E0008F71E000800
S31508001E60F71E0008F71E0008F71E0008C71E000820
S31508001E70F71E0008F71E0008F71E0008F71E0008E0
S31508001E80F71E0008F71E0008F71E0008F71E0008D0
S31508001E90F71E0008F71E0008F71E0008F71E0008C0
S31508001EA0F71E0008F71E0008F71E0008CB1E0008DC
S31508001EB0402B0CD01FE000231EE004231CE008235F
S31508001EC01AE00C2318E0102316E0142314E0182354
S31508001ED012E01C2310E000230EE004230CE0082384
S31508001EE00AE00C2308E0102306E0142304E0182374
S31508001EF002E01C2300E0002318460C37BD4680BCD0
S31508001F00704700BF90B585B000AF78603960002390
S31508001F10BB600023FB733B681B88FF2B01D87B68DB
S31508001F2001E07B680433BB603B681B881846FFF7F3
S31508001F3031FF03461A460F239340DA43BB681B68F2
S31508001F401A40BB681A603B689B78072B0BD03B6826
S31508001F509B78062B07D03B689B78052B03D03B68FC
S31508001F609B78042B0ED13B689B78043B9B005AB2A6
S31508001F703B68DB785BB213435BB2DBB203F00F035B
S31508001F80FB732CE03B689B78012B03D03B689B785E
S31508001F90002B07D13B689B789B00DBB203F00F034D
S31508001FA0FB731CE03B689B78082B02D10423FB7368
S31508001FB015E00823FB733B689B78022B07D17B68E7
S31508001FC0DB683A6812881A437B68DA6007E07B6840
S31508001FD0DB683A681288D2431A407B68DA60FC7B71
S31508001FE03B681B881846FFF7D5FE034604FA03F23A
S31508001FF0BB681B681A43BB681A6000BF1437BD4626
S3150800200090BD80B485B000AF78600B467B807B6856
S315080020109A687B881340002B02D00123FB7301E0EA
S315080020200023FB73FB7B18461437BD4680BC7047FC
S3150800203080B483B000AF78600B467B8013467B7014
S315080020407B78002B03D07A887B681A6102E07A884D
S315080020507B685A6100BF0C37BD4680BC704780B4A8
S3150800206083B000AF78600B467B807B68DA687B8834
S315080020705A407B68DA6000BF0C37BD4680BC7047A3
S3150800208080B584B000AF78600B46FB707B68304A39
S31508002090934214BF01230023DBB2FB73FB78032BA7
S315080020A051D801A252F823F0B9200008DD20000813
S315080020B0F5200008192100087B689B6903F00403D2
S315080020C0002B3BD0FA7B23491346DB009B1A9B0067
S315080020D00B4418331B68002098472FE0FA7B1D49EC
S315080020E01346DB009B1A9B000B4418331B68012020
S315080020F0984728E07B689B6903F00403002B1FD0F0
S31508002100FA7B14491346DB009B1A9B000B441833D1
S315080021101B680220984713E07B689B6903F0040359
S31508002120002B0FD1FA7B0B491346DB009B1A9B0049
S315080021300B4418331B680320984703E000BF02E0EE
S3150800214000BF00E000BF00BF1037BD4680BD00BF1E
S31508002150005400408C00002080B584B000AF0023F6
S315080021603B60364B5B6903F01003FB60334B5B68DF
S3150800217003F40073BB60314B5B6803F480637B60D8
S31508002180BB68002B0AD0FB68002B07D02B4B2B4AC9
S315080021901B68136000212948FFF772FF274B5B690C
S315080021A003F00203FB60BB68002B12D0FB68002B10
S315080021B00FD0224B9B6903F00103002B09D11F4B5B
S315080021C05B693B601D4B9B693B6001211B48FFF720
S315080021D057FF1A4B5B6903F08003FB60BB68002B53
S315080021E00FD07B68002B0CD0FB68002B09D0134B53
S315080021F09B6903F00103002B03D102210F48FFF767
S315080022003FFF0E4B5B6903F04003FB60BB68002B86
S315080022100FD07B68002B0CD0FB68002B09D0074B2E
S315080022209B6903F00103002B03D103210348FFF741
S3150800223027FF00BF1037BD4680BD00BF00540040D1
S3150800224080B582B000AF134B9B685B0803F00103AF
S31508002250DAB23B7962F300033B710E4B9B6803F0DD
S315080022600103DAB23B7962F341033B71094B9B6880
S315080022701B0903F00103DAB23B7962F382033B716F
S31508002280054B1B689B693879984700BF0837BD46D8
S3150800229080BD00BF00300140C400002080B582B078
S315080022A000AF134B9B685B0803F00103DAB23B7976
S315080022B062F300033B710E4B9B6803F00103DAB22D
S315080022C03B7962F341033B71094B9B681B0903F099
S315080022D00103DAB23B7962F382033B71054B5B6813
S315080022E09B693879984700BF0837BD4680BD00BF4F
S315080022F000380040C400002080B586B000AFF86002
S31508002300B9601346FB71FB6881221A60BB681B889B
S31508002310022B00F0D380FB68B3F1804F31D1A04B7C
S31508002320DB699F4A43F00103D3610623BB7501238A
S31508002330FB75FB79032B17D801A252F823F000BFCF
S3150800234051230008572300085D230008632300086B
S315080023500123BB8208E00223BB8205E00423BB827B
S3150800236002E00823BB8200BF07F1140319468D4813
S31508002370FFF7C8FD8C4B1B688B4A43F080531360EC
S3150800238072E0FB68894A93423DD10623BB75012357
S31508002390FB75FB79032B2FD801A252F823F000BF57
S315080023A0B1230008C3230008D5230008E723000843
S315080023B04023BB8207F1140319467A48FFF7A2FDAA
S315080023C01AE08023BB8207F1140319467548FFF704
S315080023D099FD11E00123BB8207F1140319467448DD
S315080023E0FFF790FD08E00223BB8207F114031946A4
S315080023F06F48FFF787FD00BF6B4B1B686A4A43F0BF
S315080024008053136030E0FB686A4A93422CD1062356
S31508002410BB750123FB75FB79032B19D801A252F86A
S3150800242023F000BF352400083B2400084124000897
S31508002430492400084023BB820AE08023BB8207E0C8
S315080024404FF48073BB8203E04FF40073BB8200BF76
S3150800245007F1140319465648FFF754FD524B1B68FB
S31508002460514A43F080431360FB79032B50D801A2ED
S3150800247052F823F08524000893240008A1240008B4
S31508002480AF240008FB689B6943F07802FB689A61F1
S315080024903EE0FB689B6943F4F042FB689A6137E0CB
S315080024A0FB68DB6943F07802FB68DA6130E0FB68B9
S315080024B0DB6943F4F042FB68DA6129E0FB79032B18
S315080024C026D801A252F823F0D9240008E7240008E8
S315080024D0F524000803250008FB689B6923F07802A9
S315080024E0FB689A6114E0FB689B6923F4F042FB6879
S315080024F09A610DE0FB68DB6923F07802FB68DA6114
S3150800250006E0FB68DB6923F4F042FB68DA6100BF8A
S31508002510FB79032B36D801A252F823F02D250008A3
S3150800252043250008592500086F250008FB681B6A23
S3150800253043F00102FB681A62FB6842F210725A63A2
S3150800254020E0FB681B6A43F03002FB681A62FB68EE
S3150800255042F210729A6315E0FB681B6A43F48072B4
S31508002560FB681A62FB6842F21072DA630AE0FB68DB
S315080025701B6A43F48052FB681A62FB6842F21072C7
S315080025801A6400BFBB689B881A46FB689A62FB6898
S3150800259044F62062DA6200BF1837BD4680BD00BF28
S315080025A0001002400008014080E100E000040040FD
S315080025B0000C01400008004080B582B000AF154B02
S315080025C081221A600123BB714023BB803B1D19463B
S315080025D01148FFF797FC0123BB718023BB803B1D85
S315080025E019460D48FFF78EFC0A4B07229A62094BDB
S315080025F04FF6FF72DA62074B43F231129A61054BC6
S315080026001B6A044A43F01103136200BF0837BD462C
S3150800261080BD00BF000400400008014080B584B0BA
S3150800262000AF0346FB714FF00003FB601B4B1B6AB0
S315080026301A4A23F00203136200BF184B1B6903F002
S315080026400203002BF9D0154B5B69144A43F00103CA
S315080026505361124B00221A61104B1B6A0F4A43F052
S315080026600203136200BF0D4B1B6903F00203002B24
S31508002670F9D00A4B00221A61084B1B6A074A23F055
S3150800268002031362054B5B6B1846FEF765FA0346B1
S31508002690FB60FB6818461037BD4680BD0004004045
S315080026A080B483B000AF78600B467B8013467B709E
S315080026B07B78032B1AD801A252F823F0CD260008FE
S315080026C0D5260008DD260008E52600087A887B68F6
S315080026D05A630BE07A887B689A6307E07A887B6896
S315080026E0DA6303E07A887B681A6400BF7B685B69F3
S315080026F043F001027B685A6100BF0C37BD4680BCB7
S31508002700704700BF80B483B000AF78600B467B800B
S315080027107A887B68DA6200BF0C37BD4680BC704792
S3150800272080B500AF024B1B68DB68984700BF80BDC9
S31508002730CC00002080B500AF024B5B68DB68984789
S3150800274000BF80BDCC00002080B500AF024B9B685F
S31508002750DB68984700BF80BDCC00002070B5002616
S315080027600C4D0D4C641BA410A64209D100F01AF8B2
S3150800277000260A4D0A4C641BA410A64205D170BD5A
S3150800278055F8043B98470136EEE755F8043B984759
S315080027900136F2E7BC270008BC270008BC2700085A
S315080027A0C0270008F8B500BFF8BC08BC9E467047AD
S311080027B0F8B500BFF8BC08BC9E46704790
S309080027BC55010008AD
S309080027C031010008CD
S309080027C414000000EF
S705080019A138
